{
  "contractName": "ContractRegistryInterface",
  "abi": [
    {
      "constant": true,
      "inputs": [],
      "name": "debtKernel",
      "outputs": [
        {
          "name": "",
          "type": "address"
        }
      ],
      "payable": false,
      "stateMutability": "view",
      "type": "function"
    },
    {
      "constant": true,
      "inputs": [],
      "name": "tokenTransferProxy",
      "outputs": [
        {
          "name": "",
          "type": "address"
        }
      ],
      "payable": false,
      "stateMutability": "view",
      "type": "function"
    },
    {
      "constant": true,
      "inputs": [],
      "name": "collateralizer",
      "outputs": [
        {
          "name": "",
          "type": "address"
        }
      ],
      "payable": false,
      "stateMutability": "view",
      "type": "function"
    },
    {
      "constant": true,
      "inputs": [],
      "name": "debtToken",
      "outputs": [
        {
          "name": "",
          "type": "address"
        }
      ],
      "payable": false,
      "stateMutability": "view",
      "type": "function"
    },
    {
      "inputs": [
        {
          "name": "_collateralizer",
          "type": "address"
        },
        {
          "name": "_debtKernel",
          "type": "address"
        },
        {
          "name": "_debtToken",
          "type": "address"
        },
        {
          "name": "_tokenTransferProxy",
          "type": "address"
        }
      ],
      "payable": false,
      "stateMutability": "nonpayable",
      "type": "constructor"
    }
  ],
  "bytecode": "0x608060405234801561001057600080fd5b506040516080806104d5833981018060405261002f919081019061014f565b836000806101000a81548173ffffffffffffffffffffffffffffffffffffffff021916908373ffffffffffffffffffffffffffffffffffffffff16021790555082600160006101000a81548173ffffffffffffffffffffffffffffffffffffffff021916908373ffffffffffffffffffffffffffffffffffffffff16021790555081600260006101000a81548173ffffffffffffffffffffffffffffffffffffffff021916908373ffffffffffffffffffffffffffffffffffffffff16021790555080600360006101000a81548173ffffffffffffffffffffffffffffffffffffffff021916908373ffffffffffffffffffffffffffffffffffffffff160217905550505050506101d2565b600061014782516101b2565b905092915050565b6000806000806080858703121561016557600080fd5b60006101738782880161013b565b94505060206101848782880161013b565b93505060406101958782880161013b565b92505060606101a68782880161013b565b91505092959194509250565b600073ffffffffffffffffffffffffffffffffffffffff82169050919050565b6102f4806101e16000396000f300608060405260043610610062576000357c0100000000000000000000000000000000000000000000000000000000900463ffffffff168063079dd4b7146100675780630eefdbad14610092578063869f0511146100bd578063f8d89898146100e8575b600080fd5b34801561007357600080fd5b5061007c610113565b6040516100899190610201565b60405180910390f35b34801561009e57600080fd5b506100a7610139565b6040516100b49190610237565b60405180910390f35b3480156100c957600080fd5b506100d261015f565b6040516100df91906101e6565b60405180910390f35b3480156100f457600080fd5b506100fd610184565b60405161010a919061021c565b60405180910390f35b600160009054906101000a900473ffffffffffffffffffffffffffffffffffffffff1681565b600360009054906101000a900473ffffffffffffffffffffffffffffffffffffffff1681565b6000809054906101000a900473ffffffffffffffffffffffffffffffffffffffff1681565b600260009054906101000a900473ffffffffffffffffffffffffffffffffffffffff1681565b6101b381610272565b82525050565b6101c281610284565b82525050565b6101d181610296565b82525050565b6101e0816102a8565b82525050565b60006020820190506101fb60008301846101aa565b92915050565b600060208201905061021660008301846101b9565b92915050565b600060208201905061023160008301846101c8565b92915050565b600060208201905061024c60008301846101d7565b92915050565b600073ffffffffffffffffffffffffffffffffffffffff82169050919050565b600061027d82610252565b9050919050565b600061028f82610252565b9050919050565b60006102a182610252565b9050919050565b60006102b382610252565b90509190505600a265627a7a723058202fa3388b4cb9153e4773f51c478d3fc880fa7289e8ef1d9ba18bb135fec278236c6578706572696d656e74616cf50037",
  "source": "pragma solidity 0.4.24;\npragma experimental ABIEncoderV2;\n\nimport \"./CollateralizerInterface.sol\";\nimport \"./DebtKernelInterface.sol\";\nimport \"./DebtTokenInterface.sol\";\nimport \"./TokenTransferProxyInterface.sol\";\n\ncontract ContractRegistryInterface {\n\n    CollateralizerInterface public collateralizer;\n    DebtKernelInterface public debtKernel;\n    DebtTokenInterface public debtToken;\n    TokenTransferProxyInterface public tokenTransferProxy;\n\n    function ContractRegistryInterface(\n        address _collateralizer,\n        address _debtKernel,\n        address _debtToken,\n        address _tokenTransferProxy\n    )\n        public\n    {\n        collateralizer = CollateralizerInterface(_collateralizer);\n        debtKernel = DebtKernelInterface(_debtKernel);\n        debtToken = DebtTokenInterface(_debtToken);\n        tokenTransferProxy = TokenTransferProxyInterface(_tokenTransferProxy);\n    }\n\n}\n",
  "sourcePath": "/Users/chrismin/Documents/dev/dharma/experimental/contracts/src/shared/interfaces/ContractRegistryInterface.sol",
  "compiler": {
    "name": "solc",
    "version": "0.4.24+commit.e67f0147.Emscripten.clang"
  },
  "schemaVersion": "2.0.1",
  "updatedAt": "2018-11-20T21:37:03.983Z"
}