{
  "contractName": "CreditorProxyCore",
  "abi": [
    {
      "constant": true,
      "inputs": [],
      "name": "contractRegistry",
      "outputs": [
        {
          "name": "",
          "type": "address"
        }
      ],
      "payable": false,
      "stateMutability": "view",
      "type": "function"
    },
    {
      "constant": true,
      "inputs": [],
      "name": "EXTERNAL_QUERY_GAS_LIMIT",
      "outputs": [
        {
          "name": "",
          "type": "uint16"
        }
      ],
      "payable": false,
      "stateMutability": "view",
      "type": "function"
    },
    {
      "anonymous": false,
      "inputs": [
        {
          "indexed": true,
          "name": "_creditor",
          "type": "address"
        },
        {
          "indexed": true,
          "name": "_creditorCommitmentHash",
          "type": "bytes32"
        }
      ],
      "name": "DebtOfferCancelled",
      "type": "event"
    },
    {
      "anonymous": false,
      "inputs": [
        {
          "indexed": true,
          "name": "_creditor",
          "type": "address"
        },
        {
          "indexed": true,
          "name": "_creditorCommitmentHash",
          "type": "bytes32"
        },
        {
          "indexed": true,
          "name": "_agreementId",
          "type": "bytes32"
        }
      ],
      "name": "DebtOfferFilled",
      "type": "event"
    },
    {
      "anonymous": false,
      "inputs": [
        {
          "indexed": true,
          "name": "_errorId",
          "type": "uint8"
        },
        {
          "indexed": true,
          "name": "_creditor",
          "type": "address"
        },
        {
          "indexed": true,
          "name": "_creditorCommitmentHash",
          "type": "bytes32"
        }
      ],
      "name": "CreditorProxyError",
      "type": "event"
    }
  ],
  "bytecode": "0x608060405234801561001057600080fd5b506101a0806100206000396000f30060806040526004361061004c576000357c0100000000000000000000000000000000000000000000000000000000900463ffffffff168063abf410e514610051578063f06bbf751461007c575b600080fd5b34801561005d57600080fd5b506100666100a7565b60405161007391906100f0565b60405180910390f35b34801561008857600080fd5b506100916100cc565b60405161009e919061010b565b60405180910390f35b6000809054906101000a900473ffffffffffffffffffffffffffffffffffffffff1681565b611f4081565b6100db81610154565b82525050565b6100ea81610146565b82525050565b600060208201905061010560008301846100d2565b92915050565b600060208201905061012060008301846100e1565b92915050565b600073ffffffffffffffffffffffffffffffffffffffff82169050919050565b600061ffff82169050919050565b600061015f82610126565b90509190505600a265627a7a72305820647f0891d9d1cdaac343d0b5353b2491a8536eb19aab69fbd0d0a8f1d4eee60e6c6578706572696d656e74616cf50037",
  "source": "pragma solidity ^0.4.24;\npragma experimental ABIEncoderV2;\n\n// External libraries\nimport \"zeppelin-solidity/contracts/token/ERC20/ERC20.sol\";\n// Internal interfaces\nimport \"./interfaces/CreditorProxyCoreInterface.sol\";\n// Shared interfaces\nimport \"../shared/interfaces/ContractRegistryInterface.sol\";\n\n\ncontract CreditorProxyCore is CreditorProxyCoreInterface {\n\n\tuint16 constant public EXTERNAL_QUERY_GAS_LIMIT = 8000;\n\n\tContractRegistryInterface public contractRegistry;\n\n\t/**\n\t * Helper function for transferring a specified amount of tokens between two parties.\n\t */\n\tfunction transferTokensFrom(\n\t\taddress _token,\n\t\taddress _from,\n\t\taddress _to,\n\t\tuint _amount\n\t)\n\t\tinternal\n\t\treturns (bool _success)\n\t{\n\t\treturn ERC20(_token).transferFrom(_from, _to, _amount);\n\t}\n\n\t/**\n     * Helper function for querying this contract's allowance for transferring the given token.\n     */\n\tfunction getAllowance(\n\t\taddress token,\n\t\taddress owner,\n\t\taddress granter\n\t)\n\t\tinternal\n\t\tview\n\treturns (uint _allowance)\n\t{\n\t\t// Limit gas to prevent reentrancy.\n\t\treturn ERC20(token).allowance.gas(EXTERNAL_QUERY_GAS_LIMIT)(\n\t\t\towner,\n\t\t\tgranter\n\t\t);\n\t}\n}\n",
  "sourcePath": "/home/bogdan/Projects/qw/experimental/contracts/src/CreditorDrivenLoans/CreditorProxyCore.sol",
  "compiler": {
    "name": "solc",
    "version": "0.4.24+commit.e67f0147.Emscripten.clang"
  },
  "schemaVersion": "2.0.1",
  "updatedAt": "2018-11-25T19:53:27.653Z"
}