{
  "contractName": "DharmaMultiSigWallet",
  "abi": [
    {
      "constant": true,
      "inputs": [
        {
          "name": "",
          "type": "uint256"
        }
      ],
      "name": "owners",
      "outputs": [
        {
          "name": "",
          "type": "address"
        }
      ],
      "payable": false,
      "stateMutability": "view",
      "type": "function"
    },
    {
      "constant": false,
      "inputs": [
        {
          "name": "owner",
          "type": "address"
        }
      ],
      "name": "removeOwner",
      "outputs": [],
      "payable": false,
      "stateMutability": "nonpayable",
      "type": "function"
    },
    {
      "constant": true,
      "inputs": [
        {
          "name": "",
          "type": "uint256"
        }
      ],
      "name": "transactionConfirmedBlockTimestamp",
      "outputs": [
        {
          "name": "",
          "type": "uint256"
        }
      ],
      "payable": false,
      "stateMutability": "view",
      "type": "function"
    },
    {
      "constant": true,
      "inputs": [
        {
          "name": "",
          "type": "address"
        }
      ],
      "name": "isOwner",
      "outputs": [
        {
          "name": "",
          "type": "bool"
        }
      ],
      "payable": false,
      "stateMutability": "view",
      "type": "function"
    },
    {
      "constant": true,
      "inputs": [
        {
          "name": "",
          "type": "uint256"
        },
        {
          "name": "",
          "type": "address"
        }
      ],
      "name": "confirmations",
      "outputs": [
        {
          "name": "",
          "type": "bool"
        }
      ],
      "payable": false,
      "stateMutability": "view",
      "type": "function"
    },
    {
      "constant": true,
      "inputs": [
        {
          "name": "pending",
          "type": "bool"
        },
        {
          "name": "executed",
          "type": "bool"
        }
      ],
      "name": "getTransactionCount",
      "outputs": [
        {
          "name": "count",
          "type": "uint256"
        }
      ],
      "payable": false,
      "stateMutability": "view",
      "type": "function"
    },
    {
      "constant": false,
      "inputs": [
        {
          "name": "owner",
          "type": "address"
        }
      ],
      "name": "addOwner",
      "outputs": [],
      "payable": false,
      "stateMutability": "nonpayable",
      "type": "function"
    },
    {
      "constant": true,
      "inputs": [],
      "name": "timelockInSeconds",
      "outputs": [
        {
          "name": "",
          "type": "uint256"
        }
      ],
      "payable": false,
      "stateMutability": "view",
      "type": "function"
    },
    {
      "constant": true,
      "inputs": [
        {
          "name": "transactionId",
          "type": "uint256"
        }
      ],
      "name": "isConfirmed",
      "outputs": [
        {
          "name": "",
          "type": "bool"
        }
      ],
      "payable": false,
      "stateMutability": "view",
      "type": "function"
    },
    {
      "constant": true,
      "inputs": [
        {
          "name": "transactionId",
          "type": "uint256"
        }
      ],
      "name": "getConfirmationCount",
      "outputs": [
        {
          "name": "count",
          "type": "uint256"
        }
      ],
      "payable": false,
      "stateMutability": "view",
      "type": "function"
    },
    {
      "constant": true,
      "inputs": [
        {
          "name": "",
          "type": "uint256"
        }
      ],
      "name": "transactions",
      "outputs": [
        {
          "name": "destination",
          "type": "address"
        },
        {
          "name": "value",
          "type": "uint256"
        },
        {
          "name": "data",
          "type": "bytes"
        },
        {
          "name": "executed",
          "type": "bool"
        }
      ],
      "payable": false,
      "stateMutability": "view",
      "type": "function"
    },
    {
      "constant": true,
      "inputs": [],
      "name": "getOwners",
      "outputs": [
        {
          "name": "",
          "type": "address[]"
        }
      ],
      "payable": false,
      "stateMutability": "view",
      "type": "function"
    },
    {
      "constant": true,
      "inputs": [
        {
          "name": "from",
          "type": "uint256"
        },
        {
          "name": "to",
          "type": "uint256"
        },
        {
          "name": "pending",
          "type": "bool"
        },
        {
          "name": "executed",
          "type": "bool"
        }
      ],
      "name": "getTransactionIds",
      "outputs": [
        {
          "name": "_transactionIds",
          "type": "uint256[]"
        }
      ],
      "payable": false,
      "stateMutability": "view",
      "type": "function"
    },
    {
      "constant": true,
      "inputs": [
        {
          "name": "transactionId",
          "type": "uint256"
        }
      ],
      "name": "getConfirmations",
      "outputs": [
        {
          "name": "_confirmations",
          "type": "address[]"
        }
      ],
      "payable": false,
      "stateMutability": "view",
      "type": "function"
    },
    {
      "constant": true,
      "inputs": [],
      "name": "transactionCount",
      "outputs": [
        {
          "name": "",
          "type": "uint256"
        }
      ],
      "payable": false,
      "stateMutability": "view",
      "type": "function"
    },
    {
      "constant": false,
      "inputs": [
        {
          "name": "_required",
          "type": "uint256"
        }
      ],
      "name": "changeRequirement",
      "outputs": [],
      "payable": false,
      "stateMutability": "nonpayable",
      "type": "function"
    },
    {
      "constant": false,
      "inputs": [
        {
          "name": "destination",
          "type": "address"
        },
        {
          "name": "value",
          "type": "uint256"
        },
        {
          "name": "data",
          "type": "bytes"
        }
      ],
      "name": "submitTransaction",
      "outputs": [
        {
          "name": "transactionId",
          "type": "uint256"
        }
      ],
      "payable": false,
      "stateMutability": "nonpayable",
      "type": "function"
    },
    {
      "constant": true,
      "inputs": [],
      "name": "MAX_OWNER_COUNT",
      "outputs": [
        {
          "name": "",
          "type": "uint256"
        }
      ],
      "payable": false,
      "stateMutability": "view",
      "type": "function"
    },
    {
      "constant": true,
      "inputs": [],
      "name": "required",
      "outputs": [
        {
          "name": "",
          "type": "uint256"
        }
      ],
      "payable": false,
      "stateMutability": "view",
      "type": "function"
    },
    {
      "constant": false,
      "inputs": [
        {
          "name": "owner",
          "type": "address"
        },
        {
          "name": "newOwner",
          "type": "address"
        }
      ],
      "name": "replaceOwner",
      "outputs": [],
      "payable": false,
      "stateMutability": "nonpayable",
      "type": "function"
    },
    {
      "inputs": [
        {
          "name": "_owners",
          "type": "address[]"
        },
        {
          "name": "_required",
          "type": "uint256"
        },
        {
          "name": "_timelockInSeconds",
          "type": "uint256"
        }
      ],
      "payable": false,
      "stateMutability": "nonpayable",
      "type": "constructor"
    },
    {
      "payable": true,
      "stateMutability": "payable",
      "type": "fallback"
    },
    {
      "anonymous": false,
      "inputs": [
        {
          "indexed": true,
          "name": "transactionId",
          "type": "uint256"
        },
        {
          "indexed": false,
          "name": "confirmationTime",
          "type": "uint256"
        }
      ],
      "name": "ConfirmationTimeSet",
      "type": "event"
    },
    {
      "anonymous": false,
      "inputs": [
        {
          "indexed": false,
          "name": "timelockInSeconds",
          "type": "uint256"
        }
      ],
      "name": "TimeLockChange",
      "type": "event"
    },
    {
      "anonymous": false,
      "inputs": [
        {
          "indexed": true,
          "name": "sender",
          "type": "address"
        },
        {
          "indexed": true,
          "name": "transactionId",
          "type": "uint256"
        }
      ],
      "name": "Confirmation",
      "type": "event"
    },
    {
      "anonymous": false,
      "inputs": [
        {
          "indexed": true,
          "name": "sender",
          "type": "address"
        },
        {
          "indexed": true,
          "name": "transactionId",
          "type": "uint256"
        }
      ],
      "name": "Revocation",
      "type": "event"
    },
    {
      "anonymous": false,
      "inputs": [
        {
          "indexed": true,
          "name": "transactionId",
          "type": "uint256"
        }
      ],
      "name": "Submission",
      "type": "event"
    },
    {
      "anonymous": false,
      "inputs": [
        {
          "indexed": true,
          "name": "transactionId",
          "type": "uint256"
        }
      ],
      "name": "Execution",
      "type": "event"
    },
    {
      "anonymous": false,
      "inputs": [
        {
          "indexed": true,
          "name": "transactionId",
          "type": "uint256"
        }
      ],
      "name": "ExecutionFailure",
      "type": "event"
    },
    {
      "anonymous": false,
      "inputs": [
        {
          "indexed": true,
          "name": "sender",
          "type": "address"
        },
        {
          "indexed": false,
          "name": "value",
          "type": "uint256"
        }
      ],
      "name": "Deposit",
      "type": "event"
    },
    {
      "anonymous": false,
      "inputs": [
        {
          "indexed": true,
          "name": "owner",
          "type": "address"
        }
      ],
      "name": "OwnerAddition",
      "type": "event"
    },
    {
      "anonymous": false,
      "inputs": [
        {
          "indexed": true,
          "name": "owner",
          "type": "address"
        }
      ],
      "name": "OwnerRemoval",
      "type": "event"
    },
    {
      "anonymous": false,
      "inputs": [
        {
          "indexed": false,
          "name": "required",
          "type": "uint256"
        }
      ],
      "name": "RequirementChange",
      "type": "event"
    },
    {
      "constant": false,
      "inputs": [
        {
          "name": "_timelockInSeconds",
          "type": "uint256"
        }
      ],
      "name": "changeTimeLock",
      "outputs": [],
      "payable": false,
      "stateMutability": "nonpayable",
      "type": "function"
    },
    {
      "constant": false,
      "inputs": [
        {
          "name": "transactionId",
          "type": "uint256"
        }
      ],
      "name": "confirmTransaction",
      "outputs": [],
      "payable": false,
      "stateMutability": "nonpayable",
      "type": "function"
    },
    {
      "constant": false,
      "inputs": [
        {
          "name": "transactionId",
          "type": "uint256"
        }
      ],
      "name": "revokeConfirmation",
      "outputs": [],
      "payable": false,
      "stateMutability": "nonpayable",
      "type": "function"
    },
    {
      "constant": false,
      "inputs": [
        {
          "name": "transactionId",
          "type": "uint256"
        }
      ],
      "name": "executeTransaction",
      "outputs": [],
      "payable": false,
      "stateMutability": "nonpayable",
      "type": "function"
    },
    {
      "constant": false,
      "inputs": [
        {
          "name": "transactionId",
          "type": "uint256"
        }
      ],
      "name": "executePauseTransactionImmediately",
      "outputs": [],
      "payable": false,
      "stateMutability": "nonpayable",
      "type": "function"
    }
  ],
  "bytecode": "0x60806040523480156200001157600080fd5b5060405162002cd838038062002cd8833981018060405262000037919081019062000378565b8282600082518260328211158015620000505750818111155b80156200005e575060008114155b80156200006c575060008214155b15156200007857600080fd5b600092505b8451831015620001b3576002600086858151811015156200009a57fe5b9060200190602002015173ffffffffffffffffffffffffffffffffffffffff1673ffffffffffffffffffffffffffffffffffffffff16815260200190815260200160002060009054906101000a900460ff16158015620001295750600085848151811015156200010657fe5b9060200190602002015173ffffffffffffffffffffffffffffffffffffffff1614155b15156200013557600080fd5b60016002600087868151811015156200014a57fe5b9060200190602002015173ffffffffffffffffffffffffffffffffffffffff1673ffffffffffffffffffffffffffffffffffffffff16815260200190815260200160002060006101000a81548160ff02191690831515021790555082806001019350506200007d565b8460039080519060200190620001cb929190620001e8565b508360048190555050505050508060068190555050505062000468565b82805482825590600052602060002090810192821562000264579160200282015b82811115620002635782518260006101000a81548173ffffffffffffffffffffffffffffffffffffffff021916908373ffffffffffffffffffffffffffffffffffffffff1602179055509160200191906001019062000209565b5b50905062000273919062000277565b5090565b620002ba91905b80821115620002b657600081816101000a81549073ffffffffffffffffffffffffffffffffffffffff0219169055506001016200027e565b5090565b90565b6000620002cb82516200043e565b905092915050565b600082601f8301121515620002e757600080fd5b8151620002fe620002f88262000415565b620003e7565b915081818352602084019350602081019050838560208402820111156200032457600080fd5b60005b838110156200035857816200033d8882620002bd565b84526020840193506020830192505060018101905062000327565b5050505092915050565b60006200037082516200045e565b905092915050565b6000806000606084860312156200038e57600080fd5b600084015167ffffffffffffffff811115620003a957600080fd5b620003b786828701620002d3565b9350506020620003ca8682870162000362565b9250506040620003dd8682870162000362565b9150509250925092565b6000604051905081810181811067ffffffffffffffff821117156200040b57600080fd5b8060405250919050565b600067ffffffffffffffff8211156200042d57600080fd5b602082029050602081019050919050565b600073ffffffffffffffffffffffffffffffffffffffff82169050919050565b6000819050919050565b61286080620004786000396000f300608060405260043610610149576000357c0100000000000000000000000000000000000000000000000000000000900463ffffffff168063025e7c27146101a3578063173825d9146101e057806319b83a7b1461020957806320ea8d8614610246578063215ff46f1461026f5780632f54bf6e146102985780633411c81c146102d557806354741525146103125780637065cb481461034f578063733e1b6814610378578063784547a7146103a35780637ad28c51146103e05780638b51d13f146104095780639ace38c214610446578063a0e67e2b14610486578063a8abe69a146104b1578063b5dc40c3146104ee578063b77bf6001461052b578063ba51a6df14610556578063c01a8c841461057f578063c6427474146105a8578063d74f8edd146105e5578063dc8452cd14610610578063e20056e61461063b578063ee22610b14610664575b60003411156101a1573373ffffffffffffffffffffffffffffffffffffffff167fe1fffcc4923d04b559f4d29a8bfc6cda04eb5b0d3c460751c2402c5c5cc9109c34604051610198919061269e565b60405180910390a25b005b3480156101af57600080fd5b506101ca60048036036101c591908101906123f7565b61068d565b6040516101d791906125d8565b60405180910390f35b3480156101ec57600080fd5b50610207600480360361020291908101906122ef565b6106cb565b005b34801561021557600080fd5b50610230600480360361022b91908101906123f7565b610964565b60405161023d919061269e565b60405180910390f35b34801561025257600080fd5b5061026d600480360361026891908101906123f7565b61097c565b005b34801561027b57600080fd5b50610296600480360361029191908101906123f7565b610b3b565b005b3480156102a457600080fd5b506102bf60048036036102ba91908101906122ef565b610c57565b6040516102cc9190612683565b60405180910390f35b3480156102e157600080fd5b506102fc60048036036102f79190810190612420565b610c77565b6040516103099190612683565b60405180910390f35b34801561031e57600080fd5b50610339600480360361033491908101906123bb565b610ca6565b604051610346919061269e565b60405180910390f35b34801561035b57600080fd5b50610376600480360361037191908101906122ef565b610d38565b005b34801561038457600080fd5b5061038d610f3d565b60405161039a919061269e565b60405180910390f35b3480156103af57600080fd5b506103ca60048036036103c591908101906123f7565b610f43565b6040516103d79190612683565b60405180910390f35b3480156103ec57600080fd5b50610407600480360361040291908101906123f7565b611028565b005b34801561041557600080fd5b50610430600480360361042b91908101906123f7565b6110a3565b60405161043d919061269e565b60405180910390f35b34801561045257600080fd5b5061046d600480360361046891908101906123f7565b61116e565b60405161047d94939291906125f3565b60405180910390f35b34801561049257600080fd5b5061049b611263565b6040516104a8919061263f565b60405180910390f35b3480156104bd57600080fd5b506104d860048036036104d3919081019061245c565b6112f1565b6040516104e59190612661565b60405180910390f35b3480156104fa57600080fd5b50610515600480360361051091908101906123f7565b611471565b604051610522919061263f565b60405180910390f35b34801561053757600080fd5b506105406116ae565b60405161054d919061269e565b60405180910390f35b34801561056257600080fd5b5061057d600480360361057891908101906123f7565b6116b4565b005b34801561058b57600080fd5b506105a660048036036105a191908101906123f7565b61176e565b005b3480156105b457600080fd5b506105cf60048036036105ca9190810190612354565b611972565b6040516105dc919061269e565b60405180910390f35b3480156105f157600080fd5b506105fa611991565b604051610607919061269e565b60405180910390f35b34801561061c57600080fd5b50610625611996565b604051610632919061269e565b60405180910390f35b34801561064757600080fd5b50610662600480360361065d9190810190612318565b61199c565b005b34801561067057600080fd5b5061068b600480360361068691908101906123f7565b611cb1565b005b60038181548110151561069c57fe5b906000526020600020016000915054906101000a900473ffffffffffffffffffffffffffffffffffffffff1681565b60003073ffffffffffffffffffffffffffffffffffffffff163373ffffffffffffffffffffffffffffffffffffffff1614151561070757600080fd5b81600260008273ffffffffffffffffffffffffffffffffffffffff1673ffffffffffffffffffffffffffffffffffffffff16815260200190815260200160002060009054906101000a900460ff16151561076057600080fd5b6000600260008573ffffffffffffffffffffffffffffffffffffffff1673ffffffffffffffffffffffffffffffffffffffff16815260200190815260200160002060006101000a81548160ff021916908315150217905550600091505b6001600380549050038210156108e5578273ffffffffffffffffffffffffffffffffffffffff166003838154811015156107f357fe5b9060005260206000200160009054906101000a900473ffffffffffffffffffffffffffffffffffffffff1673ffffffffffffffffffffffffffffffffffffffff1614156108d857600360016003805490500381548110151561085157fe5b9060005260206000200160009054906101000a900473ffffffffffffffffffffffffffffffffffffffff1660038381548110151561088b57fe5b9060005260206000200160006101000a81548173ffffffffffffffffffffffffffffffffffffffff021916908373ffffffffffffffffffffffffffffffffffffffff1602179055506108e5565b81806001019250506107bd565b60016003818180549050039150816108fd919061218c565b50600380549050600454111561091c5761091b6003805490506116b4565b5b8273ffffffffffffffffffffffffffffffffffffffff167f8001553a916ef2f495d26a907cc54d96ed840d7bda71e73194bf5a9df7a76b9060405160405180910390a2505050565b60076020528060005260406000206000915090505481565b33600260008273ffffffffffffffffffffffffffffffffffffffff1673ffffffffffffffffffffffffffffffffffffffff16815260200190815260200160002060009054906101000a900460ff1615156109d557600080fd5b81336001600083815260200190815260200160002060008273ffffffffffffffffffffffffffffffffffffffff1673ffffffffffffffffffffffffffffffffffffffff16815260200190815260200160002060009054906101000a900460ff161515610a4057600080fd5b8360008082815260200190815260200160002060030160009054906101000a900460ff16151515610a7057600080fd5b84610a7a81610f43565b151515610a8657600080fd5b60006001600088815260200190815260200160002060003373ffffffffffffffffffffffffffffffffffffffff1673ffffffffffffffffffffffffffffffffffffffff16815260200190815260200160002060006101000a81548160ff021916908315150217905550853373ffffffffffffffffffffffffffffffffffffffff167ff6a317157440607f36269043eb55f1287a5a19ba2216afeab88cd46cbcfb88e960405160405180910390a3505050505050565b8060008082815260200190815260200160002060030160009054906101000a900460ff16151515610b6b57600080fd5b81610b7581610f43565b1515610b8057600080fd5b8260008060008381526020019081526020016000209050610c3c816002018054600181600116156101000203166002900480601f016020809104026020016040519081016040528092919081815260200182805460018160011615610100020316600290048015610c325780601f10610c0757610100808354040283529160200191610c32565b820191906000526020600020905b815481529060010190602001808311610c1557829003601f168201915b5050505050611d2c565b1515610c4757600080fd5b610c5085611e6e565b5050505050565b60026020528060005260406000206000915054906101000a900460ff1681565b60016020528160005260406000206020528060005260406000206000915091509054906101000a900460ff1681565b600080600090505b600554811015610d3157838015610ce5575060008082815260200190815260200160002060030160009054906101000a900460ff16155b80610d185750828015610d17575060008082815260200190815260200160002060030160009054906101000a900460ff165b5b15610d24576001820191505b8080600101915050610cae565b5092915050565b3073ffffffffffffffffffffffffffffffffffffffff163373ffffffffffffffffffffffffffffffffffffffff16141515610d7257600080fd5b80600260008273ffffffffffffffffffffffffffffffffffffffff1673ffffffffffffffffffffffffffffffffffffffff16815260200190815260200160002060009054906101000a900460ff16151515610dcc57600080fd5b8160008173ffffffffffffffffffffffffffffffffffffffff1614151515610df357600080fd5b60016003805490500160045460328211158015610e105750818111155b8015610e1d575060008114155b8015610e2a575060008214155b1515610e3557600080fd5b6001600260008773ffffffffffffffffffffffffffffffffffffffff1673ffffffffffffffffffffffffffffffffffffffff16815260200190815260200160002060006101000a81548160ff02191690831515021790555060038590806001815401808255809150509060018203906000526020600020016000909192909190916101000a81548173ffffffffffffffffffffffffffffffffffffffff021916908373ffffffffffffffffffffffffffffffffffffffff160217905550508473ffffffffffffffffffffffffffffffffffffffff167ff39e6e1eb0edcf53c221607b54b00cd28f3196fed0a24994dc308b8f611b682d60405160405180910390a25050505050565b60065481565b6000806000809150600090505b60038054905081101561102057600160008581526020019081526020016000206000600383815481101515610f8157fe5b9060005260206000200160009054906101000a900473ffffffffffffffffffffffffffffffffffffffff1673ffffffffffffffffffffffffffffffffffffffff1673ffffffffffffffffffffffffffffffffffffffff16815260200190815260200160002060009054906101000a900460ff1615611000576001820191505b6004548214156110135760019250611021565b8080600101915050610f50565b5b5050919050565b3073ffffffffffffffffffffffffffffffffffffffff163373ffffffffffffffffffffffffffffffffffffffff1614151561106257600080fd5b806006819055507fd1c9101a34feff75cccef14a28785a0279cb0b49c1f321f21f5f422e746b437781604051611098919061269e565b60405180910390a150565b600080600090505b600380549050811015611168576001600084815260200190815260200160002060006003838154811015156110dc57fe5b9060005260206000200160009054906101000a900473ffffffffffffffffffffffffffffffffffffffff1673ffffffffffffffffffffffffffffffffffffffff1673ffffffffffffffffffffffffffffffffffffffff16815260200190815260200160002060009054906101000a900460ff161561115b576001820191505b80806001019150506110ab565b50919050565b60006020528060005260406000206000915090508060000160009054906101000a900473ffffffffffffffffffffffffffffffffffffffff1690806001015490806002018054600181600116156101000203166002900480601f0160208091040260200160405190810160405280929190818152602001828054600181600116156101000203166002900480156112465780601f1061121b57610100808354040283529160200191611246565b820191906000526020600020905b81548152906001019060200180831161122957829003601f168201915b5050505050908060030160009054906101000a900460ff16905084565b606060038054806020026020016040519081016040528092919081815260200182805480156112e757602002820191906000526020600020905b8160009054906101000a900473ffffffffffffffffffffffffffffffffffffffff1673ffffffffffffffffffffffffffffffffffffffff168152602001906001019080831161129d575b5050505050905090565b60608060008086881115151561130657600080fd5b6005546040519080825280602002602001820160405280156113375781602001602082028038833980820191505090505b50925060009150600090505b6005548110156113e35785801561137a575060008082815260200190815260200160002060030160009054906101000a900460ff16155b806113ad57508480156113ac575060008082815260200190815260200160002060030160009054906101000a900460ff165b5b156113d6578083838151811015156113c157fe5b90602001906020020181815250506001820191505b8080600101915050611343565b8787036040519080825280602002602001820160405280156114145781602001602082028038833980820191505090505b5093508790505b8681101561146657828181518110151561143157fe5b906020019060200201518489830381518110151561144b57fe5b9060200190602002018181525050808060010191505061141b565b505050949350505050565b6060806000806003805490506040519080825280602002602001820160405280156114ab5781602001602082028038833980820191505090505b50925060009150600090505b6003805490508110156115f8576001600086815260200190815260200160002060006003838154811015156114e857fe5b9060005260206000200160009054906101000a900473ffffffffffffffffffffffffffffffffffffffff1673ffffffffffffffffffffffffffffffffffffffff1673ffffffffffffffffffffffffffffffffffffffff16815260200190815260200160002060009054906101000a900460ff16156115eb5760038181548110151561156f57fe5b9060005260206000200160009054906101000a900473ffffffffffffffffffffffffffffffffffffffff1683838151811015156115a857fe5b9060200190602002019073ffffffffffffffffffffffffffffffffffffffff16908173ffffffffffffffffffffffffffffffffffffffff16815250506001820191505b80806001019150506114b7565b816040519080825280602002602001820160405280156116275781602001602082028038833980820191505090505b509350600090505b818110156116a657828181518110151561164557fe5b90602001906020020151848281518110151561165d57fe5b9060200190602002019073ffffffffffffffffffffffffffffffffffffffff16908173ffffffffffffffffffffffffffffffffffffffff1681525050808060010191505061162f565b505050919050565b60055481565b3073ffffffffffffffffffffffffffffffffffffffff163373ffffffffffffffffffffffffffffffffffffffff161415156116ee57600080fd5b60038054905081603282111580156117065750818111155b8015611713575060008114155b8015611720575060008214155b151561172b57600080fd5b826004819055507fa3f1ee9126a074d9326c682f561767f710e927faa811f7a99829d49dc421797a83604051611761919061269e565b60405180910390a1505050565b33600260008273ffffffffffffffffffffffffffffffffffffffff1673ffffffffffffffffffffffffffffffffffffffff16815260200190815260200160002060009054906101000a900460ff1615156117c757600080fd5b81600080600083815260200190815260200160002060000160009054906101000a900473ffffffffffffffffffffffffffffffffffffffff1673ffffffffffffffffffffffffffffffffffffffff161415151561182357600080fd5b82336001600083815260200190815260200160002060008273ffffffffffffffffffffffffffffffffffffffff1673ffffffffffffffffffffffffffffffffffffffff16815260200190815260200160002060009054906101000a900460ff1615151561188f57600080fd5b8461189981610f43565b1515156118a557600080fd5b600180600088815260200190815260200160002060003373ffffffffffffffffffffffffffffffffffffffff1673ffffffffffffffffffffffffffffffffffffffff16815260200190815260200160002060006101000a81548160ff021916908315150217905550853373ffffffffffffffffffffffffffffffffffffffff167f4a504a94899432a9846e1aa406dceb1bcfd538bb839071d49d1e5e23f5be30ef60405160405180910390a361195a86610f43565b1561196a576119698642611fe6565b5b505050505050565b600061197f84848461203a565b905061198a8161176e565b9392505050565b603281565b60045481565b60003073ffffffffffffffffffffffffffffffffffffffff163373ffffffffffffffffffffffffffffffffffffffff161415156119d857600080fd5b82600260008273ffffffffffffffffffffffffffffffffffffffff1673ffffffffffffffffffffffffffffffffffffffff16815260200190815260200160002060009054906101000a900460ff161515611a3157600080fd5b82600260008273ffffffffffffffffffffffffffffffffffffffff1673ffffffffffffffffffffffffffffffffffffffff16815260200190815260200160002060009054906101000a900460ff16151515611a8b57600080fd5b600092505b600380549050831015611b74578473ffffffffffffffffffffffffffffffffffffffff16600384815481101515611ac357fe5b9060005260206000200160009054906101000a900473ffffffffffffffffffffffffffffffffffffffff1673ffffffffffffffffffffffffffffffffffffffff161415611b675783600384815481101515611b1a57fe5b9060005260206000200160006101000a81548173ffffffffffffffffffffffffffffffffffffffff021916908373ffffffffffffffffffffffffffffffffffffffff160217905550611b74565b8280600101935050611a90565b6000600260008773ffffffffffffffffffffffffffffffffffffffff1673ffffffffffffffffffffffffffffffffffffffff16815260200190815260200160002060006101000a81548160ff0219169083151502179055506001600260008673ffffffffffffffffffffffffffffffffffffffff1673ffffffffffffffffffffffffffffffffffffffff16815260200190815260200160002060006101000a81548160ff0219169083151502179055508473ffffffffffffffffffffffffffffffffffffffff167f8001553a916ef2f495d26a907cc54d96ed840d7bda71e73194bf5a9df7a76b9060405160405180910390a28373ffffffffffffffffffffffffffffffffffffffff167ff39e6e1eb0edcf53c221607b54b00cd28f3196fed0a24994dc308b8f611b682d60405160405180910390a25050505050565b8060008082815260200190815260200160002060030160009054906101000a900460ff16151515611ce157600080fd5b81611ceb81610f43565b1515611cf657600080fd5b826006546007600083815260200190815260200160002054014210151515611d1d57600080fd5b611d2684611e6e565b50505050565b600080600060405180807f7061757365282900000000000000000000000000000000000000000000000000815250600701905060405180910390209150600090505b6004811015611e62578181600481101515611d8557fe5b1a7f0100000000000000000000000000000000000000000000000000000000000000027effffffffffffffffffffffffffffffffffffffffffffffffffffffffffffff19168482815181101515611dd857fe5b9060200101517f010000000000000000000000000000000000000000000000000000000000000090047f0100000000000000000000000000000000000000000000000000000000000000027effffffffffffffffffffffffffffffffffffffffffffffffffffffffffffff1916141515611e555760009250611e67565b8080600101915050611d6e565b600192505b5050919050565b6000806000838152602001908152602001600020905060018160030160006101000a81548160ff0219169083151502179055508060000160009054906101000a900473ffffffffffffffffffffffffffffffffffffffff1673ffffffffffffffffffffffffffffffffffffffff168160010154826002016040518082805460018160011615610100020316600290048015611f4a5780601f10611f1f57610100808354040283529160200191611f4a565b820191906000526020600020905b815481529060010190602001808311611f2d57829003601f168201915b505091505060006040518083038185875af19250505015611f9757817f33e13ecb54c3076d8e8bb8c2881800a4d972b792045ffae98fdf46df365fed7560405160405180910390a2611fe2565b817f526441bb6c1aba3c9a4a6ca1d6545da9c2333c8c48343ef398eb858d72b7923660405160405180910390a260008160030160006101000a81548160ff0219169083151502179055505b5050565b806007600084815260200190815260200160002081905550817f0b237afe65f1514fd7ea3f923ea4fe792bdd07000a912b6cd1602a8e7f573c8d8260405161202e919061269e565b60405180910390a25050565b60008360008173ffffffffffffffffffffffffffffffffffffffff161415151561206357600080fd5b60055491506080604051908101604052808673ffffffffffffffffffffffffffffffffffffffff1681526020018581526020018481526020016000151581525060008084815260200190815260200160002060008201518160000160006101000a81548173ffffffffffffffffffffffffffffffffffffffff021916908373ffffffffffffffffffffffffffffffffffffffff1602179055506020820151816001015560408201518160020190805190602001906121229291906121b8565b5060608201518160030160006101000a81548160ff0219169083151502179055509050506001600560008282540192505081905550817fc0ba8fe4b176c1714197d43b9cc6bcf797a4a7461c5fe8d0ef6e184ae7601e5160405160405180910390a2509392505050565b8154818355818111156121b3578183600052602060002091820191016121b29190612238565b5b505050565b828054600181600116156101000203166002900490600052602060002090601f016020900481019282601f106121f957805160ff1916838001178555612227565b82800160010185558215612227579182015b8281111561222657825182559160200191906001019061220b565b5b5090506122349190612238565b5090565b61225a91905b8082111561225657600081600090555060010161223e565b5090565b90565b6000612269823561279d565b905092915050565b600061227d82356127bd565b905092915050565b600082601f830112151561229857600080fd5b81356122ab6122a6826126e6565b6126b9565b915080825260208301602083018583830111156122c757600080fd5b6122d28382846127d3565b50505092915050565b60006122e782356127c9565b905092915050565b60006020828403121561230157600080fd5b600061230f8482850161225d565b91505092915050565b6000806040838503121561232b57600080fd5b60006123398582860161225d565b925050602061234a8582860161225d565b9150509250929050565b60008060006060848603121561236957600080fd5b60006123778682870161225d565b9350506020612388868287016122db565b925050604084013567ffffffffffffffff8111156123a557600080fd5b6123b186828701612285565b9150509250925092565b600080604083850312156123ce57600080fd5b60006123dc85828601612271565b92505060206123ed85828601612271565b9150509250929050565b60006020828403121561240957600080fd5b6000612417848285016122db565b91505092915050565b6000806040838503121561243357600080fd5b6000612441858286016122db565b92505060206124528582860161225d565b9150509250929050565b6000806000806080858703121561247257600080fd5b6000612480878288016122db565b9450506020612491878288016122db565b93505060406124a287828801612271565b92505060606124b387828801612271565b91505092959194509250565b6124c881612767565b82525050565b60006124d98261272c565b8084526020840193506124eb83612712565b60005b8281101561251d576125018683516124bf565b61250a8261274d565b91506020860195506001810190506124ee565b50849250505092915050565b600061253482612737565b8084526020840193506125468361271f565b60005b828110156125785761255c8683516125c9565b6125658261275a565b9150602086019550600181019050612549565b50849250505092915050565b61258d81612787565b82525050565b600061259e82612742565b8084526125b28160208601602086016127e2565b6125bb81612815565b602085010191505092915050565b6125d281612793565b82525050565b60006020820190506125ed60008301846124bf565b92915050565b600060808201905061260860008301876124bf565b61261560208301866125c9565b81810360408301526126278185612593565b90506126366060830184612584565b95945050505050565b6000602082019050818103600083015261265981846124ce565b905092915050565b6000602082019050818103600083015261267b8184612529565b905092915050565b60006020820190506126986000830184612584565b92915050565b60006020820190506126b360008301846125c9565b92915050565b6000604051905081810181811067ffffffffffffffff821117156126dc57600080fd5b8060405250919050565b600067ffffffffffffffff8211156126fd57600080fd5b601f19601f8301169050602081019050919050565b6000602082019050919050565b6000602082019050919050565b600081519050919050565b600081519050919050565b600081519050919050565b6000602082019050919050565b6000602082019050919050565b600073ffffffffffffffffffffffffffffffffffffffff82169050919050565b60008115159050919050565b6000819050919050565b600073ffffffffffffffffffffffffffffffffffffffff82169050919050565b60008115159050919050565b6000819050919050565b82818337600083830152505050565b60005b838110156128005780820151818401526020810190506127e5565b8381111561280f576000848401525b50505050565b6000601f19601f83011690509190505600a265627a7a72305820222cb650455a8ba4592f4cb35b80478d95adf897f5fb21f4b250a49848b1c4256c6578706572696d656e74616cf50037",
  "source": "/*\n\n  Copyright 2018 Dharma Labs Inc.\n\n  Licensed under the Apache License, Version 2.0 (the \"License\");\n  you may not use this file except in compliance with the License.\n  You may obtain a copy of the License at\n\n    http://www.apache.org/licenses/LICENSE-2.0\n\n  Unless required by applicable law or agreed to in writing, software\n  distributed under the License is distributed on an \"AS IS\" BASIS,\n  WITHOUT WARRANTIES OR CONDITIONS OF ANY KIND, either express or implied.\n  See the License for the specific language governing permissions and\n  limitations under the License.\n\n*/\n\npragma solidity 0.4.24;\npragma experimental ABIEncoderV2;\n\nimport \"./MultiSigWallet.sol\";\n\n\ncontract DharmaMultiSigWallet is MultiSigWallet {\n\n    event ConfirmationTimeSet(uint indexed transactionId, uint confirmationTime);\n    event TimeLockChange(uint timelockInSeconds);\n\n    uint public timelockInSeconds;\n\n    mapping (uint => uint) public transactionConfirmedBlockTimestamp;\n\n    modifier sufficientlyConfirmed(uint transactionId) {\n        require(isConfirmed(transactionId));\n        _;\n    }\n\n    modifier insufficientlyConfirmed(uint transactionId) {\n        require(!isConfirmed(transactionId));\n        _;\n    }\n\n    modifier pastTimeLock(uint transactionId) {\n        require(block.timestamp >= transactionConfirmedBlockTimestamp[transactionId] + timelockInSeconds);\n        _;\n    }\n\n    modifier validPauseTransaction(uint transactionId) {\n        Transaction storage txn = transactions[transactionId];\n\n        require(_isPauseFunctionTransaction(txn.data));\n        _;\n    }\n\n    function DharmaMultiSigWallet(\n        address[] _owners,\n        uint _required,\n        uint _timelockInSeconds\n    )\n    public\n    MultiSigWallet(_owners, _required)\n    {\n        timelockInSeconds = _timelockInSeconds;\n    }\n\n    ////////////////////////\n    // EXTERNAL FUNCTIONS //\n    ////////////////////////\n\n    /**\n     * Changes the duration of the time lock for transactions.  Can only be called by the wallet.\n     */\n    function changeTimeLock(uint _timelockInSeconds)\n    public\n    onlyWallet\n    {\n        timelockInSeconds = _timelockInSeconds;\n        TimeLockChange(_timelockInSeconds);\n    }\n\n    /**\n     * Allows an owner to confirm a transaction if the transaction has\n     * not yet received a sufficient threshold of confirmations.\n     */\n    function confirmTransaction(uint transactionId)\n    public\n    ownerExists(msg.sender)\n    transactionExists(transactionId)\n    notConfirmed(transactionId, msg.sender)\n    insufficientlyConfirmed(transactionId)\n    {\n        confirmations[transactionId][msg.sender] = true;\n        Confirmation(msg.sender, transactionId);\n\n        // If the transaction is now sufficiently confirmed, we record\n        // the timestamp in order to kick off the timelock period\n        if (isConfirmed(transactionId)) {\n            _setConfirmationTime(transactionId, block.timestamp);\n        }\n    }\n\n    /**\n     * Allows an owner to revoke a confirmation they've submitted\n     * previously for the transaction if the transaction has not\n     * already been sufficiently confirmed (and entered the timelock\n     * period).\n     */\n    function revokeConfirmation(uint transactionId)\n    public\n    ownerExists(msg.sender)\n    confirmed(transactionId, msg.sender)\n    notExecuted(transactionId)\n    insufficientlyConfirmed(transactionId)\n    {\n        confirmations[transactionId][msg.sender] = false;\n        Revocation(msg.sender, transactionId);\n    }\n\n    /**\n     * Allows anyone to execute a transaction if it has been\n     * confirmed and the timelock has passed.\n     */\n    function executeTransaction(uint transactionId)\n    public\n    notExecuted(transactionId)\n    sufficientlyConfirmed(transactionId)\n    pastTimeLock(transactionId)\n    {\n        _executeTransaction(transactionId);\n    }\n\n    /**\n     * In case of an emergency, allows anyone to execute a transaction if it has\n     * been confirmed and matches the \"pause\" function signature WITHOUT waiting\n     * for the timelock to pass.\n     */\n    function executePauseTransactionImmediately(uint transactionId)\n    public\n    notExecuted(transactionId)\n    sufficientlyConfirmed(transactionId)\n    validPauseTransaction(transactionId)\n    {\n        _executeTransaction(transactionId);\n    }\n\n    ////////////////////////\n    // INTERNAL FUNCTIONS //\n    ////////////////////////\n\n    /**\n     * Internal helper function that attempts to execute a confirmed transaction.\n     */\n    function _executeTransaction(uint transactionId)\n    internal\n    {\n        Transaction storage txn = transactions[transactionId];\n        txn.executed = true;\n        if (txn.destination.call.value(txn.value)(txn.data))\n            Execution(transactionId);\n        else {\n            ExecutionFailure(transactionId);\n            txn.executed = false;\n        }\n    }\n\n    /**\n     * Internal function that records the time at which\n     * a transaction reached the minimal threshold of\n     * confirmations.\n     */\n    function _setConfirmationTime(uint transactionId, uint confirmationTime)\n    internal\n    {\n        transactionConfirmedBlockTimestamp[transactionId] = confirmationTime;\n        ConfirmationTimeSet(transactionId, confirmationTime);\n    }\n\n    /**\n     * Returns true if the first four bytes of the given data matches\n     * the function selector Method ID for the \"pause\" method --\n     * for more information, see the Ethereum wiki's contract ABI specification:\n     * https://github.com/ethereum/wiki/wiki/Ethereum-Contract-ABI\n     */\n    function _isPauseFunctionTransaction(bytes data)\n    internal\n    view\n    returns (bool)\n    {\n        bytes4 pauseFunctionSignature = bytes4(keccak256(\"pause()\"));\n        for (uint i = 0; i < 4; i++) {\n            if (data[i] != pauseFunctionSignature[i]) {\n                return false;\n            }\n        }\n\n        return true;\n    }\n}\n",
  "sourcePath": "/Users/chrismin/Documents/dev/dharma/experimental/contracts/src/shared/interfaces/DharmaMultiSigWallet.sol",
  "compiler": {
    "name": "solc",
    "version": "0.4.24+commit.e67f0147.Emscripten.clang"
  },
  "schemaVersion": "2.0.1",
  "updatedAt": "2018-11-20T21:37:03.950Z"
}