{
  "contractName": "LTVCreditorProxy",
  "abi": [
    {
      "constant": true,
      "inputs": [
        {
          "name": "termsContract",
          "type": "address"
        },
        {
          "name": "termsContractParameters",
          "type": "bytes32"
        }
      ],
      "name": "getTermsContractCommitmentHash",
      "outputs": [
        {
          "name": "",
          "type": "bytes32"
        }
      ],
      "payable": false,
      "stateMutability": "view",
      "type": "function"
    },
    {
      "constant": true,
      "inputs": [
        {
          "components": [
            {
              "name": "maxLTV",
              "type": "uint256"
            }
          ],
          "name": "commitmentValues",
          "type": "tuple"
        },
        {
          "components": [
            {
              "name": "kernelVersion",
              "type": "address"
            },
            {
              "name": "issuanceVersion",
              "type": "address"
            },
            {
              "name": "principalAmount",
              "type": "uint256"
            },
            {
              "name": "principalToken",
              "type": "address"
            },
            {
              "name": "collateralAmount",
              "type": "uint256"
            },
            {
              "name": "collateralToken",
              "type": "address"
            },
            {
              "name": "debtor",
              "type": "address"
            },
            {
              "name": "debtorFee",
              "type": "uint256"
            },
            {
              "name": "creditor",
              "type": "address"
            },
            {
              "name": "creditorFee",
              "type": "uint256"
            },
            {
              "name": "relayer",
              "type": "address"
            },
            {
              "name": "relayerFee",
              "type": "uint256"
            },
            {
              "name": "underwriter",
              "type": "address"
            },
            {
              "name": "underwriterFee",
              "type": "uint256"
            },
            {
              "name": "underwriterRiskRating",
              "type": "uint256"
            },
            {
              "name": "termsContract",
              "type": "address"
            },
            {
              "name": "termsContractParameters",
              "type": "bytes32"
            },
            {
              "name": "expirationTimestampInSec",
              "type": "uint256"
            },
            {
              "name": "salt",
              "type": "uint256"
            },
            {
              "components": [
                {
                  "name": "v",
                  "type": "uint8"
                },
                {
                  "name": "r",
                  "type": "bytes32"
                },
                {
                  "name": "s",
                  "type": "bytes32"
                }
              ],
              "name": "debtorSignature",
              "type": "tuple"
            },
            {
              "components": [
                {
                  "name": "v",
                  "type": "uint8"
                },
                {
                  "name": "r",
                  "type": "bytes32"
                },
                {
                  "name": "s",
                  "type": "bytes32"
                }
              ],
              "name": "creditorSignature",
              "type": "tuple"
            },
            {
              "components": [
                {
                  "name": "v",
                  "type": "uint8"
                },
                {
                  "name": "r",
                  "type": "bytes32"
                },
                {
                  "name": "s",
                  "type": "bytes32"
                }
              ],
              "name": "underwriterSignature",
              "type": "tuple"
            }
          ],
          "name": "order",
          "type": "tuple"
        }
      ],
      "name": "hashCreditorCommitmentForOrder",
      "outputs": [
        {
          "name": "",
          "type": "bytes32"
        }
      ],
      "payable": false,
      "stateMutability": "view",
      "type": "function"
    },
    {
      "constant": true,
      "inputs": [
        {
          "name": "signer",
          "type": "address"
        },
        {
          "name": "hash",
          "type": "bytes32"
        },
        {
          "components": [
            {
              "name": "v",
              "type": "uint8"
            },
            {
              "name": "r",
              "type": "bytes32"
            },
            {
              "name": "s",
              "type": "bytes32"
            }
          ],
          "name": "signature",
          "type": "tuple"
        }
      ],
      "name": "isValidSignature",
      "outputs": [
        {
          "name": "valid",
          "type": "bool"
        }
      ],
      "payable": false,
      "stateMutability": "pure",
      "type": "function"
    },
    {
      "constant": true,
      "inputs": [],
      "name": "MAX_PRICE_TTL_IN_SECONDS",
      "outputs": [
        {
          "name": "",
          "type": "uint256"
        }
      ],
      "payable": false,
      "stateMutability": "view",
      "type": "function"
    },
    {
      "constant": true,
      "inputs": [
        {
          "components": [
            {
              "name": "creditor",
              "type": "address"
            },
            {
              "name": "priceFeedOperator",
              "type": "address"
            },
            {
              "components": [
                {
                  "components": [
                    {
                      "name": "maxLTV",
                      "type": "uint256"
                    }
                  ],
                  "name": "values",
                  "type": "tuple"
                },
                {
                  "components": [
                    {
                      "name": "v",
                      "type": "uint8"
                    },
                    {
                      "name": "r",
                      "type": "bytes32"
                    },
                    {
                      "name": "s",
                      "type": "bytes32"
                    }
                  ],
                  "name": "signature",
                  "type": "tuple"
                }
              ],
              "name": "creditorCommitment",
              "type": "tuple"
            },
            {
              "components": [
                {
                  "name": "value",
                  "type": "uint256"
                },
                {
                  "name": "timestamp",
                  "type": "uint256"
                },
                {
                  "name": "tokenAddress",
                  "type": "address"
                },
                {
                  "components": [
                    {
                      "name": "v",
                      "type": "uint8"
                    },
                    {
                      "name": "r",
                      "type": "bytes32"
                    },
                    {
                      "name": "s",
                      "type": "bytes32"
                    }
                  ],
                  "name": "signature",
                  "type": "tuple"
                }
              ],
              "name": "principalPrice",
              "type": "tuple"
            },
            {
              "components": [
                {
                  "name": "value",
                  "type": "uint256"
                },
                {
                  "name": "timestamp",
                  "type": "uint256"
                },
                {
                  "name": "tokenAddress",
                  "type": "address"
                },
                {
                  "components": [
                    {
                      "name": "v",
                      "type": "uint8"
                    },
                    {
                      "name": "r",
                      "type": "bytes32"
                    },
                    {
                      "name": "s",
                      "type": "bytes32"
                    }
                  ],
                  "name": "signature",
                  "type": "tuple"
                }
              ],
              "name": "collateralPrice",
              "type": "tuple"
            },
            {
              "components": [
                {
                  "name": "kernelVersion",
                  "type": "address"
                },
                {
                  "name": "issuanceVersion",
                  "type": "address"
                },
                {
                  "name": "principalAmount",
                  "type": "uint256"
                },
                {
                  "name": "principalToken",
                  "type": "address"
                },
                {
                  "name": "collateralAmount",
                  "type": "uint256"
                },
                {
                  "name": "collateralToken",
                  "type": "address"
                },
                {
                  "name": "debtor",
                  "type": "address"
                },
                {
                  "name": "debtorFee",
                  "type": "uint256"
                },
                {
                  "name": "creditor",
                  "type": "address"
                },
                {
                  "name": "creditorFee",
                  "type": "uint256"
                },
                {
                  "name": "relayer",
                  "type": "address"
                },
                {
                  "name": "relayerFee",
                  "type": "uint256"
                },
                {
                  "name": "underwriter",
                  "type": "address"
                },
                {
                  "name": "underwriterFee",
                  "type": "uint256"
                },
                {
                  "name": "underwriterRiskRating",
                  "type": "uint256"
                },
                {
                  "name": "termsContract",
                  "type": "address"
                },
                {
                  "name": "termsContractParameters",
                  "type": "bytes32"
                },
                {
                  "name": "expirationTimestampInSec",
                  "type": "uint256"
                },
                {
                  "name": "salt",
                  "type": "uint256"
                },
                {
                  "components": [
                    {
                      "name": "v",
                      "type": "uint8"
                    },
                    {
                      "name": "r",
                      "type": "bytes32"
                    },
                    {
                      "name": "s",
                      "type": "bytes32"
                    }
                  ],
                  "name": "debtorSignature",
                  "type": "tuple"
                },
                {
                  "components": [
                    {
                      "name": "v",
                      "type": "uint8"
                    },
                    {
                      "name": "r",
                      "type": "bytes32"
                    },
                    {
                      "name": "s",
                      "type": "bytes32"
                    }
                  ],
                  "name": "creditorSignature",
                  "type": "tuple"
                },
                {
                  "components": [
                    {
                      "name": "v",
                      "type": "uint8"
                    },
                    {
                      "name": "r",
                      "type": "bytes32"
                    },
                    {
                      "name": "s",
                      "type": "bytes32"
                    }
                  ],
                  "name": "underwriterSignature",
                  "type": "tuple"
                }
              ],
              "name": "order",
              "type": "tuple"
            }
          ],
          "name": "params",
          "type": "tuple"
        }
      ],
      "name": "evaluateDecision",
      "outputs": [
        {
          "name": "_success",
          "type": "bool"
        }
      ],
      "payable": false,
      "stateMutability": "view",
      "type": "function"
    },
    {
      "constant": true,
      "inputs": [
        {
          "name": "",
          "type": "bytes32"
        }
      ],
      "name": "debtOfferCancelled",
      "outputs": [
        {
          "name": "",
          "type": "bool"
        }
      ],
      "payable": false,
      "stateMutability": "view",
      "type": "function"
    },
    {
      "constant": true,
      "inputs": [],
      "name": "PRECISION",
      "outputs": [
        {
          "name": "",
          "type": "uint256"
        }
      ],
      "payable": false,
      "stateMutability": "view",
      "type": "function"
    },
    {
      "constant": true,
      "inputs": [],
      "name": "contractRegistry",
      "outputs": [
        {
          "name": "",
          "type": "address"
        }
      ],
      "payable": false,
      "stateMutability": "view",
      "type": "function"
    },
    {
      "constant": true,
      "inputs": [
        {
          "components": [
            {
              "name": "creditor",
              "type": "address"
            },
            {
              "name": "priceFeedOperator",
              "type": "address"
            },
            {
              "components": [
                {
                  "components": [
                    {
                      "name": "maxLTV",
                      "type": "uint256"
                    }
                  ],
                  "name": "values",
                  "type": "tuple"
                },
                {
                  "components": [
                    {
                      "name": "v",
                      "type": "uint8"
                    },
                    {
                      "name": "r",
                      "type": "bytes32"
                    },
                    {
                      "name": "s",
                      "type": "bytes32"
                    }
                  ],
                  "name": "signature",
                  "type": "tuple"
                }
              ],
              "name": "creditorCommitment",
              "type": "tuple"
            },
            {
              "components": [
                {
                  "name": "value",
                  "type": "uint256"
                },
                {
                  "name": "timestamp",
                  "type": "uint256"
                },
                {
                  "name": "tokenAddress",
                  "type": "address"
                },
                {
                  "components": [
                    {
                      "name": "v",
                      "type": "uint8"
                    },
                    {
                      "name": "r",
                      "type": "bytes32"
                    },
                    {
                      "name": "s",
                      "type": "bytes32"
                    }
                  ],
                  "name": "signature",
                  "type": "tuple"
                }
              ],
              "name": "principalPrice",
              "type": "tuple"
            },
            {
              "components": [
                {
                  "name": "value",
                  "type": "uint256"
                },
                {
                  "name": "timestamp",
                  "type": "uint256"
                },
                {
                  "name": "tokenAddress",
                  "type": "address"
                },
                {
                  "components": [
                    {
                      "name": "v",
                      "type": "uint8"
                    },
                    {
                      "name": "r",
                      "type": "bytes32"
                    },
                    {
                      "name": "s",
                      "type": "bytes32"
                    }
                  ],
                  "name": "signature",
                  "type": "tuple"
                }
              ],
              "name": "collateralPrice",
              "type": "tuple"
            },
            {
              "components": [
                {
                  "name": "kernelVersion",
                  "type": "address"
                },
                {
                  "name": "issuanceVersion",
                  "type": "address"
                },
                {
                  "name": "principalAmount",
                  "type": "uint256"
                },
                {
                  "name": "principalToken",
                  "type": "address"
                },
                {
                  "name": "collateralAmount",
                  "type": "uint256"
                },
                {
                  "name": "collateralToken",
                  "type": "address"
                },
                {
                  "name": "debtor",
                  "type": "address"
                },
                {
                  "name": "debtorFee",
                  "type": "uint256"
                },
                {
                  "name": "creditor",
                  "type": "address"
                },
                {
                  "name": "creditorFee",
                  "type": "uint256"
                },
                {
                  "name": "relayer",
                  "type": "address"
                },
                {
                  "name": "relayerFee",
                  "type": "uint256"
                },
                {
                  "name": "underwriter",
                  "type": "address"
                },
                {
                  "name": "underwriterFee",
                  "type": "uint256"
                },
                {
                  "name": "underwriterRiskRating",
                  "type": "uint256"
                },
                {
                  "name": "termsContract",
                  "type": "address"
                },
                {
                  "name": "termsContractParameters",
                  "type": "bytes32"
                },
                {
                  "name": "expirationTimestampInSec",
                  "type": "uint256"
                },
                {
                  "name": "salt",
                  "type": "uint256"
                },
                {
                  "components": [
                    {
                      "name": "v",
                      "type": "uint8"
                    },
                    {
                      "name": "r",
                      "type": "bytes32"
                    },
                    {
                      "name": "s",
                      "type": "bytes32"
                    }
                  ],
                  "name": "debtorSignature",
                  "type": "tuple"
                },
                {
                  "components": [
                    {
                      "name": "v",
                      "type": "uint8"
                    },
                    {
                      "name": "r",
                      "type": "bytes32"
                    },
                    {
                      "name": "s",
                      "type": "bytes32"
                    }
                  ],
                  "name": "creditorSignature",
                  "type": "tuple"
                },
                {
                  "components": [
                    {
                      "name": "v",
                      "type": "uint8"
                    },
                    {
                      "name": "r",
                      "type": "bytes32"
                    },
                    {
                      "name": "s",
                      "type": "bytes32"
                    }
                  ],
                  "name": "underwriterSignature",
                  "type": "tuple"
                }
              ],
              "name": "order",
              "type": "tuple"
            }
          ],
          "name": "params",
          "type": "tuple"
        },
        {
          "name": "commitmentHash",
          "type": "bytes32"
        }
      ],
      "name": "evaluateConsent",
      "outputs": [
        {
          "name": "",
          "type": "bool"
        }
      ],
      "payable": false,
      "stateMutability": "view",
      "type": "function"
    },
    {
      "constant": true,
      "inputs": [
        {
          "name": "",
          "type": "bytes32"
        }
      ],
      "name": "debtOfferFilled",
      "outputs": [
        {
          "name": "",
          "type": "bool"
        }
      ],
      "payable": false,
      "stateMutability": "view",
      "type": "function"
    },
    {
      "constant": true,
      "inputs": [
        {
          "name": "termsContractParameters",
          "type": "bytes32"
        }
      ],
      "name": "unpackCollateralParameters",
      "outputs": [
        {
          "components": [
            {
              "name": "collateralTokenIndex",
              "type": "uint256"
            },
            {
              "name": "collateralAmount",
              "type": "uint256"
            },
            {
              "name": "gracePeriodInDays",
              "type": "uint256"
            }
          ],
          "name": "",
          "type": "tuple"
        }
      ],
      "payable": false,
      "stateMutability": "view",
      "type": "function"
    },
    {
      "constant": true,
      "inputs": [
        {
          "components": [
            {
              "name": "kernelVersion",
              "type": "address"
            },
            {
              "name": "issuanceVersion",
              "type": "address"
            },
            {
              "name": "principalAmount",
              "type": "uint256"
            },
            {
              "name": "principalToken",
              "type": "address"
            },
            {
              "name": "collateralAmount",
              "type": "uint256"
            },
            {
              "name": "collateralToken",
              "type": "address"
            },
            {
              "name": "debtor",
              "type": "address"
            },
            {
              "name": "debtorFee",
              "type": "uint256"
            },
            {
              "name": "creditor",
              "type": "address"
            },
            {
              "name": "creditorFee",
              "type": "uint256"
            },
            {
              "name": "relayer",
              "type": "address"
            },
            {
              "name": "relayerFee",
              "type": "uint256"
            },
            {
              "name": "underwriter",
              "type": "address"
            },
            {
              "name": "underwriterFee",
              "type": "uint256"
            },
            {
              "name": "underwriterRiskRating",
              "type": "uint256"
            },
            {
              "name": "termsContract",
              "type": "address"
            },
            {
              "name": "termsContractParameters",
              "type": "bytes32"
            },
            {
              "name": "expirationTimestampInSec",
              "type": "uint256"
            },
            {
              "name": "salt",
              "type": "uint256"
            },
            {
              "components": [
                {
                  "name": "v",
                  "type": "uint8"
                },
                {
                  "name": "r",
                  "type": "bytes32"
                },
                {
                  "name": "s",
                  "type": "bytes32"
                }
              ],
              "name": "debtorSignature",
              "type": "tuple"
            },
            {
              "components": [
                {
                  "name": "v",
                  "type": "uint8"
                },
                {
                  "name": "r",
                  "type": "bytes32"
                },
                {
                  "name": "s",
                  "type": "bytes32"
                }
              ],
              "name": "creditorSignature",
              "type": "tuple"
            },
            {
              "components": [
                {
                  "name": "v",
                  "type": "uint8"
                },
                {
                  "name": "r",
                  "type": "bytes32"
                },
                {
                  "name": "s",
                  "type": "bytes32"
                }
              ],
              "name": "underwriterSignature",
              "type": "tuple"
            }
          ],
          "name": "order",
          "type": "tuple"
        }
      ],
      "name": "unpackDebtOrder",
      "outputs": [
        {
          "name": "orderAddresses",
          "type": "address[6]"
        },
        {
          "name": "orderValues",
          "type": "uint256[8]"
        },
        {
          "name": "orderBytes32",
          "type": "bytes32[1]"
        },
        {
          "name": "signaturesV",
          "type": "uint8[3]"
        },
        {
          "name": "signaturesR",
          "type": "bytes32[3]"
        },
        {
          "name": "signaturesS",
          "type": "bytes32[3]"
        }
      ],
      "payable": false,
      "stateMutability": "pure",
      "type": "function"
    },
    {
      "constant": true,
      "inputs": [
        {
          "name": "termsContract",
          "type": "address"
        },
        {
          "name": "termsContractParameters",
          "type": "bytes32"
        }
      ],
      "name": "unpackSimpleInterestParameters",
      "outputs": [
        {
          "components": [
            {
              "name": "principalTokenIndex",
              "type": "uint256"
            },
            {
              "name": "principalAmount",
              "type": "uint256"
            },
            {
              "name": "interestRate",
              "type": "uint256"
            },
            {
              "name": "amortizationUnitType",
              "type": "uint256"
            },
            {
              "name": "termLengthInAmortizationUnits",
              "type": "uint256"
            }
          ],
          "name": "",
          "type": "tuple"
        }
      ],
      "payable": false,
      "stateMutability": "pure",
      "type": "function"
    },
    {
      "inputs": [
        {
          "name": "_contractRegistry",
          "type": "address"
        }
      ],
      "payable": false,
      "stateMutability": "nonpayable",
      "type": "constructor"
    },
    {
      "anonymous": false,
      "inputs": [
        {
          "indexed": true,
          "name": "_creditor",
          "type": "address"
        },
        {
          "indexed": true,
          "name": "_creditorCommitmentHash",
          "type": "bytes32"
        }
      ],
      "name": "DebtOfferCancelled",
      "type": "event"
    },
    {
      "anonymous": false,
      "inputs": [
        {
          "indexed": true,
          "name": "_creditor",
          "type": "address"
        },
        {
          "indexed": true,
          "name": "_creditorCommitmentHash",
          "type": "bytes32"
        },
        {
          "indexed": true,
          "name": "_agreementId",
          "type": "bytes32"
        }
      ],
      "name": "DebtOfferFilled",
      "type": "event"
    },
    {
      "anonymous": false,
      "inputs": [
        {
          "indexed": true,
          "name": "_errorId",
          "type": "uint8"
        },
        {
          "indexed": true,
          "name": "_creditor",
          "type": "address"
        },
        {
          "indexed": true,
          "name": "_creditorCommitmentHash",
          "type": "bytes32"
        }
      ],
      "name": "CreditorProxyError",
      "type": "event"
    },
    {
      "constant": false,
      "inputs": [
        {
          "components": [
            {
              "name": "creditor",
              "type": "address"
            },
            {
              "name": "priceFeedOperator",
              "type": "address"
            },
            {
              "components": [
                {
                  "components": [
                    {
                      "name": "maxLTV",
                      "type": "uint256"
                    }
                  ],
                  "name": "values",
                  "type": "tuple"
                },
                {
                  "components": [
                    {
                      "name": "v",
                      "type": "uint8"
                    },
                    {
                      "name": "r",
                      "type": "bytes32"
                    },
                    {
                      "name": "s",
                      "type": "bytes32"
                    }
                  ],
                  "name": "signature",
                  "type": "tuple"
                }
              ],
              "name": "creditorCommitment",
              "type": "tuple"
            },
            {
              "components": [
                {
                  "name": "value",
                  "type": "uint256"
                },
                {
                  "name": "timestamp",
                  "type": "uint256"
                },
                {
                  "name": "tokenAddress",
                  "type": "address"
                },
                {
                  "components": [
                    {
                      "name": "v",
                      "type": "uint8"
                    },
                    {
                      "name": "r",
                      "type": "bytes32"
                    },
                    {
                      "name": "s",
                      "type": "bytes32"
                    }
                  ],
                  "name": "signature",
                  "type": "tuple"
                }
              ],
              "name": "principalPrice",
              "type": "tuple"
            },
            {
              "components": [
                {
                  "name": "value",
                  "type": "uint256"
                },
                {
                  "name": "timestamp",
                  "type": "uint256"
                },
                {
                  "name": "tokenAddress",
                  "type": "address"
                },
                {
                  "components": [
                    {
                      "name": "v",
                      "type": "uint8"
                    },
                    {
                      "name": "r",
                      "type": "bytes32"
                    },
                    {
                      "name": "s",
                      "type": "bytes32"
                    }
                  ],
                  "name": "signature",
                  "type": "tuple"
                }
              ],
              "name": "collateralPrice",
              "type": "tuple"
            },
            {
              "components": [
                {
                  "name": "kernelVersion",
                  "type": "address"
                },
                {
                  "name": "issuanceVersion",
                  "type": "address"
                },
                {
                  "name": "principalAmount",
                  "type": "uint256"
                },
                {
                  "name": "principalToken",
                  "type": "address"
                },
                {
                  "name": "collateralAmount",
                  "type": "uint256"
                },
                {
                  "name": "collateralToken",
                  "type": "address"
                },
                {
                  "name": "debtor",
                  "type": "address"
                },
                {
                  "name": "debtorFee",
                  "type": "uint256"
                },
                {
                  "name": "creditor",
                  "type": "address"
                },
                {
                  "name": "creditorFee",
                  "type": "uint256"
                },
                {
                  "name": "relayer",
                  "type": "address"
                },
                {
                  "name": "relayerFee",
                  "type": "uint256"
                },
                {
                  "name": "underwriter",
                  "type": "address"
                },
                {
                  "name": "underwriterFee",
                  "type": "uint256"
                },
                {
                  "name": "underwriterRiskRating",
                  "type": "uint256"
                },
                {
                  "name": "termsContract",
                  "type": "address"
                },
                {
                  "name": "termsContractParameters",
                  "type": "bytes32"
                },
                {
                  "name": "expirationTimestampInSec",
                  "type": "uint256"
                },
                {
                  "name": "salt",
                  "type": "uint256"
                },
                {
                  "components": [
                    {
                      "name": "v",
                      "type": "uint8"
                    },
                    {
                      "name": "r",
                      "type": "bytes32"
                    },
                    {
                      "name": "s",
                      "type": "bytes32"
                    }
                  ],
                  "name": "debtorSignature",
                  "type": "tuple"
                },
                {
                  "components": [
                    {
                      "name": "v",
                      "type": "uint8"
                    },
                    {
                      "name": "r",
                      "type": "bytes32"
                    },
                    {
                      "name": "s",
                      "type": "bytes32"
                    }
                  ],
                  "name": "creditorSignature",
                  "type": "tuple"
                },
                {
                  "components": [
                    {
                      "name": "v",
                      "type": "uint8"
                    },
                    {
                      "name": "r",
                      "type": "bytes32"
                    },
                    {
                      "name": "s",
                      "type": "bytes32"
                    }
                  ],
                  "name": "underwriterSignature",
                  "type": "tuple"
                }
              ],
              "name": "order",
              "type": "tuple"
            }
          ],
          "name": "params",
          "type": "tuple"
        }
      ],
      "name": "fillDebtOffer",
      "outputs": [
        {
          "name": "id",
          "type": "bytes32"
        }
      ],
      "payable": false,
      "stateMutability": "nonpayable",
      "type": "function"
    },
    {
      "constant": false,
      "inputs": [
        {
          "components": [
            {
              "name": "creditor",
              "type": "address"
            },
            {
              "name": "priceFeedOperator",
              "type": "address"
            },
            {
              "components": [
                {
                  "components": [
                    {
                      "name": "maxLTV",
                      "type": "uint256"
                    }
                  ],
                  "name": "values",
                  "type": "tuple"
                },
                {
                  "components": [
                    {
                      "name": "v",
                      "type": "uint8"
                    },
                    {
                      "name": "r",
                      "type": "bytes32"
                    },
                    {
                      "name": "s",
                      "type": "bytes32"
                    }
                  ],
                  "name": "signature",
                  "type": "tuple"
                }
              ],
              "name": "creditorCommitment",
              "type": "tuple"
            },
            {
              "components": [
                {
                  "name": "value",
                  "type": "uint256"
                },
                {
                  "name": "timestamp",
                  "type": "uint256"
                },
                {
                  "name": "tokenAddress",
                  "type": "address"
                },
                {
                  "components": [
                    {
                      "name": "v",
                      "type": "uint8"
                    },
                    {
                      "name": "r",
                      "type": "bytes32"
                    },
                    {
                      "name": "s",
                      "type": "bytes32"
                    }
                  ],
                  "name": "signature",
                  "type": "tuple"
                }
              ],
              "name": "principalPrice",
              "type": "tuple"
            },
            {
              "components": [
                {
                  "name": "value",
                  "type": "uint256"
                },
                {
                  "name": "timestamp",
                  "type": "uint256"
                },
                {
                  "name": "tokenAddress",
                  "type": "address"
                },
                {
                  "components": [
                    {
                      "name": "v",
                      "type": "uint8"
                    },
                    {
                      "name": "r",
                      "type": "bytes32"
                    },
                    {
                      "name": "s",
                      "type": "bytes32"
                    }
                  ],
                  "name": "signature",
                  "type": "tuple"
                }
              ],
              "name": "collateralPrice",
              "type": "tuple"
            },
            {
              "components": [
                {
                  "name": "kernelVersion",
                  "type": "address"
                },
                {
                  "name": "issuanceVersion",
                  "type": "address"
                },
                {
                  "name": "principalAmount",
                  "type": "uint256"
                },
                {
                  "name": "principalToken",
                  "type": "address"
                },
                {
                  "name": "collateralAmount",
                  "type": "uint256"
                },
                {
                  "name": "collateralToken",
                  "type": "address"
                },
                {
                  "name": "debtor",
                  "type": "address"
                },
                {
                  "name": "debtorFee",
                  "type": "uint256"
                },
                {
                  "name": "creditor",
                  "type": "address"
                },
                {
                  "name": "creditorFee",
                  "type": "uint256"
                },
                {
                  "name": "relayer",
                  "type": "address"
                },
                {
                  "name": "relayerFee",
                  "type": "uint256"
                },
                {
                  "name": "underwriter",
                  "type": "address"
                },
                {
                  "name": "underwriterFee",
                  "type": "uint256"
                },
                {
                  "name": "underwriterRiskRating",
                  "type": "uint256"
                },
                {
                  "name": "termsContract",
                  "type": "address"
                },
                {
                  "name": "termsContractParameters",
                  "type": "bytes32"
                },
                {
                  "name": "expirationTimestampInSec",
                  "type": "uint256"
                },
                {
                  "name": "salt",
                  "type": "uint256"
                },
                {
                  "components": [
                    {
                      "name": "v",
                      "type": "uint8"
                    },
                    {
                      "name": "r",
                      "type": "bytes32"
                    },
                    {
                      "name": "s",
                      "type": "bytes32"
                    }
                  ],
                  "name": "debtorSignature",
                  "type": "tuple"
                },
                {
                  "components": [
                    {
                      "name": "v",
                      "type": "uint8"
                    },
                    {
                      "name": "r",
                      "type": "bytes32"
                    },
                    {
                      "name": "s",
                      "type": "bytes32"
                    }
                  ],
                  "name": "creditorSignature",
                  "type": "tuple"
                },
                {
                  "components": [
                    {
                      "name": "v",
                      "type": "uint8"
                    },
                    {
                      "name": "r",
                      "type": "bytes32"
                    },
                    {
                      "name": "s",
                      "type": "bytes32"
                    }
                  ],
                  "name": "underwriterSignature",
                  "type": "tuple"
                }
              ],
              "name": "order",
              "type": "tuple"
            }
          ],
          "name": "params",
          "type": "tuple"
        }
      ],
      "name": "cancelDebtOffer",
      "outputs": [
        {
          "name": "",
          "type": "bool"
        }
      ],
      "payable": false,
      "stateMutability": "nonpayable",
      "type": "function"
    }
  ],
  "bytecode": "0x60806040523480156200001157600080fd5b506040516020806200259c833981018060405262000033919081019062000092565b80806000806101000a81548173ffffffffffffffffffffffffffffffffffffffff021916908373ffffffffffffffffffffffffffffffffffffffff1602179055505050620000de565b60006200008a8251620000be565b905092915050565b600060208284031215620000a557600080fd5b6000620000b5848285016200007c565b91505092915050565b600073ffffffffffffffffffffffffffffffffffffffff82169050919050565b6124ae80620000ee6000396000f3006080604052600436106100db576000357c0100000000000000000000000000000000000000000000000000000000900463ffffffff1680630257dbc9146100e05780630a89d47c1461011d578063314bdcdc1461015a578063578911ac146101975780637c3ea9fc146101d4578063879ffab0146101ff578063a318b5f71461023c578063aaf5eb6814610279578063abf410e5146102a4578063b120f0b4146102cf578063c1614d001461030c578063cc9dbb1314610349578063cf99685c14610386578063e301885c146103c3578063e7083d2414610405575b600080fd5b3480156100ec57600080fd5b5061010760048036036101029190810190611cb1565b610442565b604051610114919061221f565b60405180910390f35b34801561012957600080fd5b50610144600480360361013f9190810190611d8e565b6104d7565b604051610151919061221f565b60405180910390f35b34801561016657600080fd5b50610181600480360361017c9190810190611df5565b6106bb565b60405161018e9190612204565b60405180910390f35b3480156101a357600080fd5b506101be60048036036101b99190810190611ced565b6107a0565b6040516101cb9190612204565b60405180910390f35b3480156101e057600080fd5b506101e96108e2565b6040516101f691906122d0565b60405180910390f35b34801561020b57600080fd5b5061022660048036036102219190810190611df5565b6108e8565b6040516102339190612204565b60405180910390f35b34801561024857600080fd5b50610263600480360361025e9190810190611d3c565b6109ce565b6040516102709190612204565b60405180910390f35b34801561028557600080fd5b5061028e6109ee565b60405161029b91906122d0565b60405180910390f35b3480156102b057600080fd5b506102b96109f3565b6040516102c6919061227f565b60405180910390f35b3480156102db57600080fd5b506102f660048036036102f19190810190611e1f565b610a18565b6040516103039190612204565b60405180910390f35b34801561031857600080fd5b50610333600480360361032e9190810190611d3c565b610a60565b6040516103409190612204565b60405180910390f35b34801561035557600080fd5b50610370600480360361036b9190810190611df5565b610a80565b60405161037d919061221f565b60405180910390f35b34801561039257600080fd5b506103ad60048036036103a89190810190611d3c565b610af1565b6040516103ba919061229a565b60405180910390f35b3480156103cf57600080fd5b506103ea60048036036103e59190810190611dcb565b610c92565b6040516103fc9695949392919061219e565b60405180910390f35b34801561041157600080fd5b5061042c60048036036104279190810190611cb1565b610f8d565b60405161043991906122b5565b60405180910390f35b600061044c6112ad565b6104546112dd565b61045e8585610f8d565b915061046984610af1565b905081600001518260200151836040015184606001518560800151856000015186604001516040518088815260200187815260200186815260200185815260200184815260200183815260200182815260200197505050505050505060405180910390209250505092915050565b6000806104ee836101e00151846102000151610442565b905082610100015183600001518460200151856101e00151866060015187610240015188604001518961012001518a61022001518c600001518a604051808c73ffffffffffffffffffffffffffffffffffffffff1673ffffffffffffffffffffffffffffffffffffffff166c010000000000000000000000000281526014018b73ffffffffffffffffffffffffffffffffffffffff1673ffffffffffffffffffffffffffffffffffffffff166c010000000000000000000000000281526014018a73ffffffffffffffffffffffffffffffffffffffff1673ffffffffffffffffffffffffffffffffffffffff166c010000000000000000000000000281526014018973ffffffffffffffffffffffffffffffffffffffff1673ffffffffffffffffffffffffffffffffffffffff166c010000000000000000000000000281526014018873ffffffffffffffffffffffffffffffffffffffff1673ffffffffffffffffffffffffffffffffffffffff166c0100000000000000000000000002815260140187815260200186815260200185815260200184815260200183815260200182600019166000191681526020019b505050505050505050505050604051809103902091505092915050565b60006106c56112ff565b6106cd611313565b600081610100015173ffffffffffffffffffffffffffffffffffffffff163373ffffffffffffffffffffffffffffffffffffffff1614151561070e57600080fd5b84604001516000015192508460a00151915061072a83836104d7565b905060026000826000191660001916815260200190815260200160002060009054906101000a900460ff1615151561076157600080fd5b6001806000836000191660001916815260200190815260200160002060006101000a81548160ff02191690831515021790555060019350505050919050565b6000806040805190810160405280601c81526020017f19457468657265756d205369676e6564204d6573736167653a0a333200000000815250846040518083805190602001908083835b60208310151561080f57805182526020820191506020810190506020830392506107ea565b6001836020036101000a038019825116818451168082178552505050505050905001826000191660001916815260200192505050604051809103902090508473ffffffffffffffffffffffffffffffffffffffff1660018285600001518660200151876040015160405160008152602001604052604051610893949392919061223a565b60206040516020810390808403906000865af11580156108b7573d6000803e3d6000fd5b5050506020604051035173ffffffffffffffffffffffffffffffffffffffff16149150509392505050565b61025881565b60006108f2611496565b6108fa611496565b6000610904611313565b600080600088606001519650886080015195508860400151600001516000015194508860a00151935085600001519250610942846102200151611088565b1561095057600097506109c2565b6000846080015114806109635750600083145b1561097157600097506109c2565b61098d8760000151876000015186604001518760800151611094565b91506109b96109a7600260046110f890919063ffffffff16565b600a0a8661111190919063ffffffff16565b90508082111597505b50505050505050919050565b60016020528060005260406000206000915054906101000a900460ff1681565b600481565b6000809054906101000a900473ffffffffffffffffffffffffffffffffffffffff1681565b6000610a318360000151838560400151602001516107a0565b1515610a405760009050610a5a565b610a57836020015184606001518560800151611149565b90505b92915050565b60026020528060005260406000206000915054906101000a900460ff1681565b6000610a8a611313565b610a926112ff565b60008460a0015192508460400151600001519150610ab082846104d7565b9050600160026000866000191660001916815260200190815260200160002060006101000a81548160ff021916908315150217905550839350505050919050565b610af96112dd565b6000806000806000809054906101000a900473ffffffffffffffffffffffffffffffffffffffff1673ffffffffffffffffffffffffffffffffffffffff1663869f05116040518163ffffffff167c0100000000000000000000000000000000000000000000000000000000028152600401602060405180830381600087803b158015610b8457600080fd5b505af1158015610b98573d6000803e3d6000fd5b505050506040513d601f19601f82011682018060405250610bbc9190810190611d65565b93508373ffffffffffffffffffffffffffffffffffffffff1663ca062647876040518263ffffffff167c0100000000000000000000000000000000000000000000000000000000028152600401610c13919061221f565b606060405180830381600087803b158015610c2d57600080fd5b505af1158015610c41573d6000803e3d6000fd5b505050506040513d601f19601f82011682018060405250610c659190810190611e5d565b92509250925060606040519081016040528084815260200183815260200182815250945050505050919050565b610c9a6114db565b610ca26114fe565b610caa611522565b610cb2611545565b610cba611568565b610cc2611568565b60c060405190810160405280886000015173ffffffffffffffffffffffffffffffffffffffff1673ffffffffffffffffffffffffffffffffffffffff1681526020018860c0015173ffffffffffffffffffffffffffffffffffffffff1673ffffffffffffffffffffffffffffffffffffffff16815260200188610180015173ffffffffffffffffffffffffffffffffffffffff1673ffffffffffffffffffffffffffffffffffffffff168152602001886101e0015173ffffffffffffffffffffffffffffffffffffffff1673ffffffffffffffffffffffffffffffffffffffff168152602001886060015173ffffffffffffffffffffffffffffffffffffffff1673ffffffffffffffffffffffffffffffffffffffff16815260200188610140015173ffffffffffffffffffffffffffffffffffffffff1673ffffffffffffffffffffffffffffffffffffffff1681525061010060405190810160405280896101c001518152602001896102400151815260200189604001518152602001896101a001518152602001896101600151815260200189610120015181526020018960e0015181526020018961022001518152506020604051908101604052808a610200015160001916600019168152506060604051908101604052808b61026001516000015160ff1660ff1681526020018b61028001516000015160ff1660ff1681526020018b6102a001516000015160ff1660ff168152506060604051908101604052808c610260015160200151600019166000191681526020018c610280015160200151600019166000191681526020018c6102a001516020015160001916600019168152506060604051908101604052808d610260015160400151600019166000191681526020018d610280015160400151600019166000191681526020018d6102a0015160400151600019166000191681525095509550955095509550955091939550919395565b610f956112ad565b6000806000806000808895508573ffffffffffffffffffffffffffffffffffffffff1663ed8907d7896040518263ffffffff167c0100000000000000000000000000000000000000000000000000000000028152600401610ff6919061221f565b60a060405180830381600087803b15801561101057600080fd5b505af1158015611024573d6000803e3d6000fd5b505050506040513d601f19601f820116820180604052506110489190810190611eac565b9450945094509450945060a06040519081016040528086815260200185815260200184815260200183815260200182815250965050505050505092915050565b60004282109050919050565b60008060006110c26004600a0a6110b4878a61111190919063ffffffff16565b61111190919063ffffffff16565b91506110d7848761111190919063ffffffff16565b90506110ec818361129790919063ffffffff16565b92505050949350505050565b600082821115151561110657fe5b818303905092915050565b6000808314156111245760009050611143565b818302905081838281151561113557fe5b0414151561113f57fe5b8090505b92915050565b600080600080600061025842039350838760200151108061116d5750838660200151105b1561117b576000945061128c565b866000015187604001518860200151604051808481526020018373ffffffffffffffffffffffffffffffffffffffff1673ffffffffffffffffffffffffffffffffffffffff166c01000000000000000000000000028152601401828152602001935050505060405180910390209250856000015186604001518760200151604051808481526020018373ffffffffffffffffffffffffffffffffffffffff1673ffffffffffffffffffffffffffffffffffffffff166c01000000000000000000000000028152601401828152602001935050505060405180910390209150611268888489606001516107a0565b905080151561127a576000945061128c565b611289888388606001516107a0565b94505b505050509392505050565b600081838115156112a457fe5b04905092915050565b60a06040519081016040528060008152602001600081526020016000815260200160008152602001600081525090565b6060604051908101604052806000815260200160008152602001600081525090565b602060405190810160405280600081525090565b61038060405190810160405280600073ffffffffffffffffffffffffffffffffffffffff168152602001600073ffffffffffffffffffffffffffffffffffffffff16815260200160008152602001600073ffffffffffffffffffffffffffffffffffffffff16815260200160008152602001600073ffffffffffffffffffffffffffffffffffffffff168152602001600073ffffffffffffffffffffffffffffffffffffffff16815260200160008152602001600073ffffffffffffffffffffffffffffffffffffffff16815260200160008152602001600073ffffffffffffffffffffffffffffffffffffffff16815260200160008152602001600073ffffffffffffffffffffffffffffffffffffffff1681526020016000815260200160008152602001600073ffffffffffffffffffffffffffffffffffffffff16815260200160008019168152602001600081526020016000815260200161147661158b565b815260200161148361158b565b815260200161149061158b565b81525090565b60c0604051908101604052806000815260200160008152602001600073ffffffffffffffffffffffffffffffffffffffff1681526020016114d561158b565b81525090565b60c060405190810160405280600690602082028038833980820191505090505090565b61010060405190810160405280600890602082028038833980820191505090505090565b602060405190810160405280600190602082028038833980820191505090505090565b606060405190810160405280600390602082028038833980820191505090505090565b606060405190810160405280600390602082028038833980820191505090505090565b606060405190810160405280600060ff16815260200160008019168152602001600080191681525090565b60006115c2823561240f565b905092915050565b60006115d6823561242f565b905092915050565b60006115ea8251612439565b905092915050565b60006020828403121561160457600080fd5b61160e60206122eb565b9050600061161e84828501611c75565b60008301525092915050565b60006020828403121561163c57600080fd5b61164660206122eb565b9050600061165684828501611c75565b60008301525092915050565b60006080828403121561167457600080fd5b61167e60406122eb565b9050600061168e848285016115f2565b60008301525060206116a284828501611aa2565b60208301525092915050565b600061038082840312156116c157600080fd5b6116cc6102c06122eb565b905060006116dc848285016115b6565b60008301525060206116f0848285016115b6565b602083015250604061170484828501611c75565b6040830152506060611718848285016115b6565b606083015250608061172c84828501611c75565b60808301525060a0611740848285016115b6565b60a08301525060c0611754848285016115b6565b60c08301525060e061176884828501611c75565b60e08301525061010061177d848285016115b6565b6101008301525061012061179384828501611c75565b610120830152506101406117a9848285016115b6565b610140830152506101606117bf84828501611c75565b610160830152506101806117d5848285016115b6565b610180830152506101a06117eb84828501611c75565b6101a0830152506101c061180184828501611c75565b6101c0830152506101e0611817848285016115b6565b6101e08301525061020061182d848285016115ca565b6102008301525061022061184384828501611c75565b6102208301525061024061185984828501611c75565b6102408301525061026061186f84828501611aa2565b610260830152506102c061188584828501611aa2565b6102808301525061032061189b84828501611aa2565b6102a08301525092915050565b600061038082840312156118bb57600080fd5b6118c66102c06122eb565b905060006118d6848285016115b6565b60008301525060206118ea848285016115b6565b60208301525060406118fe84828501611c75565b6040830152506060611912848285016115b6565b606083015250608061192684828501611c75565b60808301525060a061193a848285016115b6565b60a08301525060c061194e848285016115b6565b60c08301525060e061196284828501611c75565b60e083015250610100611977848285016115b6565b6101008301525061012061198d84828501611c75565b610120830152506101406119a3848285016115b6565b610140830152506101606119b984828501611c75565b610160830152506101806119cf848285016115b6565b610180830152506101a06119e584828501611c75565b6101a0830152506101c06119fb84828501611c75565b6101c0830152506101e0611a11848285016115b6565b6101e083015250610200611a27848285016115ca565b61020083015250610220611a3d84828501611c75565b61022083015250610240611a5384828501611c75565b61024083015250610260611a6984828501611aa2565b610260830152506102c0611a7f84828501611aa2565b61028083015250610320611a9584828501611aa2565b6102a08301525092915050565b600060608284031215611ab457600080fd5b611abe60606122eb565b90506000611ace84828501611c9d565b6000830152506020611ae2848285016115ca565b6020830152506040611af6848285016115ca565b60408301525092915050565b600060608284031215611b1457600080fd5b611b1e60606122eb565b90506000611b2e84828501611c9d565b6000830152506020611b42848285016115ca565b6020830152506040611b56848285016115ca565b60408301525092915050565b60006105c08284031215611b7557600080fd5b611b7f60c06122eb565b90506000611b8f848285016115b6565b6000830152506020611ba3848285016115b6565b6020830152506040611bb784828501611662565b60408301525060c0611bcb84828501611c01565b606083015250610180611be084828501611c01565b608083015250610240611bf5848285016116ae565b60a08301525092915050565b600060c08284031215611c1357600080fd5b611c1d60806122eb565b90506000611c2d84828501611c75565b6000830152506020611c4184828501611c75565b6020830152506040611c55848285016115b6565b6040830152506060611c6984828501611aa2565b60608301525092915050565b6000611c81823561244b565b905092915050565b6000611c95825161244b565b905092915050565b6000611ca98235612455565b905092915050565b60008060408385031215611cc457600080fd5b6000611cd2858286016115b6565b9250506020611ce3858286016115ca565b9150509250929050565b600080600060a08486031215611d0257600080fd5b6000611d10868287016115b6565b9350506020611d21868287016115ca565b9250506040611d3286828701611b02565b9150509250925092565b600060208284031215611d4e57600080fd5b6000611d5c848285016115ca565b91505092915050565b600060208284031215611d7757600080fd5b6000611d85848285016115de565b91505092915050565b6000806103a08385031215611da257600080fd5b6000611db08582860161162a565b9250506020611dc1858286016118a8565b9150509250929050565b60006103808284031215611dde57600080fd5b6000611dec848285016118a8565b91505092915050565b60006105c08284031215611e0857600080fd5b6000611e1684828501611b62565b91505092915050565b6000806105e08385031215611e3357600080fd5b6000611e4185828601611b62565b9250506105c0611e53858286016115ca565b9150509250929050565b600080600060608486031215611e7257600080fd5b6000611e8086828701611c89565b9350506020611e9186828701611c89565b9250506040611ea286828701611c89565b9150509250925092565b600080600080600060a08688031215611ec457600080fd5b6000611ed288828901611c89565b9550506020611ee388828901611c89565b9450506040611ef488828901611c89565b9350506060611f0588828901611c89565b9250506080611f1688828901611c89565b9150509295509295909350565b611f2c816123c2565b82525050565b611f3b8161234a565b611f4482612318565b60005b82811015611f7657611f5a858351611f23565b611f6382612381565b9150602085019450600181019050611f47565b5050505050565b611f8681612355565b611f8f82612322565b60005b82811015611fc157611fa58583516120b8565b611fae8261238e565b9150602085019450600181019050611f92565b5050505050565b611fd181612360565b611fda8261232c565b60005b8281101561200c57611ff08583516120b8565b611ff98261239b565b9150602085019450600181019050611fdd565b5050505050565b61201c8161236b565b61202582612336565b60005b828110156120575761203b858351612180565b612044826123a8565b9150602085019450600181019050612028565b5050505050565b61206781612376565b61207082612340565b60005b828110156120a25761208685835161218f565b61208f826123b5565b9150602085019450600181019050612073565b5050505050565b6120b2816123e2565b82525050565b6120c1816123ee565b82525050565b6120d081612462565b82525050565b6060820160008201516120ec6000850182612180565b5060208201516120ff6020850182612180565b5060408201516121126040850182612180565b50505050565b60a08201600082015161212e6000850182612180565b5060208201516121416020850182612180565b5060408201516121546040850182612180565b5060608201516121676060850182612180565b50608082015161217a6080850182612180565b50505050565b612189816123f8565b82525050565b61219881612402565b82525050565b6000610300820190506121b46000830189611f32565b6121c160c0830188612013565b6121cf6101c0830187611f7d565b6121dd6101e083018661205e565b6121eb610240830185611fc8565b6121f96102a0830184611fc8565b979650505050505050565b600060208201905061221960008301846120a9565b92915050565b600060208201905061223460008301846120b8565b92915050565b600060808201905061224f60008301876120b8565b61225c602083018661218f565b61226960408301856120b8565b61227660608301846120b8565b95945050505050565b600060208201905061229460008301846120c7565b92915050565b60006060820190506122af60008301846120d6565b92915050565b600060a0820190506122ca6000830184612118565b92915050565b60006020820190506122e56000830184612180565b92915050565b6000604051905081810181811067ffffffffffffffff8211171561230e57600080fd5b8060405250919050565b6000819050919050565b6000819050919050565b6000819050919050565b6000819050919050565b6000819050919050565b600060069050919050565b600060019050919050565b600060039050919050565b600060089050919050565b600060039050919050565b6000602082019050919050565b6000602082019050919050565b6000602082019050919050565b6000602082019050919050565b6000602082019050919050565b600073ffffffffffffffffffffffffffffffffffffffff82169050919050565b60008115159050919050565b6000819050919050565b6000819050919050565b600060ff82169050919050565b600073ffffffffffffffffffffffffffffffffffffffff82169050919050565b6000819050919050565b6000612444826123c2565b9050919050565b6000819050919050565b600060ff82169050919050565b600061246d826123c2565b90509190505600a265627a7a7230582059669587923de5e16ffeb4cd364e99494b25895be46b7a5831b4088e1452d8b96c6578706572696d656e74616cf50037",
  "source": "pragma solidity ^0.4.24;\npragma experimental ABIEncoderV2;\n\n\nimport \"../shared/interfaces/ContractRegistryInterface.sol\";\nimport \"./DecisionEngines/LTVDecisionEngine.sol\";\nimport \"./interfaces/CreditorProxyCoreInterface.sol\";\n\n\ncontract LTVCreditorProxy is LTVDecisionEngine, CreditorProxyCoreInterface {\n\n\tmapping (bytes32 => bool) public debtOfferCancelled;\n\tmapping (bytes32 => bool) public debtOfferFilled;\n\n\tbytes32 constant internal NULL_ISSUANCE_HASH = bytes32(0);\n\n\tfunction LTVCreditorProxy(address _contractRegistry) LTVDecisionEngine(_contractRegistry) {}\n\n\tfunction fillDebtOffer(LTVDecisionEngineTypes.Params params)\n\t\tpublic returns (bytes32 id)\n\t{\n\t\tOrderLibrary.DebtOrder memory order = params.order;\n\t\tCommitmentValues memory commitmentValues = params.creditorCommitment.values;\n\n\t\tbytes32 creditorCommitmentHash = hashCreditorCommitmentForOrder(commitmentValues, order);\n\n//\t\tif (!evaluateConsent(params, creditorCommitmentHash)) {\n//\t\t\temit CreditorProxyError(uint8(Errors.DEBT_OFFER_NON_CONSENSUAL), order.creditor, creditorCommitmentHash);\n//\t\t\treturn NULL_ISSUANCE_HASH;\n//\t\t}\n//\n//\t\tif (debtOfferFilled[creditorCommitmentHash]) {\n//\t\t\temit CreditorProxyError(uint8(Errors.DEBT_OFFER_ALREADY_FILLED), order.creditor, creditorCommitmentHash);\n//\t\t\treturn NULL_ISSUANCE_HASH;\n//\t\t}\n//\n//\t\tif (debtOfferCancelled[creditorCommitmentHash]) {\n//\t\t\temit CreditorProxyError(uint8(Errors.DEBT_OFFER_CANCELLED), order.creditor, creditorCommitmentHash);\n//\t\t\treturn NULL_ISSUANCE_HASH;\n//\t\t}\n//\n//\t\tif (!evaluateDecision(params)) {\n//\t\t\temit CreditorProxyError(\n//\t\t\t\tuint8(Errors.DEBT_OFFER_CRITERIA_NOT_MET),\n//\t\t\t\torder.creditor,\n//\t\t\t\tcreditorCommitmentHash\n//\t\t\t);\n//\t\t\treturn NULL_ISSUANCE_HASH;\n//\t\t}\n\n\t\t//\t\taddress principalToken = order.principalToken;\n\n\t\t\t// The order is consensual and has an acceptable LTV ratio.\n\t\tdebtOfferFilled[id] = true;\n\t\treturn id;\n\t}\n\n\tfunction sendOrderToKernel(DebtOrder memory order) internal returns (bytes32 id)\n\t{\n\t\taddress[6] memory orderAddresses;\n\t\tuint[8] memory orderValues;\n\t\tbytes32[1] memory orderBytes32;\n\t\tuint8[3] memory signaturesV;\n\t\tbytes32[3] memory signaturesR;\n\t\tbytes32[3] memory signaturesS;\n\n\t\t(orderAddresses, orderValues, orderBytes32, signaturesV, signaturesR, signaturesS) = unpackDebtOrder(order);\n\n\t\treturn contractRegistry.debtKernel().fillDebtOrder(\n\t\t\taddress(this),\n\t\t\torderAddresses,\n\t\t\torderValues,\n\t\t\torderBytes32,\n\t\t\tsignaturesV,\n\t\t\tsignaturesR,\n\t\t\tsignaturesS\n\t\t);\n\t}\n\n\tfunction cancelDebtOffer(LTVDecisionEngineTypes.Params params) public returns (bool) {\n\t\t// sender must be the creditor.\n\t\trequire(msg.sender == order.creditor);\n\n\t\tLTVDecisionEngineTypes.CommitmentValues memory commitmentValues = params.creditorCommitment.values;\n\t\tOrderLibrary.DebtOrder memory order = params.order;\n\n\t\tbytes32 creditorCommitmentHash = hashCreditorCommitmentForOrder(commitmentValues, order);\n\n\t\t// debt offer must not already be filled.\n\t\trequire(!debtOfferFilled[creditorCommitmentHash]);\n\n\t\tdebtOfferCancelled[creditorCommitmentHash] = true;\n\n\t\treturn true;\n\t}\n}\n",
  "sourcePath": "/Users/graemeboy/Dharma/experimental/contracts/src/CreditorDrivenLoans/LTVCreditorProxy.sol",
  "compiler": {
    "name": "solc",
    "version": "0.4.24+commit.e67f0147.Emscripten.clang"
  },
  "schemaVersion": "2.0.1",
  "updatedAt": "2018-10-16T21:21:04.733Z"
}