{
  "contractName": "LTVDecisionEngine",
  "abi": [
    {
      "constant": true,
      "inputs": [
        {
          "name": "signer",
          "type": "address"
        },
        {
          "name": "hash",
          "type": "bytes32"
        },
        {
          "components": [
            {
              "name": "v",
              "type": "uint8"
            },
            {
              "name": "r",
              "type": "bytes32"
            },
            {
              "name": "s",
              "type": "bytes32"
            }
          ],
          "name": "signature",
          "type": "tuple"
        }
      ],
      "name": "isValidSignature",
      "outputs": [
        {
          "name": "valid",
          "type": "bool"
        }
      ],
      "payable": false,
      "stateMutability": "pure",
      "type": "function"
    },
    {
      "constant": true,
      "inputs": [],
      "name": "MAX_PRICE_TTL_IN_SECONDS",
      "outputs": [
        {
          "name": "",
          "type": "uint256"
        }
      ],
      "payable": false,
      "stateMutability": "view",
      "type": "function"
    },
    {
      "constant": true,
      "inputs": [],
      "name": "PRECISION",
      "outputs": [
        {
          "name": "",
          "type": "uint256"
        }
      ],
      "payable": false,
      "stateMutability": "view",
      "type": "function"
    },
    {
      "constant": true,
      "inputs": [],
      "name": "contractRegistry",
      "outputs": [
        {
          "name": "",
          "type": "address"
        }
      ],
      "payable": false,
      "stateMutability": "view",
      "type": "function"
    },
    {
      "constant": true,
      "inputs": [
        {
          "components": [
            {
              "name": "kernelVersion",
              "type": "address"
            },
            {
              "name": "issuanceVersion",
              "type": "address"
            },
            {
              "name": "principalAmount",
              "type": "uint256"
            },
            {
              "name": "principalToken",
              "type": "address"
            },
            {
              "name": "collateralAmount",
              "type": "uint256"
            },
            {
              "name": "collateralToken",
              "type": "address"
            },
            {
              "name": "debtor",
              "type": "address"
            },
            {
              "name": "debtorFee",
              "type": "uint256"
            },
            {
              "name": "creditor",
              "type": "address"
            },
            {
              "name": "creditorFee",
              "type": "uint256"
            },
            {
              "name": "relayer",
              "type": "address"
            },
            {
              "name": "relayerFee",
              "type": "uint256"
            },
            {
              "name": "underwriter",
              "type": "address"
            },
            {
              "name": "underwriterFee",
              "type": "uint256"
            },
            {
              "name": "underwriterRiskRating",
              "type": "uint256"
            },
            {
              "name": "termsContract",
              "type": "address"
            },
            {
              "name": "termsContractParameters",
              "type": "bytes32"
            },
            {
              "name": "expirationTimestampInSec",
              "type": "uint256"
            },
            {
              "name": "salt",
              "type": "uint256"
            },
            {
              "components": [
                {
                  "name": "v",
                  "type": "uint8"
                },
                {
                  "name": "r",
                  "type": "bytes32"
                },
                {
                  "name": "s",
                  "type": "bytes32"
                }
              ],
              "name": "debtorSignature",
              "type": "tuple"
            },
            {
              "components": [
                {
                  "name": "v",
                  "type": "uint8"
                },
                {
                  "name": "r",
                  "type": "bytes32"
                },
                {
                  "name": "s",
                  "type": "bytes32"
                }
              ],
              "name": "creditorSignature",
              "type": "tuple"
            },
            {
              "components": [
                {
                  "name": "v",
                  "type": "uint8"
                },
                {
                  "name": "r",
                  "type": "bytes32"
                },
                {
                  "name": "s",
                  "type": "bytes32"
                }
              ],
              "name": "underwriterSignature",
              "type": "tuple"
            }
          ],
          "name": "order",
          "type": "tuple"
        }
      ],
      "name": "unpackDebtOrder",
      "outputs": [
        {
          "name": "orderAddresses",
          "type": "address[6]"
        },
        {
          "name": "orderValues",
          "type": "uint256[8]"
        },
        {
          "name": "orderBytes32",
          "type": "bytes32[1]"
        },
        {
          "name": "signaturesV",
          "type": "uint8[3]"
        },
        {
          "name": "signaturesR",
          "type": "bytes32[3]"
        },
        {
          "name": "signaturesS",
          "type": "bytes32[3]"
        }
      ],
      "payable": false,
      "stateMutability": "pure",
      "type": "function"
    },
    {
      "inputs": [
        {
          "name": "_contractRegistry",
          "type": "address"
        }
      ],
      "payable": false,
      "stateMutability": "nonpayable",
      "type": "constructor"
    },
    {
      "constant": true,
      "inputs": [
        {
          "components": [
            {
              "name": "creditor",
              "type": "address"
            },
            {
              "components": [
                {
                  "components": [
                    {
                      "name": "maxLTV",
                      "type": "uint256"
                    },
                    {
                      "name": "priceFeedOperator",
                      "type": "address"
                    }
                  ],
                  "name": "values",
                  "type": "tuple"
                },
                {
                  "components": [
                    {
                      "name": "v",
                      "type": "uint8"
                    },
                    {
                      "name": "r",
                      "type": "bytes32"
                    },
                    {
                      "name": "s",
                      "type": "bytes32"
                    }
                  ],
                  "name": "signature",
                  "type": "tuple"
                }
              ],
              "name": "creditorCommitment",
              "type": "tuple"
            },
            {
              "components": [
                {
                  "name": "value",
                  "type": "uint256"
                },
                {
                  "name": "timestamp",
                  "type": "uint256"
                },
                {
                  "name": "tokenAddress",
                  "type": "address"
                },
                {
                  "components": [
                    {
                      "name": "v",
                      "type": "uint8"
                    },
                    {
                      "name": "r",
                      "type": "bytes32"
                    },
                    {
                      "name": "s",
                      "type": "bytes32"
                    }
                  ],
                  "name": "signature",
                  "type": "tuple"
                }
              ],
              "name": "principalPrice",
              "type": "tuple"
            },
            {
              "components": [
                {
                  "name": "value",
                  "type": "uint256"
                },
                {
                  "name": "timestamp",
                  "type": "uint256"
                },
                {
                  "name": "tokenAddress",
                  "type": "address"
                },
                {
                  "components": [
                    {
                      "name": "v",
                      "type": "uint8"
                    },
                    {
                      "name": "r",
                      "type": "bytes32"
                    },
                    {
                      "name": "s",
                      "type": "bytes32"
                    }
                  ],
                  "name": "signature",
                  "type": "tuple"
                }
              ],
              "name": "collateralPrice",
              "type": "tuple"
            },
            {
              "components": [
                {
                  "name": "kernelVersion",
                  "type": "address"
                },
                {
                  "name": "issuanceVersion",
                  "type": "address"
                },
                {
                  "name": "principalAmount",
                  "type": "uint256"
                },
                {
                  "name": "principalToken",
                  "type": "address"
                },
                {
                  "name": "collateralAmount",
                  "type": "uint256"
                },
                {
                  "name": "collateralToken",
                  "type": "address"
                },
                {
                  "name": "debtor",
                  "type": "address"
                },
                {
                  "name": "debtorFee",
                  "type": "uint256"
                },
                {
                  "name": "creditor",
                  "type": "address"
                },
                {
                  "name": "creditorFee",
                  "type": "uint256"
                },
                {
                  "name": "relayer",
                  "type": "address"
                },
                {
                  "name": "relayerFee",
                  "type": "uint256"
                },
                {
                  "name": "underwriter",
                  "type": "address"
                },
                {
                  "name": "underwriterFee",
                  "type": "uint256"
                },
                {
                  "name": "underwriterRiskRating",
                  "type": "uint256"
                },
                {
                  "name": "termsContract",
                  "type": "address"
                },
                {
                  "name": "termsContractParameters",
                  "type": "bytes32"
                },
                {
                  "name": "expirationTimestampInSec",
                  "type": "uint256"
                },
                {
                  "name": "salt",
                  "type": "uint256"
                },
                {
                  "components": [
                    {
                      "name": "v",
                      "type": "uint8"
                    },
                    {
                      "name": "r",
                      "type": "bytes32"
                    },
                    {
                      "name": "s",
                      "type": "bytes32"
                    }
                  ],
                  "name": "debtorSignature",
                  "type": "tuple"
                },
                {
                  "components": [
                    {
                      "name": "v",
                      "type": "uint8"
                    },
                    {
                      "name": "r",
                      "type": "bytes32"
                    },
                    {
                      "name": "s",
                      "type": "bytes32"
                    }
                  ],
                  "name": "creditorSignature",
                  "type": "tuple"
                },
                {
                  "components": [
                    {
                      "name": "v",
                      "type": "uint8"
                    },
                    {
                      "name": "r",
                      "type": "bytes32"
                    },
                    {
                      "name": "s",
                      "type": "bytes32"
                    }
                  ],
                  "name": "underwriterSignature",
                  "type": "tuple"
                }
              ],
              "name": "order",
              "type": "tuple"
            }
          ],
          "name": "params",
          "type": "tuple"
        },
        {
          "name": "commitmentHash",
          "type": "bytes32"
        }
      ],
      "name": "evaluateConsent",
      "outputs": [
        {
          "name": "",
          "type": "bool"
        }
      ],
      "payable": false,
      "stateMutability": "view",
      "type": "function"
    },
    {
      "constant": true,
      "inputs": [
        {
          "components": [
            {
              "name": "creditor",
              "type": "address"
            },
            {
              "components": [
                {
                  "components": [
                    {
                      "name": "maxLTV",
                      "type": "uint256"
                    },
                    {
                      "name": "priceFeedOperator",
                      "type": "address"
                    }
                  ],
                  "name": "values",
                  "type": "tuple"
                },
                {
                  "components": [
                    {
                      "name": "v",
                      "type": "uint8"
                    },
                    {
                      "name": "r",
                      "type": "bytes32"
                    },
                    {
                      "name": "s",
                      "type": "bytes32"
                    }
                  ],
                  "name": "signature",
                  "type": "tuple"
                }
              ],
              "name": "creditorCommitment",
              "type": "tuple"
            },
            {
              "components": [
                {
                  "name": "value",
                  "type": "uint256"
                },
                {
                  "name": "timestamp",
                  "type": "uint256"
                },
                {
                  "name": "tokenAddress",
                  "type": "address"
                },
                {
                  "components": [
                    {
                      "name": "v",
                      "type": "uint8"
                    },
                    {
                      "name": "r",
                      "type": "bytes32"
                    },
                    {
                      "name": "s",
                      "type": "bytes32"
                    }
                  ],
                  "name": "signature",
                  "type": "tuple"
                }
              ],
              "name": "principalPrice",
              "type": "tuple"
            },
            {
              "components": [
                {
                  "name": "value",
                  "type": "uint256"
                },
                {
                  "name": "timestamp",
                  "type": "uint256"
                },
                {
                  "name": "tokenAddress",
                  "type": "address"
                },
                {
                  "components": [
                    {
                      "name": "v",
                      "type": "uint8"
                    },
                    {
                      "name": "r",
                      "type": "bytes32"
                    },
                    {
                      "name": "s",
                      "type": "bytes32"
                    }
                  ],
                  "name": "signature",
                  "type": "tuple"
                }
              ],
              "name": "collateralPrice",
              "type": "tuple"
            },
            {
              "components": [
                {
                  "name": "kernelVersion",
                  "type": "address"
                },
                {
                  "name": "issuanceVersion",
                  "type": "address"
                },
                {
                  "name": "principalAmount",
                  "type": "uint256"
                },
                {
                  "name": "principalToken",
                  "type": "address"
                },
                {
                  "name": "collateralAmount",
                  "type": "uint256"
                },
                {
                  "name": "collateralToken",
                  "type": "address"
                },
                {
                  "name": "debtor",
                  "type": "address"
                },
                {
                  "name": "debtorFee",
                  "type": "uint256"
                },
                {
                  "name": "creditor",
                  "type": "address"
                },
                {
                  "name": "creditorFee",
                  "type": "uint256"
                },
                {
                  "name": "relayer",
                  "type": "address"
                },
                {
                  "name": "relayerFee",
                  "type": "uint256"
                },
                {
                  "name": "underwriter",
                  "type": "address"
                },
                {
                  "name": "underwriterFee",
                  "type": "uint256"
                },
                {
                  "name": "underwriterRiskRating",
                  "type": "uint256"
                },
                {
                  "name": "termsContract",
                  "type": "address"
                },
                {
                  "name": "termsContractParameters",
                  "type": "bytes32"
                },
                {
                  "name": "expirationTimestampInSec",
                  "type": "uint256"
                },
                {
                  "name": "salt",
                  "type": "uint256"
                },
                {
                  "components": [
                    {
                      "name": "v",
                      "type": "uint8"
                    },
                    {
                      "name": "r",
                      "type": "bytes32"
                    },
                    {
                      "name": "s",
                      "type": "bytes32"
                    }
                  ],
                  "name": "debtorSignature",
                  "type": "tuple"
                },
                {
                  "components": [
                    {
                      "name": "v",
                      "type": "uint8"
                    },
                    {
                      "name": "r",
                      "type": "bytes32"
                    },
                    {
                      "name": "s",
                      "type": "bytes32"
                    }
                  ],
                  "name": "creditorSignature",
                  "type": "tuple"
                },
                {
                  "components": [
                    {
                      "name": "v",
                      "type": "uint8"
                    },
                    {
                      "name": "r",
                      "type": "bytes32"
                    },
                    {
                      "name": "s",
                      "type": "bytes32"
                    }
                  ],
                  "name": "underwriterSignature",
                  "type": "tuple"
                }
              ],
              "name": "order",
              "type": "tuple"
            }
          ],
          "name": "params",
          "type": "tuple"
        }
      ],
      "name": "evaluateDecision",
      "outputs": [
        {
          "name": "_success",
          "type": "bool"
        }
      ],
      "payable": false,
      "stateMutability": "view",
      "type": "function"
    },
    {
      "constant": true,
      "inputs": [
        {
          "components": [
            {
              "name": "maxLTV",
              "type": "uint256"
            },
            {
              "name": "priceFeedOperator",
              "type": "address"
            }
          ],
          "name": "commitmentValues",
          "type": "tuple"
        },
        {
          "components": [
            {
              "name": "kernelVersion",
              "type": "address"
            },
            {
              "name": "issuanceVersion",
              "type": "address"
            },
            {
              "name": "principalAmount",
              "type": "uint256"
            },
            {
              "name": "principalToken",
              "type": "address"
            },
            {
              "name": "collateralAmount",
              "type": "uint256"
            },
            {
              "name": "collateralToken",
              "type": "address"
            },
            {
              "name": "debtor",
              "type": "address"
            },
            {
              "name": "debtorFee",
              "type": "uint256"
            },
            {
              "name": "creditor",
              "type": "address"
            },
            {
              "name": "creditorFee",
              "type": "uint256"
            },
            {
              "name": "relayer",
              "type": "address"
            },
            {
              "name": "relayerFee",
              "type": "uint256"
            },
            {
              "name": "underwriter",
              "type": "address"
            },
            {
              "name": "underwriterFee",
              "type": "uint256"
            },
            {
              "name": "underwriterRiskRating",
              "type": "uint256"
            },
            {
              "name": "termsContract",
              "type": "address"
            },
            {
              "name": "termsContractParameters",
              "type": "bytes32"
            },
            {
              "name": "expirationTimestampInSec",
              "type": "uint256"
            },
            {
              "name": "salt",
              "type": "uint256"
            },
            {
              "components": [
                {
                  "name": "v",
                  "type": "uint8"
                },
                {
                  "name": "r",
                  "type": "bytes32"
                },
                {
                  "name": "s",
                  "type": "bytes32"
                }
              ],
              "name": "debtorSignature",
              "type": "tuple"
            },
            {
              "components": [
                {
                  "name": "v",
                  "type": "uint8"
                },
                {
                  "name": "r",
                  "type": "bytes32"
                },
                {
                  "name": "s",
                  "type": "bytes32"
                }
              ],
              "name": "creditorSignature",
              "type": "tuple"
            },
            {
              "components": [
                {
                  "name": "v",
                  "type": "uint8"
                },
                {
                  "name": "r",
                  "type": "bytes32"
                },
                {
                  "name": "s",
                  "type": "bytes32"
                }
              ],
              "name": "underwriterSignature",
              "type": "tuple"
            }
          ],
          "name": "order",
          "type": "tuple"
        }
      ],
      "name": "hashCreditorCommitmentForOrder",
      "outputs": [
        {
          "name": "",
          "type": "bytes32"
        }
      ],
      "payable": false,
      "stateMutability": "view",
      "type": "function"
    },
    {
      "constant": true,
      "inputs": [
        {
          "name": "termsContract",
          "type": "address"
        },
        {
          "name": "termsContractParameters",
          "type": "bytes32"
        }
      ],
      "name": "getTermsContractCommitmentHash",
      "outputs": [
        {
          "name": "",
          "type": "bytes32"
        }
      ],
      "payable": false,
      "stateMutability": "view",
      "type": "function"
    },
    {
      "constant": true,
      "inputs": [
        {
          "name": "termsContract",
          "type": "address"
        },
        {
          "name": "termsContractParameters",
          "type": "bytes32"
        }
      ],
      "name": "unpackSimpleInterestParameters",
      "outputs": [
        {
          "components": [
            {
              "name": "principalTokenIndex",
              "type": "uint256"
            },
            {
              "name": "principalAmount",
              "type": "uint256"
            },
            {
              "name": "interestRate",
              "type": "uint256"
            },
            {
              "name": "amortizationUnitType",
              "type": "uint256"
            },
            {
              "name": "termLengthInAmortizationUnits",
              "type": "uint256"
            }
          ],
          "name": "",
          "type": "tuple"
        }
      ],
      "payable": false,
      "stateMutability": "pure",
      "type": "function"
    },
    {
      "constant": true,
      "inputs": [
        {
          "name": "termsContractParameters",
          "type": "bytes32"
        }
      ],
      "name": "unpackCollateralParameters",
      "outputs": [
        {
          "components": [
            {
              "name": "collateralTokenIndex",
              "type": "uint256"
            },
            {
              "name": "collateralAmount",
              "type": "uint256"
            },
            {
              "name": "gracePeriodInDays",
              "type": "uint256"
            }
          ],
          "name": "",
          "type": "tuple"
        }
      ],
      "payable": false,
      "stateMutability": "view",
      "type": "function"
    }
  ],
  "bytecode": "0x60806040523480156200001157600080fd5b5060405160208062002333833981018060405262000033919081019062000090565b806000806101000a81548173ffffffffffffffffffffffffffffffffffffffff021916908373ffffffffffffffffffffffffffffffffffffffff16021790555050620000dc565b6000620000888251620000bc565b905092915050565b600060208284031215620000a357600080fd5b6000620000b3848285016200007a565b91505092915050565b600073ffffffffffffffffffffffffffffffffffffffff82169050919050565b61224780620000ec6000396000f3006080604052600436106100af576000357c0100000000000000000000000000000000000000000000000000000000900463ffffffff1680630257dbc9146100b457806320113da1146100f1578063433256f21461012e578063578911ac1461016b5780637c3ea9fc146101a8578063aaf5eb68146101d3578063abf410e5146101fe578063cf99685c14610229578063d02fe46914610266578063e301885c146102a3578063e7083d24146102e5575b600080fd5b3480156100c057600080fd5b506100db60048036036100d69190810190611a4a565b610322565b6040516100e89190611fb8565b60405180910390f35b3480156100fd57600080fd5b5061011860048036036101139190810190611bb8565b6103b7565b6040516101259190611f9d565b60405180910390f35b34801561013a57600080fd5b5061015560048036036101509190810190611b8e565b610407565b6040516101629190611f9d565b60405180910390f35b34801561017757600080fd5b50610192600480360361018d9190810190611a86565b6104ed565b60405161019f9190611f9d565b60405180910390f35b3480156101b457600080fd5b506101bd61062f565b6040516101ca9190612069565b60405180910390f35b3480156101df57600080fd5b506101e8610635565b6040516101f59190612069565b60405180910390f35b34801561020a57600080fd5b5061021361063a565b6040516102209190612018565b60405180910390f35b34801561023557600080fd5b50610250600480360361024b9190810190611ad5565b61065f565b60405161025d9190612033565b60405180910390f35b34801561027257600080fd5b5061028d60048036036102889190810190611b27565b610800565b60405161029a9190611fb8565b60405180910390f35b3480156102af57600080fd5b506102ca60048036036102c59190810190611b64565b610a2b565b6040516102dc96959493929190611f37565b60405180910390f35b3480156102f157600080fd5b5061030c60048036036103079190810190611a4a565b610d26565b604051610319919061204e565b60405180910390f35b600061032c611046565b610334611076565b61033e8585610d26565b91506103498461065f565b905081600001518260200151836040015184606001518560800151856000015186604001516040518088815260200187815260200186815260200185815260200184815260200183815260200182815260200197505050505050505060405180910390209250505092915050565b60006103d08360000151838560200151602001516104ed565b15156103df5760009050610401565b6103fe8360200151600001516020015184604001518560600151610e21565b90505b92915050565b6000610411611098565b610419611098565b60006104236110dd565b600080600088604001519650886060015195508860200151600001516000015194508860800151935085600001519250610461846102200151610f6f565b1561046f57600097506104e1565b6000846080015114806104825750600083145b1561049057600097506104e1565b6104ac8760000151876000015186604001518760800151610f7b565b91506104d86104c660026004610fdf90919063ffffffff16565b600a0a86610ff890919063ffffffff16565b90508082111597505b50505050505050919050565b6000806040805190810160405280601c81526020017f19457468657265756d205369676e6564204d6573736167653a0a333200000000815250846040518083805190602001908083835b60208310151561055c5780518252602082019150602081019050602083039250610537565b6001836020036101000a038019825116818451168082178552505050505050905001826000191660001916815260200192505050604051809103902090508473ffffffffffffffffffffffffffffffffffffffff16600182856000015186602001518760400151604051600081526020016040526040516105e09493929190611fd3565b60206040516020810390808403906000865af1158015610604573d6000803e3d6000fd5b5050506020604051035173ffffffffffffffffffffffffffffffffffffffff16149150509392505050565b61025881565b600481565b6000809054906101000a900473ffffffffffffffffffffffffffffffffffffffff1681565b610667611076565b6000806000806000809054906101000a900473ffffffffffffffffffffffffffffffffffffffff1673ffffffffffffffffffffffffffffffffffffffff1663869f05116040518163ffffffff167c0100000000000000000000000000000000000000000000000000000000028152600401602060405180830381600087803b1580156106f257600080fd5b505af1158015610706573d6000803e3d6000fd5b505050506040513d601f19601f8201168201806040525061072a9190810190611afe565b93508373ffffffffffffffffffffffffffffffffffffffff1663ca062647876040518263ffffffff167c01000000000000000000000000000000000000000000000000000000000281526004016107819190611fb8565b606060405180830381600087803b15801561079b57600080fd5b505af11580156107af573d6000803e3d6000fd5b505050506040513d601f19601f820116820180604052506107d39190810190611bf6565b92509250925060606040519081016040528084815260200183815260200182815250945050505050919050565b600080610817836101e00151846102000151610322565b905082610100015183600001518460200151856101e00151866060015187610240015188604001518961012001518a61022001518c600001518d602001518b604051808d73ffffffffffffffffffffffffffffffffffffffff1673ffffffffffffffffffffffffffffffffffffffff166c010000000000000000000000000281526014018c73ffffffffffffffffffffffffffffffffffffffff1673ffffffffffffffffffffffffffffffffffffffff166c010000000000000000000000000281526014018b73ffffffffffffffffffffffffffffffffffffffff1673ffffffffffffffffffffffffffffffffffffffff166c010000000000000000000000000281526014018a73ffffffffffffffffffffffffffffffffffffffff1673ffffffffffffffffffffffffffffffffffffffff166c010000000000000000000000000281526014018973ffffffffffffffffffffffffffffffffffffffff1673ffffffffffffffffffffffffffffffffffffffff166c010000000000000000000000000281526014018881526020018781526020018681526020018581526020018481526020018373ffffffffffffffffffffffffffffffffffffffff1673ffffffffffffffffffffffffffffffffffffffff166c0100000000000000000000000002815260140182600019166000191681526020019c50505050505050505050505050604051809103902091505092915050565b610a33611260565b610a3b611283565b610a436112a7565b610a4b6112ca565b610a536112ed565b610a5b6112ed565b60c060405190810160405280886000015173ffffffffffffffffffffffffffffffffffffffff1673ffffffffffffffffffffffffffffffffffffffff1681526020018860c0015173ffffffffffffffffffffffffffffffffffffffff1673ffffffffffffffffffffffffffffffffffffffff16815260200188610180015173ffffffffffffffffffffffffffffffffffffffff1673ffffffffffffffffffffffffffffffffffffffff168152602001886101e0015173ffffffffffffffffffffffffffffffffffffffff1673ffffffffffffffffffffffffffffffffffffffff168152602001886060015173ffffffffffffffffffffffffffffffffffffffff1673ffffffffffffffffffffffffffffffffffffffff16815260200188610140015173ffffffffffffffffffffffffffffffffffffffff1673ffffffffffffffffffffffffffffffffffffffff1681525061010060405190810160405280896101c001518152602001896102400151815260200189604001518152602001896101a001518152602001896101600151815260200189610120015181526020018960e0015181526020018961022001518152506020604051908101604052808a610200015160001916600019168152506060604051908101604052808b61026001516000015160ff1660ff1681526020018b61028001516000015160ff1660ff1681526020018b6102a001516000015160ff1660ff168152506060604051908101604052808c610260015160200151600019166000191681526020018c610280015160200151600019166000191681526020018c6102a001516020015160001916600019168152506060604051908101604052808d610260015160400151600019166000191681526020018d610280015160400151600019166000191681526020018d6102a0015160400151600019166000191681525095509550955095509550955091939550919395565b610d2e611046565b6000806000806000808895508573ffffffffffffffffffffffffffffffffffffffff1663ed8907d7896040518263ffffffff167c0100000000000000000000000000000000000000000000000000000000028152600401610d8f9190611fb8565b60a060405180830381600087803b158015610da957600080fd5b505af1158015610dbd573d6000803e3d6000fd5b505050506040513d601f19601f82011682018060405250610de19190810190611c45565b9450945094509450945060a06040519081016040528086815260200185815260200184815260200183815260200182815250965050505050505092915050565b6000806000806000610258420393508387602001511080610e455750838660200151105b15610e535760009450610f64565b866000015187604001518860200151604051808481526020018373ffffffffffffffffffffffffffffffffffffffff1673ffffffffffffffffffffffffffffffffffffffff166c01000000000000000000000000028152601401828152602001935050505060405180910390209250856000015186604001518760200151604051808481526020018373ffffffffffffffffffffffffffffffffffffffff1673ffffffffffffffffffffffffffffffffffffffff166c01000000000000000000000000028152601401828152602001935050505060405180910390209150610f40888489606001516104ed565b9050801515610f525760009450610f64565b610f61888388606001516104ed565b94505b505050509392505050565b60004282109050919050565b6000806000610fa96004600a0a610f9b878a610ff890919063ffffffff16565b610ff890919063ffffffff16565b9150610fbe8487610ff890919063ffffffff16565b9050610fd3818361103090919063ffffffff16565b92505050949350505050565b6000828211151515610fed57fe5b818303905092915050565b60008083141561100b576000905061102a565b818302905081838281151561101c57fe5b0414151561102657fe5b8090505b92915050565b6000818381151561103d57fe5b04905092915050565b60a06040519081016040528060008152602001600081526020016000815260200160008152602001600081525090565b6060604051908101604052806000815260200160008152602001600081525090565b60c0604051908101604052806000815260200160008152602001600073ffffffffffffffffffffffffffffffffffffffff1681526020016110d7611310565b81525090565b61038060405190810160405280600073ffffffffffffffffffffffffffffffffffffffff168152602001600073ffffffffffffffffffffffffffffffffffffffff16815260200160008152602001600073ffffffffffffffffffffffffffffffffffffffff16815260200160008152602001600073ffffffffffffffffffffffffffffffffffffffff168152602001600073ffffffffffffffffffffffffffffffffffffffff16815260200160008152602001600073ffffffffffffffffffffffffffffffffffffffff16815260200160008152602001600073ffffffffffffffffffffffffffffffffffffffff16815260200160008152602001600073ffffffffffffffffffffffffffffffffffffffff1681526020016000815260200160008152602001600073ffffffffffffffffffffffffffffffffffffffff168152602001600080191681526020016000815260200160008152602001611240611310565b815260200161124d611310565b815260200161125a611310565b81525090565b60c060405190810160405280600690602082028038833980820191505090505090565b61010060405190810160405280600890602082028038833980820191505090505090565b602060405190810160405280600190602082028038833980820191505090505090565b606060405190810160405280600390602082028038833980820191505090505090565b606060405190810160405280600390602082028038833980820191505090505090565b606060405190810160405280600060ff16815260200160008019168152602001600080191681525090565b600061134782356121a8565b905092915050565b600061135b82356121c8565b905092915050565b600061136f82516121d2565b905092915050565b60006040828403121561138957600080fd5b6113936040612084565b905060006113a384828501611a0e565b60008301525060206113b78482850161133b565b60208301525092915050565b6000604082840312156113d557600080fd5b6113df6040612084565b905060006113ef84828501611a0e565b60008301525060206114038482850161133b565b60208301525092915050565b600060a0828403121561142157600080fd5b61142b6040612084565b9050600061143b84828501611377565b600083015250604061144f8482850161184f565b60208301525092915050565b6000610380828403121561146e57600080fd5b6114796102c0612084565b905060006114898482850161133b565b600083015250602061149d8482850161133b565b60208301525060406114b184828501611a0e565b60408301525060606114c58482850161133b565b60608301525060806114d984828501611a0e565b60808301525060a06114ed8482850161133b565b60a08301525060c06115018482850161133b565b60c08301525060e061151584828501611a0e565b60e08301525061010061152a8482850161133b565b6101008301525061012061154084828501611a0e565b610120830152506101406115568482850161133b565b6101408301525061016061156c84828501611a0e565b610160830152506101806115828482850161133b565b610180830152506101a061159884828501611a0e565b6101a0830152506101c06115ae84828501611a0e565b6101c0830152506101e06115c48482850161133b565b6101e0830152506102006115da8482850161134f565b610200830152506102206115f084828501611a0e565b6102208301525061024061160684828501611a0e565b6102408301525061026061161c8482850161184f565b610260830152506102c06116328482850161184f565b610280830152506103206116488482850161184f565b6102a08301525092915050565b6000610380828403121561166857600080fd5b6116736102c0612084565b905060006116838482850161133b565b60008301525060206116978482850161133b565b60208301525060406116ab84828501611a0e565b60408301525060606116bf8482850161133b565b60608301525060806116d384828501611a0e565b60808301525060a06116e78482850161133b565b60a08301525060c06116fb8482850161133b565b60c08301525060e061170f84828501611a0e565b60e0830152506101006117248482850161133b565b6101008301525061012061173a84828501611a0e565b610120830152506101406117508482850161133b565b6101408301525061016061176684828501611a0e565b6101608301525061018061177c8482850161133b565b610180830152506101a061179284828501611a0e565b6101a0830152506101c06117a884828501611a0e565b6101c0830152506101e06117be8482850161133b565b6101e0830152506102006117d48482850161134f565b610200830152506102206117ea84828501611a0e565b6102208301525061024061180084828501611a0e565b610240830152506102606118168482850161184f565b610260830152506102c061182c8482850161184f565b610280830152506103206118428482850161184f565b6102a08301525092915050565b60006060828403121561186157600080fd5b61186b6060612084565b9050600061187b84828501611a36565b600083015250602061188f8482850161134f565b60208301525060406118a38482850161134f565b60408301525092915050565b6000606082840312156118c157600080fd5b6118cb6060612084565b905060006118db84828501611a36565b60008301525060206118ef8482850161134f565b60208301525060406119038482850161134f565b60408301525092915050565b60006105c0828403121561192257600080fd5b61192c60a0612084565b9050600061193c8482850161133b565b60008301525060206119508482850161140f565b60208301525060c06119648482850161199a565b6040830152506101806119798482850161199a565b60608301525061024061198e8482850161145b565b60808301525092915050565b600060c082840312156119ac57600080fd5b6119b66080612084565b905060006119c684828501611a0e565b60008301525060206119da84828501611a0e565b60208301525060406119ee8482850161133b565b6040830152506060611a028482850161184f565b60608301525092915050565b6000611a1a82356121e4565b905092915050565b6000611a2e82516121e4565b905092915050565b6000611a4282356121ee565b905092915050565b60008060408385031215611a5d57600080fd5b6000611a6b8582860161133b565b9250506020611a7c8582860161134f565b9150509250929050565b600080600060a08486031215611a9b57600080fd5b6000611aa98682870161133b565b9350506020611aba8682870161134f565b9250506040611acb868287016118af565b9150509250925092565b600060208284031215611ae757600080fd5b6000611af58482850161134f565b91505092915050565b600060208284031215611b1057600080fd5b6000611b1e84828501611363565b91505092915050565b6000806103c08385031215611b3b57600080fd5b6000611b49858286016113c3565b9250506040611b5a85828601611655565b9150509250929050565b60006103808284031215611b7757600080fd5b6000611b8584828501611655565b91505092915050565b60006105c08284031215611ba157600080fd5b6000611baf8482850161190f565b91505092915050565b6000806105e08385031215611bcc57600080fd5b6000611bda8582860161190f565b9250506105c0611bec8582860161134f565b9150509250929050565b600080600060608486031215611c0b57600080fd5b6000611c1986828701611a22565b9350506020611c2a86828701611a22565b9250506040611c3b86828701611a22565b9150509250925092565b600080600080600060a08688031215611c5d57600080fd5b6000611c6b88828901611a22565b9550506020611c7c88828901611a22565b9450506040611c8d88828901611a22565b9350506060611c9e88828901611a22565b9250506080611caf88828901611a22565b9150509295509295909350565b611cc58161215b565b82525050565b611cd4816120e3565b611cdd826120b1565b60005b82811015611d0f57611cf3858351611cbc565b611cfc8261211a565b9150602085019450600181019050611ce0565b5050505050565b611d1f816120ee565b611d28826120bb565b60005b82811015611d5a57611d3e858351611e51565b611d4782612127565b9150602085019450600181019050611d2b565b5050505050565b611d6a816120f9565b611d73826120c5565b60005b82811015611da557611d89858351611e51565b611d9282612134565b9150602085019450600181019050611d76565b5050505050565b611db581612104565b611dbe826120cf565b60005b82811015611df057611dd4858351611f19565b611ddd82612141565b9150602085019450600181019050611dc1565b5050505050565b611e008161210f565b611e09826120d9565b60005b82811015611e3b57611e1f858351611f28565b611e288261214e565b9150602085019450600181019050611e0c565b5050505050565b611e4b8161217b565b82525050565b611e5a81612187565b82525050565b611e69816121fb565b82525050565b606082016000820151611e856000850182611f19565b506020820151611e986020850182611f19565b506040820151611eab6040850182611f19565b50505050565b60a082016000820151611ec76000850182611f19565b506020820151611eda6020850182611f19565b506040820151611eed6040850182611f19565b506060820151611f006060850182611f19565b506080820151611f136080850182611f19565b50505050565b611f2281612191565b82525050565b611f318161219b565b82525050565b600061030082019050611f4d6000830189611ccb565b611f5a60c0830188611dac565b611f686101c0830187611d16565b611f766101e0830186611df7565b611f84610240830185611d61565b611f926102a0830184611d61565b979650505050505050565b6000602082019050611fb26000830184611e42565b92915050565b6000602082019050611fcd6000830184611e51565b92915050565b6000608082019050611fe86000830187611e51565b611ff56020830186611f28565b6120026040830185611e51565b61200f6060830184611e51565b95945050505050565b600060208201905061202d6000830184611e60565b92915050565b60006060820190506120486000830184611e6f565b92915050565b600060a0820190506120636000830184611eb1565b92915050565b600060208201905061207e6000830184611f19565b92915050565b6000604051905081810181811067ffffffffffffffff821117156120a757600080fd5b8060405250919050565b6000819050919050565b6000819050919050565b6000819050919050565b6000819050919050565b6000819050919050565b600060069050919050565b600060019050919050565b600060039050919050565b600060089050919050565b600060039050919050565b6000602082019050919050565b6000602082019050919050565b6000602082019050919050565b6000602082019050919050565b6000602082019050919050565b600073ffffffffffffffffffffffffffffffffffffffff82169050919050565b60008115159050919050565b6000819050919050565b6000819050919050565b600060ff82169050919050565b600073ffffffffffffffffffffffffffffffffffffffff82169050919050565b6000819050919050565b60006121dd8261215b565b9050919050565b6000819050919050565b600060ff82169050919050565b60006122068261215b565b90509190505600a265627a7a72305820a3af961c456fe06877bc9831f9ff1aad8f8100749046e6a1d2f42751ccead5016c6578706572696d656e74616cf50037",
  "source": "pragma solidity ^0.4.24;\npragma experimental ABIEncoderV2;\n\n// External dependencies\nimport \"zeppelin-solidity/contracts/math/SafeMath.sol\";\n\n// Libraries\nimport \"./libraries/LTVDecisionEngineTypes.sol\";\nimport \"../../shared/libraries/SignaturesLibrary.sol\";\nimport \"../../shared/libraries/OrderLibrary.sol\";\n\n// Interfaces\nimport \"../../shared/interfaces/ContractRegistryInterface.sol\";\nimport \"../../shared/interfaces/CollateralizerInterface.sol\";\nimport \"../../shared/interfaces/SimpleInterestTermsContractInterface.sol\";\n\ncontract LTVDecisionEngine is LTVDecisionEngineTypes, SignaturesLibrary, OrderLibrary\n{\n\tusing SafeMath for uint;\n\n\tuint public constant PRECISION = 4;\n\n\tuint public constant MAX_PRICE_TTL_IN_SECONDS = 600;\n\n\tContractRegistryInterface public contractRegistry;\n\n\tfunction LTVDecisionEngine(address _contractRegistry) public {\n        contractRegistry = ContractRegistryInterface(_contractRegistry);\n    }\n\n\tfunction evaluateConsent(Params params, bytes32 commitmentHash)\n\t\tpublic view returns (bool)\n\t{\n\t\t// Checks that the given creditor values were signed by the creditor.\n\t\tif (!isValidSignature(\n\t\t\tparams.creditor,\n\t\t\tcommitmentHash,\n\t\t\tparams.creditorCommitment.signature\n\t\t)) {\n\t\t\t// We return early if the creditor values were not signed correctly.\n\t\t\treturn false;\n\t\t}\n\n\t\t// Checks that the given price feed data was signed by the price feed operator.\n\t\treturn (\n\t\t\tverifyPrices(\n\t\t\t\tparams.creditorCommitment.values.priceFeedOperator,\n\t\t\t\tparams.principalPrice,\n\t\t\t\tparams.collateralPrice\n\t\t\t)\n\t\t);\n\t}\n\n\t// Returns true if the creditor-initiated order has not expired, and the LTV is below the max.\n\tfunction evaluateDecision(Params memory params)\n\t\tpublic view returns (bool _success)\n\t{\n\t\tLTVDecisionEngineTypes.Price memory principalTokenPrice = params.principalPrice;\n\t\tLTVDecisionEngineTypes.Price memory collateralTokenPrice = params.collateralPrice;\n\n\t\tuint maxLTV = params.creditorCommitment.values.maxLTV;\n\t\tOrderLibrary.DebtOrder memory order = params.order;\n\n\t\tuint collateralValue = collateralTokenPrice.value;\n\n\t\tif (isExpired(order.expirationTimestampInSec)) {\n\t\t\treturn false;\n\t\t}\n\n\t\tif (order.collateralAmount == 0 || collateralValue == 0) {\n\t\t\treturn false;\n\t\t}\n\n\t\tuint ltv = computeLTV(\n\t\t\tprincipalTokenPrice.value,\n\t\t\tcollateralTokenPrice.value,\n\t\t\torder.principalAmount,\n\t\t\torder.collateralAmount\n\t\t);\n\n\t\tuint maxLTVWithPrecision = maxLTV.mul(10 ** (PRECISION.sub(2)));\n\n\t\treturn ltv <= maxLTVWithPrecision;\n\t}\n\n\tfunction hashCreditorCommitmentForOrder(CommitmentValues commitmentValues, OrderLibrary.DebtOrder order)\n\tpublic view returns (bytes32)\n\t{\n\t\tbytes32 termsContractCommitmentHash =\n\t\t\tgetTermsContractCommitmentHash(order.termsContract, order.termsContractParameters);\n\n\t\treturn keccak256(\n\t\t\t// order values\n\t\t\torder.creditor,\n\t\t\torder.kernelVersion,\n\t\t\torder.issuanceVersion,\n\t\t\torder.termsContract,\n\t\t\torder.principalToken,\n\t\t\torder.salt,\n\t\t\torder.principalAmount,\n\t\t\torder.creditorFee,\n\t\t\torder.expirationTimestampInSec,\n\t\t\t// commitment values\n\t\t\tcommitmentValues.maxLTV,\n\t\t\tcommitmentValues.priceFeedOperator,\n\t\t\t// hashed terms contract commitments\n\t\t\ttermsContractCommitmentHash\n\t\t);\n\t}\n\n\tfunction getTermsContractCommitmentHash(\n\t\taddress termsContract,\n\t\tbytes32 termsContractParameters\n\t) public view returns (bytes32) {\n\t\tSimpleInterestParameters memory simpleInterestParameters =\n\t\t\tunpackSimpleInterestParameters(termsContract, termsContractParameters);\n\n\t\tCollateralParameters memory collateralParameters =\n\t\t\tunpackCollateralParameters(termsContractParameters);\n\n\t\treturn keccak256(\n\t\t\t// unpacked termsContractParameters\n\t\t\tsimpleInterestParameters.principalTokenIndex,\n\t\t\tsimpleInterestParameters.principalAmount,\n\t\t\tsimpleInterestParameters.interestRate,\n\t\t\tsimpleInterestParameters.amortizationUnitType,\n\t\t\tsimpleInterestParameters.termLengthInAmortizationUnits,\n\t\t\tcollateralParameters.collateralTokenIndex,\n\t\t\tcollateralParameters.gracePeriodInDays\n\t\t);\n\t}\n\n\tfunction unpackSimpleInterestParameters(\n\t\taddress termsContract,\n\t\tbytes32 termsContractParameters\n\t)\n\t\tpublic pure returns (SimpleInterestParameters)\n\t{\n\t\t// use simple interest terms contract interface to unpack simple interest terms\n\t\tSimpleInterestTermsContractInterface simpleInterestTermsContract = SimpleInterestTermsContractInterface(termsContract);\n\n\t\tvar (principalTokenIndex, principalAmount, interestRate, amortizationUnitType, termLengthInAmortizationUnits) =\n\t\t\tsimpleInterestTermsContract.unpackParametersFromBytes(termsContractParameters);\n\n\t\treturn SimpleInterestParameters({\n\t\t\tprincipalTokenIndex: principalTokenIndex,\n\t\t\tprincipalAmount: principalAmount,\n\t\t\tinterestRate: interestRate,\n\t\t\tamortizationUnitType: amortizationUnitType,\n\t\t\ttermLengthInAmortizationUnits: termLengthInAmortizationUnits\n\t\t});\n\t}\n\n\tfunction unpackCollateralParameters(\n\t\tbytes32 termsContractParameters\n\t)\n\t\tpublic view returns (CollateralParameters)\n\t{\n\t\tCollateralizerInterface collateralizer = CollateralizerInterface(contractRegistry.collateralizer());\n\n\t\tvar (collateralTokenIndex, collateralAmount, gracePeriodInDays) =\n\t\t\tcollateralizer.unpackCollateralParametersFromBytes(termsContractParameters);\n\n\t\treturn CollateralParameters({\n\t\t\tcollateralTokenIndex: collateralTokenIndex,\n\t\t\tcollateralAmount: collateralAmount,\n\t\t\tgracePeriodInDays: gracePeriodInDays\n\t\t});\n\t}\n\n\tfunction verifyPrices(\n\t\taddress priceFeedOperator,\n\t\tLTVDecisionEngineTypes.Price principalPrice,\n\t\tLTVDecisionEngineTypes.Price collateralPrice\n\t)\n\t\tinternal view returns (bool)\n\t{\n\t\tuint minPriceTimestamp = block.timestamp - MAX_PRICE_TTL_IN_SECONDS;\n\n\t\tif (principalPrice.timestamp < minPriceTimestamp ||\n\t\t\tcollateralPrice.timestamp < minPriceTimestamp) {\n\t\t\treturn false;\n\t\t}\n\n\t\tbytes32 principalPriceHash = keccak256(\n\t\t\tprincipalPrice.value,\n\t\t\tprincipalPrice.tokenAddress,\n\t\t\tprincipalPrice.timestamp\n\t\t);\n\n\t\tbytes32 collateralPriceHash = keccak256(\n\t\t\tcollateralPrice.value,\n\t\t\tcollateralPrice.tokenAddress,\n\t\t\tcollateralPrice.timestamp\n\t\t);\n\n\t\tbool principalPriceValid = isValidSignature(\n\t\t\tpriceFeedOperator,\n\t\t\tprincipalPriceHash,\n\t\t\tprincipalPrice.signature\n\t\t);\n\n\t\t// We return early if the principal price information was not signed correctly.\n\t\tif (!principalPriceValid) {\n\t\t\treturn false;\n\t\t}\n\n\t\treturn isValidSignature(\n\t\t\tpriceFeedOperator,\n\t\t\tcollateralPriceHash,\n\t\t\tcollateralPrice.signature\n\t\t);\n\t}\n\n\tfunction computeLTV(\n\t\tuint principalTokenPrice,\n\t\tuint collateralTokenPrice,\n\t\tuint principalAmount,\n\t\tuint collateralAmount\n\t)\n\t\tinternal constant returns (uint)\n\t{\n\t\tuint principalValue = principalTokenPrice.mul(principalAmount).mul(10 ** PRECISION);\n\t\tuint collateralValue = collateralTokenPrice.mul(collateralAmount);\n\n\t\treturn principalValue.div(collateralValue);\n\t}\n\n\tfunction isExpired(uint expirationTimestampInSec)\n\t\tinternal view returns (bool expired)\n\t{\n\t\treturn expirationTimestampInSec < block.timestamp;\n\t}\n}\n",
  "sourcePath": "/Users/chrismin/Documents/dev/dharma/experimental/contracts/src/CreditorDrivenLoans/DecisionEngines/LTVDecisionEngine.sol",
  "compiler": {
    "name": "solc",
    "version": "0.4.24+commit.e67f0147.Emscripten.clang"
  },
  "schemaVersion": "2.0.1",
  "updatedAt": "2018-11-20T21:37:04.031Z"
}