{
  "contractName": "LTVDecisionEngine",
  "abi": [
    {
      "constant": true,
      "inputs": [
        {
          "name": "signer",
          "type": "address"
        },
        {
          "name": "hash",
          "type": "bytes32"
        },
        {
          "components": [
            {
              "name": "v",
              "type": "uint8"
            },
            {
              "name": "r",
              "type": "bytes32"
            },
            {
              "name": "s",
              "type": "bytes32"
            }
          ],
          "name": "signature",
          "type": "tuple"
        }
      ],
      "name": "isValidSignature",
      "outputs": [
        {
          "name": "valid",
          "type": "bool"
        }
      ],
      "payable": false,
      "stateMutability": "pure",
      "type": "function"
    },
    {
      "constant": true,
      "inputs": [],
      "name": "MAX_PRICE_TTL_IN_SECONDS",
      "outputs": [
        {
          "name": "",
          "type": "uint256"
        }
      ],
      "payable": false,
      "stateMutability": "view",
      "type": "function"
    },
    {
      "constant": true,
      "inputs": [],
      "name": "PRECISION",
      "outputs": [
        {
          "name": "",
          "type": "uint256"
        }
      ],
      "payable": false,
      "stateMutability": "view",
      "type": "function"
    },
    {
      "constant": true,
      "inputs": [],
      "name": "contractRegistry",
      "outputs": [
        {
          "name": "",
          "type": "address"
        }
      ],
      "payable": false,
      "stateMutability": "view",
      "type": "function"
    },
    {
      "constant": true,
      "inputs": [
        {
          "components": [
            {
              "name": "kernelVersion",
              "type": "address"
            },
            {
              "name": "issuanceVersion",
              "type": "address"
            },
            {
              "name": "principalAmount",
              "type": "uint256"
            },
            {
              "name": "principalToken",
              "type": "address"
            },
            {
              "name": "collateralAmount",
              "type": "uint256"
            },
            {
              "name": "collateralToken",
              "type": "address"
            },
            {
              "name": "debtor",
              "type": "address"
            },
            {
              "name": "debtorFee",
              "type": "uint256"
            },
            {
              "name": "creditor",
              "type": "address"
            },
            {
              "name": "creditorFee",
              "type": "uint256"
            },
            {
              "name": "relayer",
              "type": "address"
            },
            {
              "name": "relayerFee",
              "type": "uint256"
            },
            {
              "name": "underwriter",
              "type": "address"
            },
            {
              "name": "underwriterFee",
              "type": "uint256"
            },
            {
              "name": "underwriterRiskRating",
              "type": "uint256"
            },
            {
              "name": "termsContract",
              "type": "address"
            },
            {
              "name": "termsContractParameters",
              "type": "bytes32"
            },
            {
              "name": "expirationTimestampInSec",
              "type": "uint256"
            },
            {
              "name": "salt",
              "type": "uint256"
            },
            {
              "components": [
                {
                  "name": "v",
                  "type": "uint8"
                },
                {
                  "name": "r",
                  "type": "bytes32"
                },
                {
                  "name": "s",
                  "type": "bytes32"
                }
              ],
              "name": "debtorSignature",
              "type": "tuple"
            },
            {
              "components": [
                {
                  "name": "v",
                  "type": "uint8"
                },
                {
                  "name": "r",
                  "type": "bytes32"
                },
                {
                  "name": "s",
                  "type": "bytes32"
                }
              ],
              "name": "creditorSignature",
              "type": "tuple"
            },
            {
              "components": [
                {
                  "name": "v",
                  "type": "uint8"
                },
                {
                  "name": "r",
                  "type": "bytes32"
                },
                {
                  "name": "s",
                  "type": "bytes32"
                }
              ],
              "name": "underwriterSignature",
              "type": "tuple"
            }
          ],
          "name": "order",
          "type": "tuple"
        }
      ],
      "name": "unpackDebtOrder",
      "outputs": [
        {
          "name": "orderAddresses",
          "type": "address[6]"
        },
        {
          "name": "orderValues",
          "type": "uint256[8]"
        },
        {
          "name": "orderBytes32",
          "type": "bytes32[1]"
        },
        {
          "name": "signaturesV",
          "type": "uint8[3]"
        },
        {
          "name": "signaturesR",
          "type": "bytes32[3]"
        },
        {
          "name": "signaturesS",
          "type": "bytes32[3]"
        }
      ],
      "payable": false,
      "stateMutability": "pure",
      "type": "function"
    },
    {
      "inputs": [
        {
          "name": "_contractRegistry",
          "type": "address"
        }
      ],
      "payable": false,
      "stateMutability": "nonpayable",
      "type": "constructor"
    },
    {
      "constant": true,
      "inputs": [
        {
          "components": [
            {
              "name": "creditor",
              "type": "address"
            },
            {
              "name": "priceFeedOperator",
              "type": "address"
            },
            {
              "components": [
                {
                  "components": [
                    {
                      "name": "maxLTV",
                      "type": "uint256"
                    }
                  ],
                  "name": "values",
                  "type": "tuple"
                },
                {
                  "components": [
                    {
                      "name": "v",
                      "type": "uint8"
                    },
                    {
                      "name": "r",
                      "type": "bytes32"
                    },
                    {
                      "name": "s",
                      "type": "bytes32"
                    }
                  ],
                  "name": "signature",
                  "type": "tuple"
                }
              ],
              "name": "creditorCommitment",
              "type": "tuple"
            },
            {
              "components": [
                {
                  "name": "value",
                  "type": "uint256"
                },
                {
                  "name": "timestamp",
                  "type": "uint256"
                },
                {
                  "name": "tokenAddress",
                  "type": "address"
                },
                {
                  "components": [
                    {
                      "name": "v",
                      "type": "uint8"
                    },
                    {
                      "name": "r",
                      "type": "bytes32"
                    },
                    {
                      "name": "s",
                      "type": "bytes32"
                    }
                  ],
                  "name": "signature",
                  "type": "tuple"
                }
              ],
              "name": "principalPrice",
              "type": "tuple"
            },
            {
              "components": [
                {
                  "name": "value",
                  "type": "uint256"
                },
                {
                  "name": "timestamp",
                  "type": "uint256"
                },
                {
                  "name": "tokenAddress",
                  "type": "address"
                },
                {
                  "components": [
                    {
                      "name": "v",
                      "type": "uint8"
                    },
                    {
                      "name": "r",
                      "type": "bytes32"
                    },
                    {
                      "name": "s",
                      "type": "bytes32"
                    }
                  ],
                  "name": "signature",
                  "type": "tuple"
                }
              ],
              "name": "collateralPrice",
              "type": "tuple"
            },
            {
              "components": [
                {
                  "name": "kernelVersion",
                  "type": "address"
                },
                {
                  "name": "issuanceVersion",
                  "type": "address"
                },
                {
                  "name": "principalAmount",
                  "type": "uint256"
                },
                {
                  "name": "principalToken",
                  "type": "address"
                },
                {
                  "name": "collateralAmount",
                  "type": "uint256"
                },
                {
                  "name": "collateralToken",
                  "type": "address"
                },
                {
                  "name": "debtor",
                  "type": "address"
                },
                {
                  "name": "debtorFee",
                  "type": "uint256"
                },
                {
                  "name": "creditor",
                  "type": "address"
                },
                {
                  "name": "creditorFee",
                  "type": "uint256"
                },
                {
                  "name": "relayer",
                  "type": "address"
                },
                {
                  "name": "relayerFee",
                  "type": "uint256"
                },
                {
                  "name": "underwriter",
                  "type": "address"
                },
                {
                  "name": "underwriterFee",
                  "type": "uint256"
                },
                {
                  "name": "underwriterRiskRating",
                  "type": "uint256"
                },
                {
                  "name": "termsContract",
                  "type": "address"
                },
                {
                  "name": "termsContractParameters",
                  "type": "bytes32"
                },
                {
                  "name": "expirationTimestampInSec",
                  "type": "uint256"
                },
                {
                  "name": "salt",
                  "type": "uint256"
                },
                {
                  "components": [
                    {
                      "name": "v",
                      "type": "uint8"
                    },
                    {
                      "name": "r",
                      "type": "bytes32"
                    },
                    {
                      "name": "s",
                      "type": "bytes32"
                    }
                  ],
                  "name": "debtorSignature",
                  "type": "tuple"
                },
                {
                  "components": [
                    {
                      "name": "v",
                      "type": "uint8"
                    },
                    {
                      "name": "r",
                      "type": "bytes32"
                    },
                    {
                      "name": "s",
                      "type": "bytes32"
                    }
                  ],
                  "name": "creditorSignature",
                  "type": "tuple"
                },
                {
                  "components": [
                    {
                      "name": "v",
                      "type": "uint8"
                    },
                    {
                      "name": "r",
                      "type": "bytes32"
                    },
                    {
                      "name": "s",
                      "type": "bytes32"
                    }
                  ],
                  "name": "underwriterSignature",
                  "type": "tuple"
                }
              ],
              "name": "order",
              "type": "tuple"
            }
          ],
          "name": "params",
          "type": "tuple"
        },
        {
          "name": "commitmentHash",
          "type": "bytes32"
        }
      ],
      "name": "evaluateConsent",
      "outputs": [
        {
          "name": "",
          "type": "bool"
        }
      ],
      "payable": false,
      "stateMutability": "view",
      "type": "function"
    },
    {
      "constant": true,
      "inputs": [
        {
          "components": [
            {
              "name": "creditor",
              "type": "address"
            },
            {
              "name": "priceFeedOperator",
              "type": "address"
            },
            {
              "components": [
                {
                  "components": [
                    {
                      "name": "maxLTV",
                      "type": "uint256"
                    }
                  ],
                  "name": "values",
                  "type": "tuple"
                },
                {
                  "components": [
                    {
                      "name": "v",
                      "type": "uint8"
                    },
                    {
                      "name": "r",
                      "type": "bytes32"
                    },
                    {
                      "name": "s",
                      "type": "bytes32"
                    }
                  ],
                  "name": "signature",
                  "type": "tuple"
                }
              ],
              "name": "creditorCommitment",
              "type": "tuple"
            },
            {
              "components": [
                {
                  "name": "value",
                  "type": "uint256"
                },
                {
                  "name": "timestamp",
                  "type": "uint256"
                },
                {
                  "name": "tokenAddress",
                  "type": "address"
                },
                {
                  "components": [
                    {
                      "name": "v",
                      "type": "uint8"
                    },
                    {
                      "name": "r",
                      "type": "bytes32"
                    },
                    {
                      "name": "s",
                      "type": "bytes32"
                    }
                  ],
                  "name": "signature",
                  "type": "tuple"
                }
              ],
              "name": "principalPrice",
              "type": "tuple"
            },
            {
              "components": [
                {
                  "name": "value",
                  "type": "uint256"
                },
                {
                  "name": "timestamp",
                  "type": "uint256"
                },
                {
                  "name": "tokenAddress",
                  "type": "address"
                },
                {
                  "components": [
                    {
                      "name": "v",
                      "type": "uint8"
                    },
                    {
                      "name": "r",
                      "type": "bytes32"
                    },
                    {
                      "name": "s",
                      "type": "bytes32"
                    }
                  ],
                  "name": "signature",
                  "type": "tuple"
                }
              ],
              "name": "collateralPrice",
              "type": "tuple"
            },
            {
              "components": [
                {
                  "name": "kernelVersion",
                  "type": "address"
                },
                {
                  "name": "issuanceVersion",
                  "type": "address"
                },
                {
                  "name": "principalAmount",
                  "type": "uint256"
                },
                {
                  "name": "principalToken",
                  "type": "address"
                },
                {
                  "name": "collateralAmount",
                  "type": "uint256"
                },
                {
                  "name": "collateralToken",
                  "type": "address"
                },
                {
                  "name": "debtor",
                  "type": "address"
                },
                {
                  "name": "debtorFee",
                  "type": "uint256"
                },
                {
                  "name": "creditor",
                  "type": "address"
                },
                {
                  "name": "creditorFee",
                  "type": "uint256"
                },
                {
                  "name": "relayer",
                  "type": "address"
                },
                {
                  "name": "relayerFee",
                  "type": "uint256"
                },
                {
                  "name": "underwriter",
                  "type": "address"
                },
                {
                  "name": "underwriterFee",
                  "type": "uint256"
                },
                {
                  "name": "underwriterRiskRating",
                  "type": "uint256"
                },
                {
                  "name": "termsContract",
                  "type": "address"
                },
                {
                  "name": "termsContractParameters",
                  "type": "bytes32"
                },
                {
                  "name": "expirationTimestampInSec",
                  "type": "uint256"
                },
                {
                  "name": "salt",
                  "type": "uint256"
                },
                {
                  "components": [
                    {
                      "name": "v",
                      "type": "uint8"
                    },
                    {
                      "name": "r",
                      "type": "bytes32"
                    },
                    {
                      "name": "s",
                      "type": "bytes32"
                    }
                  ],
                  "name": "debtorSignature",
                  "type": "tuple"
                },
                {
                  "components": [
                    {
                      "name": "v",
                      "type": "uint8"
                    },
                    {
                      "name": "r",
                      "type": "bytes32"
                    },
                    {
                      "name": "s",
                      "type": "bytes32"
                    }
                  ],
                  "name": "creditorSignature",
                  "type": "tuple"
                },
                {
                  "components": [
                    {
                      "name": "v",
                      "type": "uint8"
                    },
                    {
                      "name": "r",
                      "type": "bytes32"
                    },
                    {
                      "name": "s",
                      "type": "bytes32"
                    }
                  ],
                  "name": "underwriterSignature",
                  "type": "tuple"
                }
              ],
              "name": "order",
              "type": "tuple"
            }
          ],
          "name": "params",
          "type": "tuple"
        }
      ],
      "name": "evaluateDecision",
      "outputs": [
        {
          "name": "_success",
          "type": "bool"
        }
      ],
      "payable": false,
      "stateMutability": "view",
      "type": "function"
    },
    {
      "constant": true,
      "inputs": [
        {
          "components": [
            {
              "name": "maxLTV",
              "type": "uint256"
            }
          ],
          "name": "commitmentValues",
          "type": "tuple"
        },
        {
          "components": [
            {
              "name": "kernelVersion",
              "type": "address"
            },
            {
              "name": "issuanceVersion",
              "type": "address"
            },
            {
              "name": "principalAmount",
              "type": "uint256"
            },
            {
              "name": "principalToken",
              "type": "address"
            },
            {
              "name": "collateralAmount",
              "type": "uint256"
            },
            {
              "name": "collateralToken",
              "type": "address"
            },
            {
              "name": "debtor",
              "type": "address"
            },
            {
              "name": "debtorFee",
              "type": "uint256"
            },
            {
              "name": "creditor",
              "type": "address"
            },
            {
              "name": "creditorFee",
              "type": "uint256"
            },
            {
              "name": "relayer",
              "type": "address"
            },
            {
              "name": "relayerFee",
              "type": "uint256"
            },
            {
              "name": "underwriter",
              "type": "address"
            },
            {
              "name": "underwriterFee",
              "type": "uint256"
            },
            {
              "name": "underwriterRiskRating",
              "type": "uint256"
            },
            {
              "name": "termsContract",
              "type": "address"
            },
            {
              "name": "termsContractParameters",
              "type": "bytes32"
            },
            {
              "name": "expirationTimestampInSec",
              "type": "uint256"
            },
            {
              "name": "salt",
              "type": "uint256"
            },
            {
              "components": [
                {
                  "name": "v",
                  "type": "uint8"
                },
                {
                  "name": "r",
                  "type": "bytes32"
                },
                {
                  "name": "s",
                  "type": "bytes32"
                }
              ],
              "name": "debtorSignature",
              "type": "tuple"
            },
            {
              "components": [
                {
                  "name": "v",
                  "type": "uint8"
                },
                {
                  "name": "r",
                  "type": "bytes32"
                },
                {
                  "name": "s",
                  "type": "bytes32"
                }
              ],
              "name": "creditorSignature",
              "type": "tuple"
            },
            {
              "components": [
                {
                  "name": "v",
                  "type": "uint8"
                },
                {
                  "name": "r",
                  "type": "bytes32"
                },
                {
                  "name": "s",
                  "type": "bytes32"
                }
              ],
              "name": "underwriterSignature",
              "type": "tuple"
            }
          ],
          "name": "order",
          "type": "tuple"
        }
      ],
      "name": "hashCreditorCommitmentForOrder",
      "outputs": [
        {
          "name": "",
          "type": "bytes32"
        }
      ],
      "payable": false,
      "stateMutability": "view",
      "type": "function"
    },
    {
      "constant": true,
      "inputs": [
        {
          "name": "termsContract",
          "type": "address"
        },
        {
          "name": "termsContractParameters",
          "type": "bytes32"
        }
      ],
      "name": "getTermsContractCommitmentHash",
      "outputs": [
        {
          "name": "",
          "type": "bytes32"
        }
      ],
      "payable": false,
      "stateMutability": "view",
      "type": "function"
    },
    {
      "constant": true,
      "inputs": [
        {
          "name": "termsContract",
          "type": "address"
        },
        {
          "name": "termsContractParameters",
          "type": "bytes32"
        }
      ],
      "name": "unpackSimpleInterestParameters",
      "outputs": [
        {
          "components": [
            {
              "name": "principalTokenIndex",
              "type": "uint256"
            },
            {
              "name": "principalAmount",
              "type": "uint256"
            },
            {
              "name": "interestRate",
              "type": "uint256"
            },
            {
              "name": "amortizationUnitType",
              "type": "uint256"
            },
            {
              "name": "termLengthInAmortizationUnits",
              "type": "uint256"
            }
          ],
          "name": "",
          "type": "tuple"
        }
      ],
      "payable": false,
      "stateMutability": "pure",
      "type": "function"
    },
    {
      "constant": true,
      "inputs": [
        {
          "name": "termsContractParameters",
          "type": "bytes32"
        }
      ],
      "name": "unpackCollateralParameters",
      "outputs": [
        {
          "components": [
            {
              "name": "collateralTokenIndex",
              "type": "uint256"
            },
            {
              "name": "collateralAmount",
              "type": "uint256"
            },
            {
              "name": "gracePeriodInDays",
              "type": "uint256"
            }
          ],
          "name": "",
          "type": "tuple"
        }
      ],
      "payable": false,
      "stateMutability": "view",
      "type": "function"
    }
  ],
  "bytecode": "0x60806040523480156200001157600080fd5b50604051602080620022d0833981018060405262000033919081019062000090565b806000806101000a81548173ffffffffffffffffffffffffffffffffffffffff021916908373ffffffffffffffffffffffffffffffffffffffff16021790555050620000dc565b6000620000888251620000bc565b905092915050565b600060208284031215620000a357600080fd5b6000620000b3848285016200007a565b91505092915050565b600073ffffffffffffffffffffffffffffffffffffffff82169050919050565b6121e480620000ec6000396000f3006080604052600436106100af576000357c0100000000000000000000000000000000000000000000000000000000900463ffffffff1680630257dbc9146100b45780630a89d47c146100f1578063578911ac1461012e5780637c3ea9fc1461016b578063879ffab014610196578063aaf5eb68146101d3578063abf410e5146101fe578063b120f0b414610229578063cf99685c14610266578063e301885c146102a3578063e7083d24146102e5575b600080fd5b3480156100c057600080fd5b506100db60048036036100d691908101906119e7565b610322565b6040516100e89190611f55565b60405180910390f35b3480156100fd57600080fd5b5061011860048036036101139190810190611ac4565b6103b7565b6040516101259190611f55565b60405180910390f35b34801561013a57600080fd5b5061015560048036036101509190810190611a23565b61059b565b6040516101629190611f3a565b60405180910390f35b34801561017757600080fd5b506101806106dd565b60405161018d9190612006565b60405180910390f35b3480156101a257600080fd5b506101bd60048036036101b89190810190611b2b565b6106e3565b6040516101ca9190611f3a565b60405180910390f35b3480156101df57600080fd5b506101e86107c9565b6040516101f59190612006565b60405180910390f35b34801561020a57600080fd5b506102136107ce565b6040516102209190611fb5565b60405180910390f35b34801561023557600080fd5b50610250600480360361024b9190810190611b55565b6107f3565b60405161025d9190611f3a565b60405180910390f35b34801561027257600080fd5b5061028d60048036036102889190810190611a72565b61083b565b60405161029a9190611fd0565b60405180910390f35b3480156102af57600080fd5b506102ca60048036036102c59190810190611b01565b6109dc565b6040516102dc96959493929190611ed4565b60405180910390f35b3480156102f157600080fd5b5061030c600480360361030791908101906119e7565b610cd7565b6040516103199190611feb565b60405180910390f35b600061032c610ff7565b610334611027565b61033e8585610cd7565b91506103498461083b565b905081600001518260200151836040015184606001518560800151856000015186604001516040518088815260200187815260200186815260200185815260200184815260200183815260200182815260200197505050505050505060405180910390209250505092915050565b6000806103ce836101e00151846102000151610322565b905082610100015183600001518460200151856101e00151866060015187610240015188604001518961012001518a61022001518c600001518a604051808c73ffffffffffffffffffffffffffffffffffffffff1673ffffffffffffffffffffffffffffffffffffffff166c010000000000000000000000000281526014018b73ffffffffffffffffffffffffffffffffffffffff1673ffffffffffffffffffffffffffffffffffffffff166c010000000000000000000000000281526014018a73ffffffffffffffffffffffffffffffffffffffff1673ffffffffffffffffffffffffffffffffffffffff166c010000000000000000000000000281526014018973ffffffffffffffffffffffffffffffffffffffff1673ffffffffffffffffffffffffffffffffffffffff166c010000000000000000000000000281526014018873ffffffffffffffffffffffffffffffffffffffff1673ffffffffffffffffffffffffffffffffffffffff166c0100000000000000000000000002815260140187815260200186815260200185815260200184815260200183815260200182600019166000191681526020019b505050505050505050505050604051809103902091505092915050565b6000806040805190810160405280601c81526020017f19457468657265756d205369676e6564204d6573736167653a0a333200000000815250846040518083805190602001908083835b60208310151561060a57805182526020820191506020810190506020830392506105e5565b6001836020036101000a038019825116818451168082178552505050505050905001826000191660001916815260200192505050604051809103902090508473ffffffffffffffffffffffffffffffffffffffff166001828560000151866020015187604001516040516000815260200160405260405161068e9493929190611f70565b60206040516020810390808403906000865af11580156106b2573d6000803e3d6000fd5b5050506020604051035173ffffffffffffffffffffffffffffffffffffffff16149150509392505050565b61025881565b60006106ed611049565b6106f5611049565b60006106ff61108e565b600080600088606001519650886080015195508860400151600001516000015194508860a0015193508560000151925061073d846102200151610dd2565b1561074b57600097506107bd565b60008460800151148061075e5750600083145b1561076c57600097506107bd565b6107888760000151876000015186604001518760800151610dde565b91506107b46107a260026004610e4290919063ffffffff16565b600a0a86610e5b90919063ffffffff16565b90508082111597505b50505050505050919050565b600481565b6000809054906101000a900473ffffffffffffffffffffffffffffffffffffffff1681565b600061080c83600001518385604001516020015161059b565b151561081b5760009050610835565b610832836020015184606001518560800151610e93565b90505b92915050565b610843611027565b6000806000806000809054906101000a900473ffffffffffffffffffffffffffffffffffffffff1673ffffffffffffffffffffffffffffffffffffffff1663869f05116040518163ffffffff167c0100000000000000000000000000000000000000000000000000000000028152600401602060405180830381600087803b1580156108ce57600080fd5b505af11580156108e2573d6000803e3d6000fd5b505050506040513d601f19601f820116820180604052506109069190810190611a9b565b93508373ffffffffffffffffffffffffffffffffffffffff1663ca062647876040518263ffffffff167c010000000000000000000000000000000000000000000000000000000002815260040161095d9190611f55565b606060405180830381600087803b15801561097757600080fd5b505af115801561098b573d6000803e3d6000fd5b505050506040513d601f19601f820116820180604052506109af9190810190611b93565b92509250925060606040519081016040528084815260200183815260200182815250945050505050919050565b6109e4611211565b6109ec611234565b6109f4611258565b6109fc61127b565b610a0461129e565b610a0c61129e565b60c060405190810160405280886000015173ffffffffffffffffffffffffffffffffffffffff1673ffffffffffffffffffffffffffffffffffffffff1681526020018860c0015173ffffffffffffffffffffffffffffffffffffffff1673ffffffffffffffffffffffffffffffffffffffff16815260200188610180015173ffffffffffffffffffffffffffffffffffffffff1673ffffffffffffffffffffffffffffffffffffffff168152602001886101e0015173ffffffffffffffffffffffffffffffffffffffff1673ffffffffffffffffffffffffffffffffffffffff168152602001886060015173ffffffffffffffffffffffffffffffffffffffff1673ffffffffffffffffffffffffffffffffffffffff16815260200188610140015173ffffffffffffffffffffffffffffffffffffffff1673ffffffffffffffffffffffffffffffffffffffff1681525061010060405190810160405280896101c001518152602001896102400151815260200189604001518152602001896101a001518152602001896101600151815260200189610120015181526020018960e0015181526020018961022001518152506020604051908101604052808a610200015160001916600019168152506060604051908101604052808b61026001516000015160ff1660ff1681526020018b61028001516000015160ff1660ff1681526020018b6102a001516000015160ff1660ff168152506060604051908101604052808c610260015160200151600019166000191681526020018c610280015160200151600019166000191681526020018c6102a001516020015160001916600019168152506060604051908101604052808d610260015160400151600019166000191681526020018d610280015160400151600019166000191681526020018d6102a0015160400151600019166000191681525095509550955095509550955091939550919395565b610cdf610ff7565b6000806000806000808895508573ffffffffffffffffffffffffffffffffffffffff1663ed8907d7896040518263ffffffff167c0100000000000000000000000000000000000000000000000000000000028152600401610d409190611f55565b60a060405180830381600087803b158015610d5a57600080fd5b505af1158015610d6e573d6000803e3d6000fd5b505050506040513d601f19601f82011682018060405250610d929190810190611be2565b9450945094509450945060a06040519081016040528086815260200185815260200184815260200183815260200182815250965050505050505092915050565b60004282109050919050565b6000806000610e0c6004600a0a610dfe878a610e5b90919063ffffffff16565b610e5b90919063ffffffff16565b9150610e218487610e5b90919063ffffffff16565b9050610e368183610fe190919063ffffffff16565b92505050949350505050565b6000828211151515610e5057fe5b818303905092915050565b600080831415610e6e5760009050610e8d565b8183029050818382811515610e7f57fe5b04141515610e8957fe5b8090505b92915050565b6000806000806000610258420393508387602001511080610eb75750838660200151105b15610ec55760009450610fd6565b866000015187604001518860200151604051808481526020018373ffffffffffffffffffffffffffffffffffffffff1673ffffffffffffffffffffffffffffffffffffffff166c01000000000000000000000000028152601401828152602001935050505060405180910390209250856000015186604001518760200151604051808481526020018373ffffffffffffffffffffffffffffffffffffffff1673ffffffffffffffffffffffffffffffffffffffff166c01000000000000000000000000028152601401828152602001935050505060405180910390209150610fb28884896060015161059b565b9050801515610fc45760009450610fd6565b610fd38883886060015161059b565b94505b505050509392505050565b60008183811515610fee57fe5b04905092915050565b60a06040519081016040528060008152602001600081526020016000815260200160008152602001600081525090565b6060604051908101604052806000815260200160008152602001600081525090565b60c0604051908101604052806000815260200160008152602001600073ffffffffffffffffffffffffffffffffffffffff1681526020016110886112c1565b81525090565b61038060405190810160405280600073ffffffffffffffffffffffffffffffffffffffff168152602001600073ffffffffffffffffffffffffffffffffffffffff16815260200160008152602001600073ffffffffffffffffffffffffffffffffffffffff16815260200160008152602001600073ffffffffffffffffffffffffffffffffffffffff168152602001600073ffffffffffffffffffffffffffffffffffffffff16815260200160008152602001600073ffffffffffffffffffffffffffffffffffffffff16815260200160008152602001600073ffffffffffffffffffffffffffffffffffffffff16815260200160008152602001600073ffffffffffffffffffffffffffffffffffffffff1681526020016000815260200160008152602001600073ffffffffffffffffffffffffffffffffffffffff1681526020016000801916815260200160008152602001600081526020016111f16112c1565b81526020016111fe6112c1565b815260200161120b6112c1565b81525090565b60c060405190810160405280600690602082028038833980820191505090505090565b61010060405190810160405280600890602082028038833980820191505090505090565b602060405190810160405280600190602082028038833980820191505090505090565b606060405190810160405280600390602082028038833980820191505090505090565b606060405190810160405280600390602082028038833980820191505090505090565b606060405190810160405280600060ff16815260200160008019168152602001600080191681525090565b60006112f88235612145565b905092915050565b600061130c8235612165565b905092915050565b6000611320825161216f565b905092915050565b60006020828403121561133a57600080fd5b6113446020612021565b90506000611354848285016119ab565b60008301525092915050565b60006020828403121561137257600080fd5b61137c6020612021565b9050600061138c848285016119ab565b60008301525092915050565b6000608082840312156113aa57600080fd5b6113b46040612021565b905060006113c484828501611328565b60008301525060206113d8848285016117d8565b60208301525092915050565b600061038082840312156113f757600080fd5b6114026102c0612021565b90506000611412848285016112ec565b6000830152506020611426848285016112ec565b602083015250604061143a848285016119ab565b604083015250606061144e848285016112ec565b6060830152506080611462848285016119ab565b60808301525060a0611476848285016112ec565b60a08301525060c061148a848285016112ec565b60c08301525060e061149e848285016119ab565b60e0830152506101006114b3848285016112ec565b610100830152506101206114c9848285016119ab565b610120830152506101406114df848285016112ec565b610140830152506101606114f5848285016119ab565b6101608301525061018061150b848285016112ec565b610180830152506101a0611521848285016119ab565b6101a0830152506101c0611537848285016119ab565b6101c0830152506101e061154d848285016112ec565b6101e08301525061020061156384828501611300565b61020083015250610220611579848285016119ab565b6102208301525061024061158f848285016119ab565b610240830152506102606115a5848285016117d8565b610260830152506102c06115bb848285016117d8565b610280830152506103206115d1848285016117d8565b6102a08301525092915050565b600061038082840312156115f157600080fd5b6115fc6102c0612021565b9050600061160c848285016112ec565b6000830152506020611620848285016112ec565b6020830152506040611634848285016119ab565b6040830152506060611648848285016112ec565b606083015250608061165c848285016119ab565b60808301525060a0611670848285016112ec565b60a08301525060c0611684848285016112ec565b60c08301525060e0611698848285016119ab565b60e0830152506101006116ad848285016112ec565b610100830152506101206116c3848285016119ab565b610120830152506101406116d9848285016112ec565b610140830152506101606116ef848285016119ab565b61016083015250610180611705848285016112ec565b610180830152506101a061171b848285016119ab565b6101a0830152506101c0611731848285016119ab565b6101c0830152506101e0611747848285016112ec565b6101e08301525061020061175d84828501611300565b61020083015250610220611773848285016119ab565b61022083015250610240611789848285016119ab565b6102408301525061026061179f848285016117d8565b610260830152506102c06117b5848285016117d8565b610280830152506103206117cb848285016117d8565b6102a08301525092915050565b6000606082840312156117ea57600080fd5b6117f46060612021565b90506000611804848285016119d3565b600083015250602061181884828501611300565b602083015250604061182c84828501611300565b60408301525092915050565b60006060828403121561184a57600080fd5b6118546060612021565b90506000611864848285016119d3565b600083015250602061187884828501611300565b602083015250604061188c84828501611300565b60408301525092915050565b60006105c082840312156118ab57600080fd5b6118b560c0612021565b905060006118c5848285016112ec565b60008301525060206118d9848285016112ec565b60208301525060406118ed84828501611398565b60408301525060c061190184828501611937565b60608301525061018061191684828501611937565b60808301525061024061192b848285016113e4565b60a08301525092915050565b600060c0828403121561194957600080fd5b6119536080612021565b90506000611963848285016119ab565b6000830152506020611977848285016119ab565b602083015250604061198b848285016112ec565b604083015250606061199f848285016117d8565b60608301525092915050565b60006119b78235612181565b905092915050565b60006119cb8251612181565b905092915050565b60006119df823561218b565b905092915050565b600080604083850312156119fa57600080fd5b6000611a08858286016112ec565b9250506020611a1985828601611300565b9150509250929050565b600080600060a08486031215611a3857600080fd5b6000611a46868287016112ec565b9350506020611a5786828701611300565b9250506040611a6886828701611838565b9150509250925092565b600060208284031215611a8457600080fd5b6000611a9284828501611300565b91505092915050565b600060208284031215611aad57600080fd5b6000611abb84828501611314565b91505092915050565b6000806103a08385031215611ad857600080fd5b6000611ae685828601611360565b9250506020611af7858286016115de565b9150509250929050565b60006103808284031215611b1457600080fd5b6000611b22848285016115de565b91505092915050565b60006105c08284031215611b3e57600080fd5b6000611b4c84828501611898565b91505092915050565b6000806105e08385031215611b6957600080fd5b6000611b7785828601611898565b9250506105c0611b8985828601611300565b9150509250929050565b600080600060608486031215611ba857600080fd5b6000611bb6868287016119bf565b9350506020611bc7868287016119bf565b9250506040611bd8868287016119bf565b9150509250925092565b600080600080600060a08688031215611bfa57600080fd5b6000611c08888289016119bf565b9550506020611c19888289016119bf565b9450506040611c2a888289016119bf565b9350506060611c3b888289016119bf565b9250506080611c4c888289016119bf565b9150509295509295909350565b611c62816120f8565b82525050565b611c7181612080565b611c7a8261204e565b60005b82811015611cac57611c90858351611c59565b611c99826120b7565b9150602085019450600181019050611c7d565b5050505050565b611cbc8161208b565b611cc582612058565b60005b82811015611cf757611cdb858351611dee565b611ce4826120c4565b9150602085019450600181019050611cc8565b5050505050565b611d0781612096565b611d1082612062565b60005b82811015611d4257611d26858351611dee565b611d2f826120d1565b9150602085019450600181019050611d13565b5050505050565b611d52816120a1565b611d5b8261206c565b60005b82811015611d8d57611d71858351611eb6565b611d7a826120de565b9150602085019450600181019050611d5e565b5050505050565b611d9d816120ac565b611da682612076565b60005b82811015611dd857611dbc858351611ec5565b611dc5826120eb565b9150602085019450600181019050611da9565b5050505050565b611de881612118565b82525050565b611df781612124565b82525050565b611e0681612198565b82525050565b606082016000820151611e226000850182611eb6565b506020820151611e356020850182611eb6565b506040820151611e486040850182611eb6565b50505050565b60a082016000820151611e646000850182611eb6565b506020820151611e776020850182611eb6565b506040820151611e8a6040850182611eb6565b506060820151611e9d6060850182611eb6565b506080820151611eb06080850182611eb6565b50505050565b611ebf8161212e565b82525050565b611ece81612138565b82525050565b600061030082019050611eea6000830189611c68565b611ef760c0830188611d49565b611f056101c0830187611cb3565b611f136101e0830186611d94565b611f21610240830185611cfe565b611f2f6102a0830184611cfe565b979650505050505050565b6000602082019050611f4f6000830184611ddf565b92915050565b6000602082019050611f6a6000830184611dee565b92915050565b6000608082019050611f856000830187611dee565b611f926020830186611ec5565b611f9f6040830185611dee565b611fac6060830184611dee565b95945050505050565b6000602082019050611fca6000830184611dfd565b92915050565b6000606082019050611fe56000830184611e0c565b92915050565b600060a0820190506120006000830184611e4e565b92915050565b600060208201905061201b6000830184611eb6565b92915050565b6000604051905081810181811067ffffffffffffffff8211171561204457600080fd5b8060405250919050565b6000819050919050565b6000819050919050565b6000819050919050565b6000819050919050565b6000819050919050565b600060069050919050565b600060019050919050565b600060039050919050565b600060089050919050565b600060039050919050565b6000602082019050919050565b6000602082019050919050565b6000602082019050919050565b6000602082019050919050565b6000602082019050919050565b600073ffffffffffffffffffffffffffffffffffffffff82169050919050565b60008115159050919050565b6000819050919050565b6000819050919050565b600060ff82169050919050565b600073ffffffffffffffffffffffffffffffffffffffff82169050919050565b6000819050919050565b600061217a826120f8565b9050919050565b6000819050919050565b600060ff82169050919050565b60006121a3826120f8565b90509190505600a265627a7a723058209ab90b1797520625d453f95f523a66c8949610aa0cbe5b26ccc607f12c7511416c6578706572696d656e74616cf50037",
  "source": "pragma solidity ^0.4.24;\npragma experimental ABIEncoderV2;\n\n// External dependencies\nimport \"zeppelin-solidity/contracts/math/SafeMath.sol\";\n\n// Libraries\nimport \"./libraries/LTVDecisionEngineTypes.sol\";\nimport \"../../shared/libraries/SignaturesLibrary.sol\";\nimport \"../../shared/libraries/OrderLibrary.sol\";\n\n// Interfaces\nimport \"../../shared/interfaces/ContractRegistryInterface.sol\";\nimport \"../../shared/interfaces/CollateralizerInterface.sol\";\nimport \"../../shared/interfaces/SimpleInterestTermsContractInterface.sol\";\n\ncontract LTVDecisionEngine is LTVDecisionEngineTypes, SignaturesLibrary, OrderLibrary\n{\n\tusing SafeMath for uint;\n\n\tuint public constant PRECISION = 4;\n\n\tuint public constant MAX_PRICE_TTL_IN_SECONDS = 600;\n\n\tContractRegistryInterface public contractRegistry;\n\n\tfunction LTVDecisionEngine(address _contractRegistry) public {\n        contractRegistry = ContractRegistryInterface(_contractRegistry);\n    }\n\n\tfunction evaluateConsent(Params params, bytes32 commitmentHash)\n\t\tpublic view returns (bool)\n\t{\n\t\t// Checks that the given creditor values were signed by the creditor.\n\t\tif (!isValidSignature(\n\t\t\tparams.creditor,\n\t\t\tcommitmentHash,\n\t\t\tparams.creditorCommitment.signature\n\t\t)) {\n\t\t\t// We return early if the creditor values were not signed correctly.\n\t\t\treturn false;\n\t\t}\n\n\t\t// Checks that the given price feed data was signed by the price feed operator.\n\t\treturn (\n\t\t\tverifyPrices(\n\t\t\t\tparams.priceFeedOperator,\n\t\t\t\tparams.principalPrice,\n\t\t\t\tparams.collateralPrice\n\t\t\t)\n\t\t);\n\t}\n\n\t// Returns true if the creditor-initiated order has not expired, and the LTV is below the max.\n\tfunction evaluateDecision(Params memory params)\n\t\tpublic view returns (bool _success)\n\t{\n\t\tLTVDecisionEngineTypes.Price memory principalTokenPrice = params.principalPrice;\n\t\tLTVDecisionEngineTypes.Price memory collateralTokenPrice = params.collateralPrice;\n\n\t\tuint maxLTV = params.creditorCommitment.values.maxLTV;\n\t\tOrderLibrary.DebtOrder memory order = params.order;\n\n\t\tuint collateralValue = collateralTokenPrice.value;\n\n\t\tif (isExpired(order.expirationTimestampInSec)) {\n\t\t\treturn false;\n\t\t}\n\n\t\tif (order.collateralAmount == 0 || collateralValue == 0) {\n\t\t\treturn false;\n\t\t}\n\n\t\tuint ltv = computeLTV(\n\t\t\tprincipalTokenPrice.value,\n\t\t\tcollateralTokenPrice.value,\n\t\t\torder.principalAmount,\n\t\t\torder.collateralAmount\n\t\t);\n\n\t\tuint maxLTVWithPrecision = maxLTV.mul(10 ** (PRECISION.sub(2)));\n\n\t\treturn ltv <= maxLTVWithPrecision;\n\t}\n\n\tfunction hashCreditorCommitmentForOrder(CommitmentValues commitmentValues, OrderLibrary.DebtOrder order)\n\tpublic view returns (bytes32)\n\t{\n\t\tbytes32 termsContractCommitmentHash =\n\t\t\tgetTermsContractCommitmentHash(order.termsContract, order.termsContractParameters);\n\n\t\treturn keccak256(\n\t\t\t// order values\n\t\t\torder.creditor,\n\t\t\torder.kernelVersion,\n\t\t\torder.issuanceVersion,\n\t\t\torder.termsContract,\n\t\t\torder.principalToken,\n\t\t\torder.salt,\n\t\t\torder.principalAmount,\n\t\t\torder.creditorFee,\n\t\t\torder.expirationTimestampInSec,\n\t\t\t// commitment values\n\t\t\tcommitmentValues.maxLTV,\n\t\t\t// hashed terms contract commitments\n\t\t\ttermsContractCommitmentHash\n\t\t);\n\t}\n\n\tfunction getTermsContractCommitmentHash(\n\t\taddress termsContract,\n\t\tbytes32 termsContractParameters\n\t) public view returns (bytes32) {\n\t\tSimpleInterestParameters memory simpleInterestParameters =\n\t\t\tunpackSimpleInterestParameters(termsContract, termsContractParameters);\n\n\t\tCollateralParameters memory collateralParameters =\n\t\t\tunpackCollateralParameters(termsContractParameters);\n\n\t\treturn keccak256(\n\t\t\t// unpacked termsContractParameters\n\t\t\tsimpleInterestParameters.principalTokenIndex,\n\t\t\tsimpleInterestParameters.principalAmount,\n\t\t\tsimpleInterestParameters.interestRate,\n\t\t\tsimpleInterestParameters.amortizationUnitType,\n\t\t\tsimpleInterestParameters.termLengthInAmortizationUnits,\n\t\t\tcollateralParameters.collateralTokenIndex,\n\t\t\tcollateralParameters.gracePeriodInDays\n\t\t);\n\t}\n\n\tfunction unpackSimpleInterestParameters(\n\t\taddress termsContract,\n\t\tbytes32 termsContractParameters\n\t)\n\t\tpublic pure returns (SimpleInterestParameters)\n\t{\n\t\t// use simple interest terms contract interface to unpack simple interest terms\n\t\tSimpleInterestTermsContractInterface simpleInterestTermsContract = SimpleInterestTermsContractInterface(termsContract);\n\n\t\tvar (principalTokenIndex, principalAmount, interestRate, amortizationUnitType, termLengthInAmortizationUnits) =\n\t\t\tsimpleInterestTermsContract.unpackParametersFromBytes(termsContractParameters);\n\n\t\treturn SimpleInterestParameters({\n\t\t\tprincipalTokenIndex: principalTokenIndex,\n\t\t\tprincipalAmount: principalAmount,\n\t\t\tinterestRate: interestRate,\n\t\t\tamortizationUnitType: amortizationUnitType,\n\t\t\ttermLengthInAmortizationUnits: termLengthInAmortizationUnits\n\t\t});\n\t}\n\n\tfunction unpackCollateralParameters(\n\t\tbytes32 termsContractParameters\n\t)\n\t\tpublic view returns (CollateralParameters)\n\t{\n\t\tCollateralizerInterface collateralizer = CollateralizerInterface(contractRegistry.collateralizer());\n\n\t\tvar (collateralTokenIndex, collateralAmount, gracePeriodInDays) =\n\t\t\tcollateralizer.unpackCollateralParametersFromBytes(termsContractParameters);\n\n\t\treturn CollateralParameters({\n\t\t\tcollateralTokenIndex: collateralTokenIndex,\n\t\t\tcollateralAmount: collateralAmount,\n\t\t\tgracePeriodInDays: gracePeriodInDays\n\t\t});\n\t}\n\n\tfunction verifyPrices(\n\t\taddress priceFeedOperator,\n\t\tLTVDecisionEngineTypes.Price principalPrice,\n\t\tLTVDecisionEngineTypes.Price collateralPrice\n\t)\n\t\tinternal view returns (bool)\n\t{\n\t\tuint minPriceTimestamp = block.timestamp - MAX_PRICE_TTL_IN_SECONDS;\n\n\t\tif (principalPrice.timestamp < minPriceTimestamp ||\n\t\t\tcollateralPrice.timestamp < minPriceTimestamp) {\n\t\t\treturn false;\n\t\t}\n\n\t\tbytes32 principalPriceHash = keccak256(\n\t\t\tprincipalPrice.value,\n\t\t\tprincipalPrice.tokenAddress,\n\t\t\tprincipalPrice.timestamp\n\t\t);\n\n\t\tbytes32 collateralPriceHash = keccak256(\n\t\t\tcollateralPrice.value,\n\t\t\tcollateralPrice.tokenAddress,\n\t\t\tcollateralPrice.timestamp\n\t\t);\n\n\t\tbool principalPriceValid = isValidSignature(\n\t\t\tpriceFeedOperator,\n\t\t\tprincipalPriceHash,\n\t\t\tprincipalPrice.signature\n\t\t);\n\n\t\t// We return early if the principal price information was not signed correctly.\n\t\tif (!principalPriceValid) {\n\t\t\treturn false;\n\t\t}\n\n\t\treturn isValidSignature(\n\t\t\tpriceFeedOperator,\n\t\t\tcollateralPriceHash,\n\t\t\tcollateralPrice.signature\n\t\t);\n\t}\n\n\tfunction computeLTV(\n\t\tuint principalTokenPrice,\n\t\tuint collateralTokenPrice,\n\t\tuint principalAmount,\n\t\tuint collateralAmount\n\t)\n\t\tinternal constant returns (uint)\n\t{\n\t\tuint principalValue = principalTokenPrice.mul(principalAmount).mul(10 ** PRECISION);\n\t\tuint collateralValue = collateralTokenPrice.mul(collateralAmount);\n\n\t\treturn principalValue.div(collateralValue);\n\t}\n\n\tfunction isExpired(uint expirationTimestampInSec)\n\t\tinternal view returns (bool expired)\n\t{\n\t\treturn expirationTimestampInSec < block.timestamp;\n\t}\n}\n",
  "sourcePath": "/Users/graemeboy/Dharma/experimental/contracts/src/CreditorDrivenLoans/DecisionEngines/LTVDecisionEngine.sol",
  "compiler": {
    "name": "solc",
    "version": "0.4.24+commit.e67f0147.Emscripten.clang"
  },
  "schemaVersion": "2.0.1",
  "updatedAt": "2018-10-16T21:20:58.418Z"
}