{
  "contractName": "NaiveCreditorProxy",
  "abi": [
    {
      "constant": true,
      "inputs": [
        {
          "components": [
            {
              "name": "kernelVersion",
              "type": "address"
            },
            {
              "name": "issuanceVersion",
              "type": "address"
            },
            {
              "name": "principalAmount",
              "type": "uint256"
            },
            {
              "name": "principalToken",
              "type": "address"
            },
            {
              "name": "collateralAmount",
              "type": "uint256"
            },
            {
              "name": "collateralToken",
              "type": "address"
            },
            {
              "name": "debtor",
              "type": "address"
            },
            {
              "name": "debtorFee",
              "type": "uint256"
            },
            {
              "name": "creditor",
              "type": "address"
            },
            {
              "name": "creditorFee",
              "type": "uint256"
            },
            {
              "name": "relayer",
              "type": "address"
            },
            {
              "name": "relayerFee",
              "type": "uint256"
            },
            {
              "name": "underwriter",
              "type": "address"
            },
            {
              "name": "underwriterFee",
              "type": "uint256"
            },
            {
              "name": "underwriterRiskRating",
              "type": "uint256"
            },
            {
              "name": "termsContract",
              "type": "address"
            },
            {
              "name": "termsContractParameters",
              "type": "bytes32"
            },
            {
              "name": "expirationTimestampInSec",
              "type": "uint256"
            },
            {
              "name": "salt",
              "type": "uint256"
            },
            {
              "components": [
                {
                  "name": "v",
                  "type": "uint8"
                },
                {
                  "name": "r",
                  "type": "bytes32"
                },
                {
                  "name": "s",
                  "type": "bytes32"
                }
              ],
              "name": "debtorSignature",
              "type": "tuple"
            },
            {
              "components": [
                {
                  "name": "v",
                  "type": "uint8"
                },
                {
                  "name": "r",
                  "type": "bytes32"
                },
                {
                  "name": "s",
                  "type": "bytes32"
                }
              ],
              "name": "creditorSignature",
              "type": "tuple"
            },
            {
              "components": [
                {
                  "name": "v",
                  "type": "uint8"
                },
                {
                  "name": "r",
                  "type": "bytes32"
                },
                {
                  "name": "s",
                  "type": "bytes32"
                }
              ],
              "name": "underwriterSignature",
              "type": "tuple"
            }
          ],
          "name": "order",
          "type": "tuple"
        }
      ],
      "name": "hashCreditorCommitmentForOrder",
      "outputs": [
        {
          "name": "_creditorCommitmentHash",
          "type": "bytes32"
        }
      ],
      "payable": false,
      "stateMutability": "pure",
      "type": "function"
    },
    {
      "constant": true,
      "inputs": [
        {
          "name": "signer",
          "type": "address"
        },
        {
          "name": "hash",
          "type": "bytes32"
        },
        {
          "components": [
            {
              "name": "v",
              "type": "uint8"
            },
            {
              "name": "r",
              "type": "bytes32"
            },
            {
              "name": "s",
              "type": "bytes32"
            }
          ],
          "name": "signature",
          "type": "tuple"
        }
      ],
      "name": "isValidSignature",
      "outputs": [
        {
          "name": "valid",
          "type": "bool"
        }
      ],
      "payable": false,
      "stateMutability": "pure",
      "type": "function"
    },
    {
      "constant": true,
      "inputs": [
        {
          "name": "",
          "type": "bytes32"
        }
      ],
      "name": "debtOfferCancelled",
      "outputs": [
        {
          "name": "",
          "type": "bool"
        }
      ],
      "payable": false,
      "stateMutability": "view",
      "type": "function"
    },
    {
      "constant": true,
      "inputs": [],
      "name": "contractRegistry",
      "outputs": [
        {
          "name": "",
          "type": "address"
        }
      ],
      "payable": false,
      "stateMutability": "view",
      "type": "function"
    },
    {
      "constant": true,
      "inputs": [
        {
          "name": "",
          "type": "bytes32"
        }
      ],
      "name": "debtOfferFilled",
      "outputs": [
        {
          "name": "",
          "type": "bool"
        }
      ],
      "payable": false,
      "stateMutability": "view",
      "type": "function"
    },
    {
      "constant": true,
      "inputs": [
        {
          "components": [
            {
              "name": "kernelVersion",
              "type": "address"
            },
            {
              "name": "issuanceVersion",
              "type": "address"
            },
            {
              "name": "principalAmount",
              "type": "uint256"
            },
            {
              "name": "principalToken",
              "type": "address"
            },
            {
              "name": "collateralAmount",
              "type": "uint256"
            },
            {
              "name": "collateralToken",
              "type": "address"
            },
            {
              "name": "debtor",
              "type": "address"
            },
            {
              "name": "debtorFee",
              "type": "uint256"
            },
            {
              "name": "creditor",
              "type": "address"
            },
            {
              "name": "creditorFee",
              "type": "uint256"
            },
            {
              "name": "relayer",
              "type": "address"
            },
            {
              "name": "relayerFee",
              "type": "uint256"
            },
            {
              "name": "underwriter",
              "type": "address"
            },
            {
              "name": "underwriterFee",
              "type": "uint256"
            },
            {
              "name": "underwriterRiskRating",
              "type": "uint256"
            },
            {
              "name": "termsContract",
              "type": "address"
            },
            {
              "name": "termsContractParameters",
              "type": "bytes32"
            },
            {
              "name": "expirationTimestampInSec",
              "type": "uint256"
            },
            {
              "name": "salt",
              "type": "uint256"
            },
            {
              "components": [
                {
                  "name": "v",
                  "type": "uint8"
                },
                {
                  "name": "r",
                  "type": "bytes32"
                },
                {
                  "name": "s",
                  "type": "bytes32"
                }
              ],
              "name": "debtorSignature",
              "type": "tuple"
            },
            {
              "components": [
                {
                  "name": "v",
                  "type": "uint8"
                },
                {
                  "name": "r",
                  "type": "bytes32"
                },
                {
                  "name": "s",
                  "type": "bytes32"
                }
              ],
              "name": "creditorSignature",
              "type": "tuple"
            },
            {
              "components": [
                {
                  "name": "v",
                  "type": "uint8"
                },
                {
                  "name": "r",
                  "type": "bytes32"
                },
                {
                  "name": "s",
                  "type": "bytes32"
                }
              ],
              "name": "underwriterSignature",
              "type": "tuple"
            }
          ],
          "name": "order",
          "type": "tuple"
        },
        {
          "name": "commitmentHash",
          "type": "bytes32"
        }
      ],
      "name": "evaluateConsent",
      "outputs": [
        {
          "name": "",
          "type": "bool"
        }
      ],
      "payable": false,
      "stateMutability": "pure",
      "type": "function"
    },
    {
      "constant": true,
      "inputs": [
        {
          "components": [
            {
              "name": "kernelVersion",
              "type": "address"
            },
            {
              "name": "issuanceVersion",
              "type": "address"
            },
            {
              "name": "principalAmount",
              "type": "uint256"
            },
            {
              "name": "principalToken",
              "type": "address"
            },
            {
              "name": "collateralAmount",
              "type": "uint256"
            },
            {
              "name": "collateralToken",
              "type": "address"
            },
            {
              "name": "debtor",
              "type": "address"
            },
            {
              "name": "debtorFee",
              "type": "uint256"
            },
            {
              "name": "creditor",
              "type": "address"
            },
            {
              "name": "creditorFee",
              "type": "uint256"
            },
            {
              "name": "relayer",
              "type": "address"
            },
            {
              "name": "relayerFee",
              "type": "uint256"
            },
            {
              "name": "underwriter",
              "type": "address"
            },
            {
              "name": "underwriterFee",
              "type": "uint256"
            },
            {
              "name": "underwriterRiskRating",
              "type": "uint256"
            },
            {
              "name": "termsContract",
              "type": "address"
            },
            {
              "name": "termsContractParameters",
              "type": "bytes32"
            },
            {
              "name": "expirationTimestampInSec",
              "type": "uint256"
            },
            {
              "name": "salt",
              "type": "uint256"
            },
            {
              "components": [
                {
                  "name": "v",
                  "type": "uint8"
                },
                {
                  "name": "r",
                  "type": "bytes32"
                },
                {
                  "name": "s",
                  "type": "bytes32"
                }
              ],
              "name": "debtorSignature",
              "type": "tuple"
            },
            {
              "components": [
                {
                  "name": "v",
                  "type": "uint8"
                },
                {
                  "name": "r",
                  "type": "bytes32"
                },
                {
                  "name": "s",
                  "type": "bytes32"
                }
              ],
              "name": "creditorSignature",
              "type": "tuple"
            },
            {
              "components": [
                {
                  "name": "v",
                  "type": "uint8"
                },
                {
                  "name": "r",
                  "type": "bytes32"
                },
                {
                  "name": "s",
                  "type": "bytes32"
                }
              ],
              "name": "underwriterSignature",
              "type": "tuple"
            }
          ],
          "name": "order",
          "type": "tuple"
        }
      ],
      "name": "unpackDebtOrder",
      "outputs": [
        {
          "name": "orderAddresses",
          "type": "address[6]"
        },
        {
          "name": "orderValues",
          "type": "uint256[8]"
        },
        {
          "name": "orderBytes32",
          "type": "bytes32[1]"
        },
        {
          "name": "signaturesV",
          "type": "uint8[3]"
        },
        {
          "name": "signaturesR",
          "type": "bytes32[3]"
        },
        {
          "name": "signaturesS",
          "type": "bytes32[3]"
        }
      ],
      "payable": false,
      "stateMutability": "pure",
      "type": "function"
    },
    {
      "constant": true,
      "inputs": [],
      "name": "EXTERNAL_QUERY_GAS_LIMIT",
      "outputs": [
        {
          "name": "",
          "type": "uint16"
        }
      ],
      "payable": false,
      "stateMutability": "view",
      "type": "function"
    },
    {
      "inputs": [
        {
          "name": "_contractRegistry",
          "type": "address"
        }
      ],
      "payable": false,
      "stateMutability": "nonpayable",
      "type": "constructor"
    },
    {
      "anonymous": false,
      "inputs": [
        {
          "indexed": true,
          "name": "_creditor",
          "type": "address"
        },
        {
          "indexed": true,
          "name": "_creditorCommitmentHash",
          "type": "bytes32"
        }
      ],
      "name": "DebtOfferCancelled",
      "type": "event"
    },
    {
      "anonymous": false,
      "inputs": [
        {
          "indexed": true,
          "name": "_creditor",
          "type": "address"
        },
        {
          "indexed": true,
          "name": "_creditorCommitmentHash",
          "type": "bytes32"
        },
        {
          "indexed": true,
          "name": "_agreementId",
          "type": "bytes32"
        }
      ],
      "name": "DebtOfferFilled",
      "type": "event"
    },
    {
      "anonymous": false,
      "inputs": [
        {
          "indexed": true,
          "name": "_errorId",
          "type": "uint8"
        },
        {
          "indexed": true,
          "name": "_creditor",
          "type": "address"
        },
        {
          "indexed": true,
          "name": "_creditorCommitmentHash",
          "type": "bytes32"
        }
      ],
      "name": "CreditorProxyError",
      "type": "event"
    },
    {
      "constant": false,
      "inputs": [
        {
          "components": [
            {
              "name": "kernelVersion",
              "type": "address"
            },
            {
              "name": "issuanceVersion",
              "type": "address"
            },
            {
              "name": "principalAmount",
              "type": "uint256"
            },
            {
              "name": "principalToken",
              "type": "address"
            },
            {
              "name": "collateralAmount",
              "type": "uint256"
            },
            {
              "name": "collateralToken",
              "type": "address"
            },
            {
              "name": "debtor",
              "type": "address"
            },
            {
              "name": "debtorFee",
              "type": "uint256"
            },
            {
              "name": "creditor",
              "type": "address"
            },
            {
              "name": "creditorFee",
              "type": "uint256"
            },
            {
              "name": "relayer",
              "type": "address"
            },
            {
              "name": "relayerFee",
              "type": "uint256"
            },
            {
              "name": "underwriter",
              "type": "address"
            },
            {
              "name": "underwriterFee",
              "type": "uint256"
            },
            {
              "name": "underwriterRiskRating",
              "type": "uint256"
            },
            {
              "name": "termsContract",
              "type": "address"
            },
            {
              "name": "termsContractParameters",
              "type": "bytes32"
            },
            {
              "name": "expirationTimestampInSec",
              "type": "uint256"
            },
            {
              "name": "salt",
              "type": "uint256"
            },
            {
              "components": [
                {
                  "name": "v",
                  "type": "uint8"
                },
                {
                  "name": "r",
                  "type": "bytes32"
                },
                {
                  "name": "s",
                  "type": "bytes32"
                }
              ],
              "name": "debtorSignature",
              "type": "tuple"
            },
            {
              "components": [
                {
                  "name": "v",
                  "type": "uint8"
                },
                {
                  "name": "r",
                  "type": "bytes32"
                },
                {
                  "name": "s",
                  "type": "bytes32"
                }
              ],
              "name": "creditorSignature",
              "type": "tuple"
            },
            {
              "components": [
                {
                  "name": "v",
                  "type": "uint8"
                },
                {
                  "name": "r",
                  "type": "bytes32"
                },
                {
                  "name": "s",
                  "type": "bytes32"
                }
              ],
              "name": "underwriterSignature",
              "type": "tuple"
            }
          ],
          "name": "order",
          "type": "tuple"
        }
      ],
      "name": "fillDebtOffer",
      "outputs": [
        {
          "name": "agreementId",
          "type": "bytes32"
        }
      ],
      "payable": false,
      "stateMutability": "nonpayable",
      "type": "function"
    },
    {
      "constant": false,
      "inputs": [
        {
          "components": [
            {
              "name": "kernelVersion",
              "type": "address"
            },
            {
              "name": "issuanceVersion",
              "type": "address"
            },
            {
              "name": "principalAmount",
              "type": "uint256"
            },
            {
              "name": "principalToken",
              "type": "address"
            },
            {
              "name": "collateralAmount",
              "type": "uint256"
            },
            {
              "name": "collateralToken",
              "type": "address"
            },
            {
              "name": "debtor",
              "type": "address"
            },
            {
              "name": "debtorFee",
              "type": "uint256"
            },
            {
              "name": "creditor",
              "type": "address"
            },
            {
              "name": "creditorFee",
              "type": "uint256"
            },
            {
              "name": "relayer",
              "type": "address"
            },
            {
              "name": "relayerFee",
              "type": "uint256"
            },
            {
              "name": "underwriter",
              "type": "address"
            },
            {
              "name": "underwriterFee",
              "type": "uint256"
            },
            {
              "name": "underwriterRiskRating",
              "type": "uint256"
            },
            {
              "name": "termsContract",
              "type": "address"
            },
            {
              "name": "termsContractParameters",
              "type": "bytes32"
            },
            {
              "name": "expirationTimestampInSec",
              "type": "uint256"
            },
            {
              "name": "salt",
              "type": "uint256"
            },
            {
              "components": [
                {
                  "name": "v",
                  "type": "uint8"
                },
                {
                  "name": "r",
                  "type": "bytes32"
                },
                {
                  "name": "s",
                  "type": "bytes32"
                }
              ],
              "name": "debtorSignature",
              "type": "tuple"
            },
            {
              "components": [
                {
                  "name": "v",
                  "type": "uint8"
                },
                {
                  "name": "r",
                  "type": "bytes32"
                },
                {
                  "name": "s",
                  "type": "bytes32"
                }
              ],
              "name": "creditorSignature",
              "type": "tuple"
            },
            {
              "components": [
                {
                  "name": "v",
                  "type": "uint8"
                },
                {
                  "name": "r",
                  "type": "bytes32"
                },
                {
                  "name": "s",
                  "type": "bytes32"
                }
              ],
              "name": "underwriterSignature",
              "type": "tuple"
            }
          ],
          "name": "order",
          "type": "tuple"
        }
      ],
      "name": "cancelDebtOffer",
      "outputs": [
        {
          "name": "succeeded",
          "type": "bool"
        }
      ],
      "payable": false,
      "stateMutability": "nonpayable",
      "type": "function"
    }
  ],
  "bytecode": "0x60806040523480156200001157600080fd5b5060405160208062002133833981018060405262000033919081019062000090565b806000806101000a81548173ffffffffffffffffffffffffffffffffffffffff021916908373ffffffffffffffffffffffffffffffffffffffff16021790555050620000dc565b6000620000888251620000bc565b905092915050565b600060208284031215620000a357600080fd5b6000620000b3848285016200007a565b91505092915050565b600073ffffffffffffffffffffffffffffffffffffffff82169050919050565b61204780620000ec6000396000f3006080604052600436106100a4576000357c0100000000000000000000000000000000000000000000000000000000900463ffffffff168063072f262e146100a95780631ca54006146100e6578063578911ac14610123578063a318b5f714610160578063abc154801461019d578063abf410e5146101da578063c1614d0014610205578063d46b836d14610242578063e301885c1461027f578063f06bbf75146102c1575b600080fd5b3480156100b557600080fd5b506100d060048036036100cb91908101906119c1565b6102ec565b6040516100dd9190611db0565b60405180910390f35b3480156100f257600080fd5b5061010d600480360361010891908101906119c1565b6104b0565b60405161011a9190611d95565b60405180910390f35b34801561012f57600080fd5b5061014a6004803603610145919081019061187c565b6105c3565b6040516101579190611d95565b60405180910390f35b34801561016c57600080fd5b50610187600480360361018291908101906118f4565b610705565b6040516101949190611d95565b60405180910390f35b3480156101a957600080fd5b506101c460048036036101bf91908101906119c1565b610725565b6040516101d19190611db0565b60405180910390f35b3480156101e657600080fd5b506101ef610c18565b6040516101fc9190611e10565b60405180910390f35b34801561021157600080fd5b5061022c600480360361022791908101906118f4565b610c3d565b6040516102399190611d95565b60405180910390f35b34801561024e57600080fd5b50610269600480360361026491908101906119eb565b610c5d565b6040516102769190611d95565b60405180910390f35b34801561028b57600080fd5b506102a660048036036102a191908101906119c1565b610c7c565b6040516102b896959493929190611d2f565b60405180910390f35b3480156102cd57600080fd5b506102d6610f77565b6040516102e39190611e2b565b60405180910390f35b600081610100015182600001518360200151846101e00151856060015186610240015187604001518861012001518961022001518a6102000151604051808b73ffffffffffffffffffffffffffffffffffffffff1673ffffffffffffffffffffffffffffffffffffffff166c010000000000000000000000000281526014018a73ffffffffffffffffffffffffffffffffffffffff1673ffffffffffffffffffffffffffffffffffffffff166c010000000000000000000000000281526014018973ffffffffffffffffffffffffffffffffffffffff1673ffffffffffffffffffffffffffffffffffffffff166c010000000000000000000000000281526014018873ffffffffffffffffffffffffffffffffffffffff1673ffffffffffffffffffffffffffffffffffffffff166c010000000000000000000000000281526014018773ffffffffffffffffffffffffffffffffffffffff1673ffffffffffffffffffffffffffffffffffffffff166c0100000000000000000000000002815260140186815260200185815260200184815260200183815260200182600019166000191681526020019a505050505050505050505060405180910390209050919050565b60008082610100015173ffffffffffffffffffffffffffffffffffffffff163373ffffffffffffffffffffffffffffffffffffffff161415156104f657600091506105bd565b6104ff836102ec565b905060026000826000191660001916815260200190815260200160002060009054906101000a900460ff161561053857600091506105bd565b6001806000836000191660001916815260200190815260200160002060006101000a81548160ff021916908315150217905550806000191683610100015173ffffffffffffffffffffffffffffffffffffffff167f320c5376a3da7bddef2f74a91d4575f1a8547203712054ca2cf5f3ae3cadeb0560405160405180910390a3600191505b50919050565b6000806040805190810160405280601c81526020017f19457468657265756d205369676e6564204d6573736167653a0a333200000000815250846040518083805190602001908083835b602083101515610632578051825260208201915060208101905060208303925061060d565b6001836020036101000a038019825116818451168082178552505050505050905001826000191660001916815260200192505050604051809103902090508473ffffffffffffffffffffffffffffffffffffffff16600182856000015186602001518760400151604051600081526020016040526040516106b69493929190611dcb565b60206040516020810390808403906000865af11580156106da573d6000803e3d6000fd5b5050506020604051035173ffffffffffffffffffffffffffffffffffffffff16149150509392505050565b60016020528060005260406000206000915054906101000a900460ff1681565b6000806000806000610736866102ec565b93506107428685610c5d565b15156107b157836000191686610100015173ffffffffffffffffffffffffffffffffffffffff166002600481111561077657fe5b60ff167f9fd787e2a5fcbda76c8a1a1f8bb14a3328d4991b94bd7461fe7468aaedbd6d2460405160405180910390a460006001029450610c0f565b60026000856000191660001916815260200190815260200160002060009054906101000a900460ff161561084857836000191686610100015173ffffffffffffffffffffffffffffffffffffffff166001600481111561080d57fe5b60ff167f9fd787e2a5fcbda76c8a1a1f8bb14a3328d4991b94bd7461fe7468aaedbd6d2460405160405180910390a460006001029450610c0f565b60016000856000191660001916815260200190815260200160002060009054906101000a900460ff16156108df57836000191686610100015173ffffffffffffffffffffffffffffffffffffffff16600060048111156108a457fe5b60ff167f9fd787e2a5fcbda76c8a1a1f8bb14a3328d4991b94bd7461fe7468aaedbd6d2460405160405180910390a460006001029450610c0f565b856060015192506109ad83306000809054906101000a900473ffffffffffffffffffffffffffffffffffffffff1673ffffffffffffffffffffffffffffffffffffffff16630eefdbad6040518163ffffffff167c0100000000000000000000000000000000000000000000000000000000028152600401602060405180830381600087803b15801561097057600080fd5b505af1158015610984573d6000803e3d6000fd5b505050506040513d601f19601f820116820180604052506109a89190810190611998565b610f7d565b91506109cb866101200151876040015161103990919063ffffffff16565b9050808210156109eb576109df8382611055565b15156109ea57600080fd5b5b6000811115610a1157610a058387610100015130846111c4565b1515610a1057600080fd5b5b610a1a8661127b565b9450600060010260001916856000191614151515610a3757600080fd5b600160026000866000191660001916815260200190815260200160002060006101000a81548160ff0219169083151502179055506000809054906101000a900473ffffffffffffffffffffffffffffffffffffffff1673ffffffffffffffffffffffffffffffffffffffff1663f8d898986040518163ffffffff167c0100000000000000000000000000000000000000000000000000000000028152600401602060405180830381600087803b158015610af057600080fd5b505af1158015610b04573d6000803e3d6000fd5b505050506040513d601f19601f82011682018060405250610b28919081019061196f565b73ffffffffffffffffffffffffffffffffffffffff1663a9059cbb87610100015187600190046040518363ffffffff167c0100000000000000000000000000000000000000000000000000000000028152600401610b87929190611d06565b600060405180830381600087803b158015610ba157600080fd5b505af1158015610bb5573d6000803e3d6000fd5b505050508460001916846000191687610100015173ffffffffffffffffffffffffffffffffffffffff167fdc3cdf07a43996ceac82462ded070dbc1bf60c3d66cfa11770cd91a41b1c62e060405160405180910390a48494505b50505050919050565b6000809054906101000a900473ffffffffffffffffffffffffffffffffffffffff1681565b60026020528060005260406000206000915054906101000a900460ff1681565b6000610c74836101000151838561028001516105c3565b905092915050565b610c8461144a565b610c8c61146d565b610c94611491565b610c9c6114b4565b610ca46114d7565b610cac6114d7565b60c060405190810160405280886020015173ffffffffffffffffffffffffffffffffffffffff1673ffffffffffffffffffffffffffffffffffffffff1681526020018860c0015173ffffffffffffffffffffffffffffffffffffffff1673ffffffffffffffffffffffffffffffffffffffff16815260200188610180015173ffffffffffffffffffffffffffffffffffffffff1673ffffffffffffffffffffffffffffffffffffffff168152602001886101e0015173ffffffffffffffffffffffffffffffffffffffff1673ffffffffffffffffffffffffffffffffffffffff168152602001886060015173ffffffffffffffffffffffffffffffffffffffff1673ffffffffffffffffffffffffffffffffffffffff16815260200188610140015173ffffffffffffffffffffffffffffffffffffffff1673ffffffffffffffffffffffffffffffffffffffff1681525061010060405190810160405280896101c001518152602001896102400151815260200189604001518152602001896101a001518152602001896101600151815260200189610120015181526020018960e0015181526020018961022001518152506020604051908101604052808a610200015160001916600019168152506060604051908101604052808b61026001516000015160ff1660ff1681526020018b61028001516000015160ff1660ff1681526020018b6102a001516000015160ff1660ff168152506060604051908101604052808c610260015160200151600019166000191681526020018c610280015160200151600019166000191681526020018c6102a001516020015160001916600019168152506060604051908101604052808d610260015160400151600019166000191681526020018d610280015160400151600019166000191681526020018d6102a0015160400151600019166000191681525095509550955095509550955091939550919395565b611f4081565b60008373ffffffffffffffffffffffffffffffffffffffff1663dd62ed3e611f4061ffff1685856040518463ffffffff167c0100000000000000000000000000000000000000000000000000000000028152600401610fdd929190611c32565b602060405180830381600088803b158015610ff757600080fd5b5087f115801561100b573d6000803e3d6000fd5b50505050506040513d601f19601f820116820180604052506110309190810190611a29565b90509392505050565b6000818301905082811015151561104c57fe5b80905092915050565b60008273ffffffffffffffffffffffffffffffffffffffff1663095ea7b36000809054906101000a900473ffffffffffffffffffffffffffffffffffffffff1673ffffffffffffffffffffffffffffffffffffffff16630eefdbad6040518163ffffffff167c0100000000000000000000000000000000000000000000000000000000028152600401602060405180830381600087803b1580156110f857600080fd5b505af115801561110c573d6000803e3d6000fd5b505050506040513d601f19601f820116820180604052506111309190810190611998565b846040518363ffffffff167c010000000000000000000000000000000000000000000000000000000002815260040161116a929190611d06565b602060405180830381600087803b15801561118457600080fd5b505af1158015611198573d6000803e3d6000fd5b505050506040513d601f19601f820116820180604052506111bc91908101906118cb565b905092915050565b60008473ffffffffffffffffffffffffffffffffffffffff166323b872dd8585856040518463ffffffff167c010000000000000000000000000000000000000000000000000000000002815260040161121f93929190611c5b565b602060405180830381600087803b15801561123957600080fd5b505af115801561124d573d6000803e3d6000fd5b505050506040513d601f19601f8201168201806040525061127191908101906118cb565b9050949350505050565b600061128561144a565b61128d61146d565b611295611491565b61129d6114b4565b6112a56114d7565b6112ad6114d7565b6112b688610c7c565b809650819750829850839950849a50859b505050505050506000809054906101000a900473ffffffffffffffffffffffffffffffffffffffff1673ffffffffffffffffffffffffffffffffffffffff1663079dd4b76040518163ffffffff167c0100000000000000000000000000000000000000000000000000000000028152600401602060405180830381600087803b15801561135357600080fd5b505af1158015611367573d6000803e3d6000fd5b505050506040513d601f19601f8201168201806040525061138b9190810190611946565b73ffffffffffffffffffffffffffffffffffffffff1663e6488fc9308888888888886040518863ffffffff167c01000000000000000000000000000000000000000000000000000000000281526004016113eb9796959493929190611c92565b602060405180830381600087803b15801561140557600080fd5b505af1158015611419573d6000803e3d6000fd5b505050506040513d601f19601f8201168201806040525061143d919081019061191d565b9650505050505050919050565b60c060405190810160405280600690602082028038833980820191505090505090565b61010060405190810160405280600890602082028038833980820191505090505090565b602060405190810160405280600190602082028038833980820191505090505090565b606060405190810160405280600390602082028038833980820191505090505090565b606060405190810160405280600390602082028038833980820191505090505090565b60006115068235611f78565b905092915050565b600061151a8251611f98565b905092915050565b600061152e8235611fa4565b905092915050565b60006115428251611fa4565b905092915050565b60006115568251611fae565b905092915050565b600061156a8251611fc0565b905092915050565b600061157e8251611fd2565b905092915050565b6000610380828403121561159957600080fd5b6115a46102c0611e46565b905060006115b4848285016114fa565b60008301525060206115c8848285016114fa565b60208301525060406115dc84828501611840565b60408301525060606115f0848285016114fa565b606083015250608061160484828501611840565b60808301525060a0611618848285016114fa565b60a08301525060c061162c848285016114fa565b60c08301525060e061164084828501611840565b60e083015250610100611655848285016114fa565b6101008301525061012061166b84828501611840565b61012083015250610140611681848285016114fa565b6101408301525061016061169784828501611840565b610160830152506101806116ad848285016114fa565b610180830152506101a06116c384828501611840565b6101a0830152506101c06116d984828501611840565b6101c0830152506101e06116ef848285016114fa565b6101e08301525061020061170584828501611522565b6102008301525061022061171b84828501611840565b6102208301525061024061173184828501611840565b6102408301525061026061174784828501611780565b610260830152506102c061175d84828501611780565b6102808301525061032061177384828501611780565b6102a08301525092915050565b60006060828403121561179257600080fd5b61179c6060611e46565b905060006117ac84828501611868565b60008301525060206117c084828501611522565b60208301525060406117d484828501611522565b60408301525092915050565b6000606082840312156117f257600080fd5b6117fc6060611e46565b9050600061180c84828501611868565b600083015250602061182084828501611522565b602083015250604061183484828501611522565b60408301525092915050565b600061184c8235611fe4565b905092915050565b60006118608251611fe4565b905092915050565b60006118748235611fee565b905092915050565b600080600060a0848603121561189157600080fd5b600061189f868287016114fa565b93505060206118b086828701611522565b92505060406118c1868287016117e0565b9150509250925092565b6000602082840312156118dd57600080fd5b60006118eb8482850161150e565b91505092915050565b60006020828403121561190657600080fd5b600061191484828501611522565b91505092915050565b60006020828403121561192f57600080fd5b600061193d84828501611536565b91505092915050565b60006020828403121561195857600080fd5b60006119668482850161154a565b91505092915050565b60006020828403121561198157600080fd5b600061198f8482850161155e565b91505092915050565b6000602082840312156119aa57600080fd5b60006119b884828501611572565b91505092915050565b600061038082840312156119d457600080fd5b60006119e284828501611586565b91505092915050565b6000806103a083850312156119ff57600080fd5b6000611a0d85828601611586565b925050610380611a1f85828601611522565b9150509250929050565b600060208284031215611a3b57600080fd5b6000611a4984828501611854565b91505092915050565b611a5b81611f1d565b82525050565b611a6a81611ea5565b611a7382611e73565b60005b82811015611aa557611a89858351611a52565b611a9282611edc565b9150602085019450600181019050611a76565b5050505050565b611ab581611eb0565b611abe82611e7d565b60005b82811015611af057611ad4858351611be7565b611add82611ee9565b9150602085019450600181019050611ac1565b5050505050565b611b0081611ebb565b611b0982611e87565b60005b82811015611b3b57611b1f858351611be7565b611b2882611ef6565b9150602085019450600181019050611b0c565b5050505050565b611b4b81611ec6565b611b5482611e91565b60005b82811015611b8657611b6a858351611c14565b611b7382611f03565b9150602085019450600181019050611b57565b5050505050565b611b9681611ed1565b611b9f82611e9b565b60005b82811015611bd157611bb5858351611c23565b611bbe82611f10565b9150602085019450600181019050611ba2565b5050505050565b611be181611f3d565b82525050565b611bf081611f49565b82525050565b611bff81611ffb565b82525050565b611c0e81611f53565b82525050565b611c1d81611f61565b82525050565b611c2c81611f6b565b82525050565b6000604082019050611c476000830185611a52565b611c546020830184611a52565b9392505050565b6000606082019050611c706000830186611a52565b611c7d6020830185611a52565b611c8a6040830184611c14565b949350505050565b600061032082019050611ca8600083018a611a52565b611cb56020830189611a61565b611cc260e0830188611b42565b611cd06101e0830187611aac565b611cde610200830186611b8d565b611cec610260830185611af7565b611cfa6102c0830184611af7565b98975050505050505050565b6000604082019050611d1b6000830185611a52565b611d286020830184611c14565b9392505050565b600061030082019050611d456000830189611a61565b611d5260c0830188611b42565b611d606101c0830187611aac565b611d6e6101e0830186611b8d565b611d7c610240830185611af7565b611d8a6102a0830184611af7565b979650505050505050565b6000602082019050611daa6000830184611bd8565b92915050565b6000602082019050611dc56000830184611be7565b92915050565b6000608082019050611de06000830187611be7565b611ded6020830186611c23565b611dfa6040830185611be7565b611e076060830184611be7565b95945050505050565b6000602082019050611e256000830184611bf6565b92915050565b6000602082019050611e406000830184611c05565b92915050565b6000604051905081810181811067ffffffffffffffff82111715611e6957600080fd5b8060405250919050565b6000819050919050565b6000819050919050565b6000819050919050565b6000819050919050565b6000819050919050565b600060069050919050565b600060019050919050565b600060039050919050565b600060089050919050565b600060039050919050565b6000602082019050919050565b6000602082019050919050565b6000602082019050919050565b6000602082019050919050565b6000602082019050919050565b600073ffffffffffffffffffffffffffffffffffffffff82169050919050565b60008115159050919050565b6000819050919050565b600061ffff82169050919050565b6000819050919050565b600060ff82169050919050565b600073ffffffffffffffffffffffffffffffffffffffff82169050919050565b60008115159050919050565b6000819050919050565b6000611fb982611f1d565b9050919050565b6000611fcb82611f1d565b9050919050565b6000611fdd82611f1d565b9050919050565b6000819050919050565b600060ff82169050919050565b600061200682611f1d565b90509190505600a265627a7a7230582001a4ddfe591cdad3050cb2d93c684bf72c7f9891011cdc6377b393ad335e2b136c6578706572696d656e74616cf50037",
  "source": "pragma solidity ^0.4.24;\npragma experimental ABIEncoderV2;\n\n// External libraries\nimport \"zeppelin-solidity/contracts/math/SafeMath.sol\";\n// Internal libraries\nimport \"../shared/libraries/OrderLibrary.sol\";\n// Internal mixins\nimport \"./DecisionEngines/NaiveDecisionEngine.sol\";\nimport \"./CreditorProxyCore.sol\";\n\n\ncontract NaiveCreditorProxy is CreditorProxyCore, NaiveDecisionEngine {\n    using SafeMath for uint;\n\n    mapping (bytes32 => bool) public debtOfferCancelled;\n    mapping (bytes32 => bool) public debtOfferFilled;\n\n    bytes32 constant internal NULL_ISSUANCE_HASH = bytes32(0);\n\n    function NaiveCreditorProxy(address _contractRegistry) public {\n        contractRegistry = ContractRegistryInterface(_contractRegistry);\n    }\n\n    function fillDebtOffer(DebtOrder memory order) public returns (bytes32 agreementId) {\n        bytes32 creditorCommitmentHash = hashCreditorCommitmentForOrder(order);\n\n        if (!evaluateConsent(order, creditorCommitmentHash)) {\n            emit CreditorProxyError(uint8(Errors.DEBT_OFFER_NON_CONSENSUAL), order.creditor, creditorCommitmentHash);\n            return NULL_ISSUANCE_HASH;\n        }\n\n        if (debtOfferFilled[creditorCommitmentHash]) {\n            emit CreditorProxyError(uint8(Errors.DEBT_OFFER_ALREADY_FILLED), order.creditor, creditorCommitmentHash);\n            return NULL_ISSUANCE_HASH;\n        }\n\n        if (debtOfferCancelled[creditorCommitmentHash]) {\n            emit CreditorProxyError(uint8(Errors.DEBT_OFFER_CANCELLED), order.creditor, creditorCommitmentHash);\n            return NULL_ISSUANCE_HASH;\n        }\n\n        address principalToken = order.principalToken;\n\n        // The allowance that the token transfer proxy has for this contract's tokens.\n        uint tokenTransferAllowance = getAllowance(\n            principalToken,\n            address(this),\n            contractRegistry.tokenTransferProxy()\n        );\n\n        uint totalCreditorPayment = order.principalAmount.add(order.creditorFee);\n\n        // Ensure the token transfer proxy can transfer tokens from the creditor proxy\n        if (tokenTransferAllowance < totalCreditorPayment) {\n            require(setTokenTransferAllowance(principalToken, totalCreditorPayment));\n        }\n\n        // Transfer principal from creditor to CreditorProxy\n        if (totalCreditorPayment > 0) {\n            require(\n                transferTokensFrom(\n                    principalToken,\n                    order.creditor,\n                    address(this),\n                    totalCreditorPayment\n                )\n            );\n        }\n\n        agreementId = sendOrderToKernel(order);\n\n        require(agreementId != NULL_ISSUANCE_HASH);\n\n        debtOfferFilled[creditorCommitmentHash] = true;\n\n        contractRegistry.debtToken().transfer(order.creditor, uint256(agreementId));\n\n        emit DebtOfferFilled(order.creditor, creditorCommitmentHash, agreementId);\n\n        return agreementId;\n    }\n\n    function sendOrderToKernel(DebtOrder memory order) internal returns (bytes32 id) {\n        address[6] memory orderAddresses;\n        uint[8] memory orderValues;\n        bytes32[1] memory orderBytes32;\n        uint8[3] memory signaturesV;\n        bytes32[3] memory signaturesR;\n        bytes32[3] memory signaturesS;\n\n        (orderAddresses, orderValues, orderBytes32, signaturesV, signaturesR, signaturesS) = unpackDebtOrder(order);\n\n        return contractRegistry.debtKernel().fillDebtOrder(\n            address(this),\n            orderAddresses,\n            orderValues,\n            orderBytes32,\n            signaturesV,\n            signaturesR,\n            signaturesS\n        );\n    }\n\n    function cancelDebtOffer(DebtOrder memory order) public returns (bool succeeded)\n    {\n        // Sender must be the creditor.\n        if (msg.sender != order.creditor) {\n            return false;\n        }\n\n        bytes32 creditorCommitmentHash = hashCreditorCommitmentForOrder(order);\n\n        // Debt offer must not already be filled.\n        if (debtOfferFilled[creditorCommitmentHash]) {\n            return false;\n        }\n\n        debtOfferCancelled[creditorCommitmentHash] = true;\n\n        emit DebtOfferCancelled(order.creditor, creditorCommitmentHash);\n\n        return true;\n    }\n\n\t/**\n     * Helper function for approving this address' allowance to Dharma's token transfer proxy.\n     */\n\tfunction setTokenTransferAllowance(\n\t\taddress token,\n\t\tuint amount\n\t)\n\t\tinternal\n\t\treturns (bool _success)\n\t{\n\t\treturn ERC20(token).approve(\n\t\t\taddress(contractRegistry.tokenTransferProxy()),\n\t\t\tamount\n\t\t);\n\t}\n}\n",
  "sourcePath": "/home/bogdan/Projects/qw/experimental/contracts/src/CreditorDrivenLoans/NaiveCreditorProxy.sol",
  "compiler": {
    "name": "solc",
    "version": "0.4.24+commit.e67f0147.Emscripten.clang"
  },
  "schemaVersion": "2.0.1",
  "updatedAt": "2018-11-25T19:53:28.678Z"
}