{
  "contractName": "NaiveDecisionEngine",
  "abi": [
    {
      "constant": true,
      "inputs": [
        {
          "name": "signer",
          "type": "address"
        },
        {
          "name": "hash",
          "type": "bytes32"
        },
        {
          "components": [
            {
              "name": "v",
              "type": "uint8"
            },
            {
              "name": "r",
              "type": "bytes32"
            },
            {
              "name": "s",
              "type": "bytes32"
            }
          ],
          "name": "signature",
          "type": "tuple"
        }
      ],
      "name": "isValidSignature",
      "outputs": [
        {
          "name": "valid",
          "type": "bool"
        }
      ],
      "payable": false,
      "stateMutability": "pure",
      "type": "function"
    },
    {
      "constant": true,
      "inputs": [
        {
          "components": [
            {
              "name": "kernelVersion",
              "type": "address"
            },
            {
              "name": "issuanceVersion",
              "type": "address"
            },
            {
              "name": "principalAmount",
              "type": "uint256"
            },
            {
              "name": "principalToken",
              "type": "address"
            },
            {
              "name": "collateralAmount",
              "type": "uint256"
            },
            {
              "name": "collateralToken",
              "type": "address"
            },
            {
              "name": "debtor",
              "type": "address"
            },
            {
              "name": "debtorFee",
              "type": "uint256"
            },
            {
              "name": "creditor",
              "type": "address"
            },
            {
              "name": "creditorFee",
              "type": "uint256"
            },
            {
              "name": "relayer",
              "type": "address"
            },
            {
              "name": "relayerFee",
              "type": "uint256"
            },
            {
              "name": "underwriter",
              "type": "address"
            },
            {
              "name": "underwriterFee",
              "type": "uint256"
            },
            {
              "name": "underwriterRiskRating",
              "type": "uint256"
            },
            {
              "name": "termsContract",
              "type": "address"
            },
            {
              "name": "termsContractParameters",
              "type": "bytes32"
            },
            {
              "name": "expirationTimestampInSec",
              "type": "uint256"
            },
            {
              "name": "salt",
              "type": "uint256"
            },
            {
              "components": [
                {
                  "name": "v",
                  "type": "uint8"
                },
                {
                  "name": "r",
                  "type": "bytes32"
                },
                {
                  "name": "s",
                  "type": "bytes32"
                }
              ],
              "name": "debtorSignature",
              "type": "tuple"
            },
            {
              "components": [
                {
                  "name": "v",
                  "type": "uint8"
                },
                {
                  "name": "r",
                  "type": "bytes32"
                },
                {
                  "name": "s",
                  "type": "bytes32"
                }
              ],
              "name": "creditorSignature",
              "type": "tuple"
            },
            {
              "components": [
                {
                  "name": "v",
                  "type": "uint8"
                },
                {
                  "name": "r",
                  "type": "bytes32"
                },
                {
                  "name": "s",
                  "type": "bytes32"
                }
              ],
              "name": "underwriterSignature",
              "type": "tuple"
            }
          ],
          "name": "order",
          "type": "tuple"
        }
      ],
      "name": "unpackDebtOrder",
      "outputs": [
        {
          "name": "orderAddresses",
          "type": "address[6]"
        },
        {
          "name": "orderValues",
          "type": "uint256[8]"
        },
        {
          "name": "orderBytes32",
          "type": "bytes32[1]"
        },
        {
          "name": "signaturesV",
          "type": "uint8[3]"
        },
        {
          "name": "signaturesR",
          "type": "bytes32[3]"
        },
        {
          "name": "signaturesS",
          "type": "bytes32[3]"
        }
      ],
      "payable": false,
      "stateMutability": "pure",
      "type": "function"
    },
    {
      "constant": true,
      "inputs": [
        {
          "components": [
            {
              "name": "kernelVersion",
              "type": "address"
            },
            {
              "name": "issuanceVersion",
              "type": "address"
            },
            {
              "name": "principalAmount",
              "type": "uint256"
            },
            {
              "name": "principalToken",
              "type": "address"
            },
            {
              "name": "collateralAmount",
              "type": "uint256"
            },
            {
              "name": "collateralToken",
              "type": "address"
            },
            {
              "name": "debtor",
              "type": "address"
            },
            {
              "name": "debtorFee",
              "type": "uint256"
            },
            {
              "name": "creditor",
              "type": "address"
            },
            {
              "name": "creditorFee",
              "type": "uint256"
            },
            {
              "name": "relayer",
              "type": "address"
            },
            {
              "name": "relayerFee",
              "type": "uint256"
            },
            {
              "name": "underwriter",
              "type": "address"
            },
            {
              "name": "underwriterFee",
              "type": "uint256"
            },
            {
              "name": "underwriterRiskRating",
              "type": "uint256"
            },
            {
              "name": "termsContract",
              "type": "address"
            },
            {
              "name": "termsContractParameters",
              "type": "bytes32"
            },
            {
              "name": "expirationTimestampInSec",
              "type": "uint256"
            },
            {
              "name": "salt",
              "type": "uint256"
            },
            {
              "components": [
                {
                  "name": "v",
                  "type": "uint8"
                },
                {
                  "name": "r",
                  "type": "bytes32"
                },
                {
                  "name": "s",
                  "type": "bytes32"
                }
              ],
              "name": "debtorSignature",
              "type": "tuple"
            },
            {
              "components": [
                {
                  "name": "v",
                  "type": "uint8"
                },
                {
                  "name": "r",
                  "type": "bytes32"
                },
                {
                  "name": "s",
                  "type": "bytes32"
                }
              ],
              "name": "creditorSignature",
              "type": "tuple"
            },
            {
              "components": [
                {
                  "name": "v",
                  "type": "uint8"
                },
                {
                  "name": "r",
                  "type": "bytes32"
                },
                {
                  "name": "s",
                  "type": "bytes32"
                }
              ],
              "name": "underwriterSignature",
              "type": "tuple"
            }
          ],
          "name": "order",
          "type": "tuple"
        },
        {
          "name": "commitmentHash",
          "type": "bytes32"
        }
      ],
      "name": "evaluateConsent",
      "outputs": [
        {
          "name": "",
          "type": "bool"
        }
      ],
      "payable": false,
      "stateMutability": "pure",
      "type": "function"
    },
    {
      "constant": true,
      "inputs": [
        {
          "components": [
            {
              "name": "kernelVersion",
              "type": "address"
            },
            {
              "name": "issuanceVersion",
              "type": "address"
            },
            {
              "name": "principalAmount",
              "type": "uint256"
            },
            {
              "name": "principalToken",
              "type": "address"
            },
            {
              "name": "collateralAmount",
              "type": "uint256"
            },
            {
              "name": "collateralToken",
              "type": "address"
            },
            {
              "name": "debtor",
              "type": "address"
            },
            {
              "name": "debtorFee",
              "type": "uint256"
            },
            {
              "name": "creditor",
              "type": "address"
            },
            {
              "name": "creditorFee",
              "type": "uint256"
            },
            {
              "name": "relayer",
              "type": "address"
            },
            {
              "name": "relayerFee",
              "type": "uint256"
            },
            {
              "name": "underwriter",
              "type": "address"
            },
            {
              "name": "underwriterFee",
              "type": "uint256"
            },
            {
              "name": "underwriterRiskRating",
              "type": "uint256"
            },
            {
              "name": "termsContract",
              "type": "address"
            },
            {
              "name": "termsContractParameters",
              "type": "bytes32"
            },
            {
              "name": "expirationTimestampInSec",
              "type": "uint256"
            },
            {
              "name": "salt",
              "type": "uint256"
            },
            {
              "components": [
                {
                  "name": "v",
                  "type": "uint8"
                },
                {
                  "name": "r",
                  "type": "bytes32"
                },
                {
                  "name": "s",
                  "type": "bytes32"
                }
              ],
              "name": "debtorSignature",
              "type": "tuple"
            },
            {
              "components": [
                {
                  "name": "v",
                  "type": "uint8"
                },
                {
                  "name": "r",
                  "type": "bytes32"
                },
                {
                  "name": "s",
                  "type": "bytes32"
                }
              ],
              "name": "creditorSignature",
              "type": "tuple"
            },
            {
              "components": [
                {
                  "name": "v",
                  "type": "uint8"
                },
                {
                  "name": "r",
                  "type": "bytes32"
                },
                {
                  "name": "s",
                  "type": "bytes32"
                }
              ],
              "name": "underwriterSignature",
              "type": "tuple"
            }
          ],
          "name": "order",
          "type": "tuple"
        }
      ],
      "name": "hashCreditorCommitmentForOrder",
      "outputs": [
        {
          "name": "_creditorCommitmentHash",
          "type": "bytes32"
        }
      ],
      "payable": false,
      "stateMutability": "pure",
      "type": "function"
    }
  ],
  "bytecode": "0x608060405234801561001057600080fd5b50611033806100206000396000f300608060405260043610610062576000357c0100000000000000000000000000000000000000000000000000000000900463ffffffff168063072f262e14610067578063578911ac146100a4578063d46b836d146100e1578063e301885c1461011e575b600080fd5b34801561007357600080fd5b5061008e60048036036100899190810190610b89565b610160565b60405161009b9190610e34565b60405180910390f35b3480156100b057600080fd5b506100cb60048036036100c69190810190610b3a565b610324565b6040516100d89190610e19565b60405180910390f35b3480156100ed57600080fd5b5061010860048036036101039190810190610bb3565b610466565b6040516101159190610e19565b60405180910390f35b34801561012a57600080fd5b5061014560048036036101409190810190610b89565b610485565b60405161015796959493929190610db3565b60405180910390f35b600081610100015182600001518360200151846101e00151856060015186610240015187604001518861012001518961022001518a6102000151604051808b73ffffffffffffffffffffffffffffffffffffffff1673ffffffffffffffffffffffffffffffffffffffff166c010000000000000000000000000281526014018a73ffffffffffffffffffffffffffffffffffffffff1673ffffffffffffffffffffffffffffffffffffffff166c010000000000000000000000000281526014018973ffffffffffffffffffffffffffffffffffffffff1673ffffffffffffffffffffffffffffffffffffffff166c010000000000000000000000000281526014018873ffffffffffffffffffffffffffffffffffffffff1673ffffffffffffffffffffffffffffffffffffffff166c010000000000000000000000000281526014018773ffffffffffffffffffffffffffffffffffffffff1673ffffffffffffffffffffffffffffffffffffffff166c0100000000000000000000000002815260140186815260200185815260200184815260200183815260200182600019166000191681526020019a505050505050505050505060405180910390209050919050565b6000806040805190810160405280601c81526020017f19457468657265756d205369676e6564204d6573736167653a0a333200000000815250846040518083805190602001908083835b602083101515610393578051825260208201915060208101905060208303925061036e565b6001836020036101000a038019825116818451168082178552505050505050905001826000191660001916815260200192505050604051809103902090508473ffffffffffffffffffffffffffffffffffffffff16600182856000015186602001518760400151604051600081526020016040526040516104179493929190610e4f565b60206040516020810390808403906000865af115801561043b573d6000803e3d6000fd5b5050506020604051035173ffffffffffffffffffffffffffffffffffffffff16149150509392505050565b600061047d83610100015183856102800151610324565b905092915050565b61048d610780565b6104956107a3565b61049d6107c7565b6104a56107ea565b6104ad61080d565b6104b561080d565b60c060405190810160405280886000015173ffffffffffffffffffffffffffffffffffffffff1673ffffffffffffffffffffffffffffffffffffffff1681526020018860c0015173ffffffffffffffffffffffffffffffffffffffff1673ffffffffffffffffffffffffffffffffffffffff16815260200188610180015173ffffffffffffffffffffffffffffffffffffffff1673ffffffffffffffffffffffffffffffffffffffff168152602001886101e0015173ffffffffffffffffffffffffffffffffffffffff1673ffffffffffffffffffffffffffffffffffffffff168152602001886060015173ffffffffffffffffffffffffffffffffffffffff1673ffffffffffffffffffffffffffffffffffffffff16815260200188610140015173ffffffffffffffffffffffffffffffffffffffff1673ffffffffffffffffffffffffffffffffffffffff1681525061010060405190810160405280896101c001518152602001896102400151815260200189604001518152602001896101a001518152602001896101600151815260200189610120015181526020018960e0015181526020018961022001518152506020604051908101604052808a610200015160001916600019168152506060604051908101604052808b61026001516000015160ff1660ff1681526020018b61028001516000015160ff1660ff1681526020018b6102a001516000015160ff1660ff168152506060604051908101604052808c610260015160200151600019166000191681526020018c610280015160200151600019166000191681526020018c6102a001516020015160001916600019168152506060604051908101604052808d610260015160400151600019166000191681526020018d610280015160400151600019166000191681526020018d6102a0015160400151600019166000191681525095509550955095509550955091939550919395565b60c060405190810160405280600690602082028038833980820191505090505090565b61010060405190810160405280600890602082028038833980820191505090505090565b602060405190810160405280600190602082028038833980820191505090505090565b606060405190810160405280600390602082028038833980820191505090505090565b606060405190810160405280600390602082028038833980820191505090505090565b600061083c8235610fb8565b905092915050565b60006108508235610fd8565b905092915050565b6000610380828403121561086b57600080fd5b6108766102c0610e94565b9050600061088684828501610830565b600083015250602061089a84828501610830565b60208301525060406108ae84828501610b12565b60408301525060606108c284828501610830565b60608301525060806108d684828501610b12565b60808301525060a06108ea84828501610830565b60a08301525060c06108fe84828501610830565b60c08301525060e061091284828501610b12565b60e08301525061010061092784828501610830565b6101008301525061012061093d84828501610b12565b6101208301525061014061095384828501610830565b6101408301525061016061096984828501610b12565b6101608301525061018061097f84828501610830565b610180830152506101a061099584828501610b12565b6101a0830152506101c06109ab84828501610b12565b6101c0830152506101e06109c184828501610830565b6101e0830152506102006109d784828501610844565b610200830152506102206109ed84828501610b12565b61022083015250610240610a0384828501610b12565b61024083015250610260610a1984828501610a52565b610260830152506102c0610a2f84828501610a52565b61028083015250610320610a4584828501610a52565b6102a08301525092915050565b600060608284031215610a6457600080fd5b610a6e6060610e94565b90506000610a7e84828501610b26565b6000830152506020610a9284828501610844565b6020830152506040610aa684828501610844565b60408301525092915050565b600060608284031215610ac457600080fd5b610ace6060610e94565b90506000610ade84828501610b26565b6000830152506020610af284828501610844565b6020830152506040610b0684828501610844565b60408301525092915050565b6000610b1e8235610fe2565b905092915050565b6000610b328235610fec565b905092915050565b600080600060a08486031215610b4f57600080fd5b6000610b5d86828701610830565b9350506020610b6e86828701610844565b9250506040610b7f86828701610ab2565b9150509250925092565b60006103808284031215610b9c57600080fd5b6000610baa84828501610858565b91505092915050565b6000806103a08385031215610bc757600080fd5b6000610bd585828601610858565b925050610380610be785828601610844565b9150509250929050565b610bfa81610f6b565b82525050565b610c0981610ef3565b610c1282610ec1565b60005b82811015610c4457610c28858351610bf1565b610c3182610f2a565b9150602085019450600181019050610c15565b5050505050565b610c5481610efe565b610c5d82610ecb565b60005b82811015610c8f57610c73858351610d86565b610c7c82610f37565b9150602085019450600181019050610c60565b5050505050565b610c9f81610f09565b610ca882610ed5565b60005b82811015610cda57610cbe858351610d86565b610cc782610f44565b9150602085019450600181019050610cab565b5050505050565b610cea81610f14565b610cf382610edf565b60005b82811015610d2557610d09858351610d95565b610d1282610f51565b9150602085019450600181019050610cf6565b5050505050565b610d3581610f1f565b610d3e82610ee9565b60005b82811015610d7057610d54858351610da4565b610d5d82610f5e565b9150602085019450600181019050610d41565b5050505050565b610d8081610f8b565b82525050565b610d8f81610f97565b82525050565b610d9e81610fa1565b82525050565b610dad81610fab565b82525050565b600061030082019050610dc96000830189610c00565b610dd660c0830188610ce1565b610de46101c0830187610c4b565b610df26101e0830186610d2c565b610e00610240830185610c96565b610e0e6102a0830184610c96565b979650505050505050565b6000602082019050610e2e6000830184610d77565b92915050565b6000602082019050610e496000830184610d86565b92915050565b6000608082019050610e646000830187610d86565b610e716020830186610da4565b610e7e6040830185610d86565b610e8b6060830184610d86565b95945050505050565b6000604051905081810181811067ffffffffffffffff82111715610eb757600080fd5b8060405250919050565b6000819050919050565b6000819050919050565b6000819050919050565b6000819050919050565b6000819050919050565b600060069050919050565b600060019050919050565b600060039050919050565b600060089050919050565b600060039050919050565b6000602082019050919050565b6000602082019050919050565b6000602082019050919050565b6000602082019050919050565b6000602082019050919050565b600073ffffffffffffffffffffffffffffffffffffffff82169050919050565b60008115159050919050565b6000819050919050565b6000819050919050565b600060ff82169050919050565b600073ffffffffffffffffffffffffffffffffffffffff82169050919050565b6000819050919050565b6000819050919050565b600060ff821690509190505600a265627a7a7230582071f74b3206ac12889d8fa3e6e32773dc41e44a9a47b86c88637b1806766c61b16c6578706572696d656e74616cf50037",
  "source": "pragma solidity ^0.4.24;\npragma experimental ABIEncoderV2;\n\nimport \"../../shared/libraries/OrderLibrary.sol\";\nimport \"../../shared/libraries/SignaturesLibrary.sol\";\n\n\ncontract NaiveDecisionEngine is SignaturesLibrary, OrderLibrary {\n\n\tfunction evaluateConsent(DebtOrder memory order, bytes32 commitmentHash)\n\t\tpublic\n\t\tpure\n\t\treturns (bool)\n\t{\n\t\treturn isValidSignature(\n\t\t\torder.creditor,\n\t\t\tcommitmentHash,\n\t\t\torder.creditorSignature\n\t\t);\n\t}\n\n\tfunction hashCreditorCommitmentForOrder(DebtOrder memory order)\n        public\n        pure\n        returns (bytes32 _creditorCommitmentHash)\n    {\n        return keccak256(\n            order.creditor, // creditor\n            order.kernelVersion, // debt kernel version\n            order.issuanceVersion, // repayment router version\n            order.termsContract, // terms contract address\n            order.principalToken, // principal token address\n            order.salt, // salt\n            order.principalAmount, // principal amount\n            order.creditorFee, // creditor fee\n            order.expirationTimestampInSec, // expirationTimestampInSec\n            order.termsContractParameters // terms contract parameters\n        );\n    }\n}\n",
  "sourcePath": "/Users/graemeboy/Dharma/experimental/contracts/src/CreditorDrivenLoans/DecisionEngines/NaiveDecisionEngine.sol",
  "compiler": {
    "name": "solc",
    "version": "0.4.24+commit.e67f0147.Emscripten.clang"
  },
  "schemaVersion": "2.0.1",
  "updatedAt": "2018-10-16T21:00:42.049Z"
}