{
  "contractName": "NaiveCreditorProxy",
  "abi": [
    {
      "constant": true,
      "inputs": [
        {
          "components": [
            {
              "name": "kernelVersion",
              "type": "address"
            },
            {
              "name": "issuanceVersion",
              "type": "address"
            },
            {
              "name": "principalAmount",
              "type": "uint256"
            },
            {
              "name": "principalToken",
              "type": "address"
            },
            {
              "name": "collateralAmount",
              "type": "uint256"
            },
            {
              "name": "collateralToken",
              "type": "address"
            },
            {
              "name": "debtor",
              "type": "address"
            },
            {
              "name": "debtorFee",
              "type": "uint256"
            },
            {
              "name": "creditor",
              "type": "address"
            },
            {
              "name": "creditorFee",
              "type": "uint256"
            },
            {
              "name": "relayer",
              "type": "address"
            },
            {
              "name": "relayerFee",
              "type": "uint256"
            },
            {
              "name": "underwriter",
              "type": "address"
            },
            {
              "name": "underwriterFee",
              "type": "uint256"
            },
            {
              "name": "underwriterRiskRating",
              "type": "uint256"
            },
            {
              "name": "termsContract",
              "type": "address"
            },
            {
              "name": "termsContractParameters",
              "type": "bytes32"
            },
            {
              "name": "expirationTimestampInSec",
              "type": "uint256"
            },
            {
              "name": "salt",
              "type": "uint256"
            },
            {
              "components": [
                {
                  "name": "v",
                  "type": "uint8"
                },
                {
                  "name": "r",
                  "type": "bytes32"
                },
                {
                  "name": "s",
                  "type": "bytes32"
                }
              ],
              "name": "debtorSignature",
              "type": "tuple"
            },
            {
              "components": [
                {
                  "name": "v",
                  "type": "uint8"
                },
                {
                  "name": "r",
                  "type": "bytes32"
                },
                {
                  "name": "s",
                  "type": "bytes32"
                }
              ],
              "name": "creditorSignature",
              "type": "tuple"
            },
            {
              "components": [
                {
                  "name": "v",
                  "type": "uint8"
                },
                {
                  "name": "r",
                  "type": "bytes32"
                },
                {
                  "name": "s",
                  "type": "bytes32"
                }
              ],
              "name": "underwriterSignature",
              "type": "tuple"
            }
          ],
          "name": "order",
          "type": "tuple"
        }
      ],
      "name": "hashCreditorCommitmentForOrder",
      "outputs": [
        {
          "name": "_creditorCommitmentHash",
          "type": "bytes32"
        }
      ],
      "payable": false,
      "stateMutability": "pure",
      "type": "function"
    },
    {
      "constant": true,
      "inputs": [
        {
          "name": "signer",
          "type": "address"
        },
        {
          "name": "hash",
          "type": "bytes32"
        },
        {
          "components": [
            {
              "name": "v",
              "type": "uint8"
            },
            {
              "name": "r",
              "type": "bytes32"
            },
            {
              "name": "s",
              "type": "bytes32"
            }
          ],
          "name": "signature",
          "type": "tuple"
        }
      ],
      "name": "isValidSignature",
      "outputs": [
        {
          "name": "valid",
          "type": "bool"
        }
      ],
      "payable": false,
      "stateMutability": "pure",
      "type": "function"
    },
    {
      "constant": true,
      "inputs": [
        {
          "name": "",
          "type": "bytes32"
        }
      ],
      "name": "debtOfferCancelled",
      "outputs": [
        {
          "name": "",
          "type": "bool"
        }
      ],
      "payable": false,
      "stateMutability": "view",
      "type": "function"
    },
    {
      "constant": true,
      "inputs": [],
      "name": "contractRegistry",
      "outputs": [
        {
          "name": "",
          "type": "address"
        }
      ],
      "payable": false,
      "stateMutability": "view",
      "type": "function"
    },
    {
      "constant": true,
      "inputs": [
        {
          "name": "",
          "type": "bytes32"
        }
      ],
      "name": "debtOfferFilled",
      "outputs": [
        {
          "name": "",
          "type": "bool"
        }
      ],
      "payable": false,
      "stateMutability": "view",
      "type": "function"
    },
    {
      "constant": true,
      "inputs": [
        {
          "components": [
            {
              "name": "kernelVersion",
              "type": "address"
            },
            {
              "name": "issuanceVersion",
              "type": "address"
            },
            {
              "name": "principalAmount",
              "type": "uint256"
            },
            {
              "name": "principalToken",
              "type": "address"
            },
            {
              "name": "collateralAmount",
              "type": "uint256"
            },
            {
              "name": "collateralToken",
              "type": "address"
            },
            {
              "name": "debtor",
              "type": "address"
            },
            {
              "name": "debtorFee",
              "type": "uint256"
            },
            {
              "name": "creditor",
              "type": "address"
            },
            {
              "name": "creditorFee",
              "type": "uint256"
            },
            {
              "name": "relayer",
              "type": "address"
            },
            {
              "name": "relayerFee",
              "type": "uint256"
            },
            {
              "name": "underwriter",
              "type": "address"
            },
            {
              "name": "underwriterFee",
              "type": "uint256"
            },
            {
              "name": "underwriterRiskRating",
              "type": "uint256"
            },
            {
              "name": "termsContract",
              "type": "address"
            },
            {
              "name": "termsContractParameters",
              "type": "bytes32"
            },
            {
              "name": "expirationTimestampInSec",
              "type": "uint256"
            },
            {
              "name": "salt",
              "type": "uint256"
            },
            {
              "components": [
                {
                  "name": "v",
                  "type": "uint8"
                },
                {
                  "name": "r",
                  "type": "bytes32"
                },
                {
                  "name": "s",
                  "type": "bytes32"
                }
              ],
              "name": "debtorSignature",
              "type": "tuple"
            },
            {
              "components": [
                {
                  "name": "v",
                  "type": "uint8"
                },
                {
                  "name": "r",
                  "type": "bytes32"
                },
                {
                  "name": "s",
                  "type": "bytes32"
                }
              ],
              "name": "creditorSignature",
              "type": "tuple"
            },
            {
              "components": [
                {
                  "name": "v",
                  "type": "uint8"
                },
                {
                  "name": "r",
                  "type": "bytes32"
                },
                {
                  "name": "s",
                  "type": "bytes32"
                }
              ],
              "name": "underwriterSignature",
              "type": "tuple"
            }
          ],
          "name": "order",
          "type": "tuple"
        },
        {
          "name": "commitmentHash",
          "type": "bytes32"
        }
      ],
      "name": "evaluateConsent",
      "outputs": [
        {
          "name": "",
          "type": "bool"
        }
      ],
      "payable": false,
      "stateMutability": "pure",
      "type": "function"
    },
    {
      "constant": true,
      "inputs": [
        {
          "components": [
            {
              "name": "kernelVersion",
              "type": "address"
            },
            {
              "name": "issuanceVersion",
              "type": "address"
            },
            {
              "name": "principalAmount",
              "type": "uint256"
            },
            {
              "name": "principalToken",
              "type": "address"
            },
            {
              "name": "collateralAmount",
              "type": "uint256"
            },
            {
              "name": "collateralToken",
              "type": "address"
            },
            {
              "name": "debtor",
              "type": "address"
            },
            {
              "name": "debtorFee",
              "type": "uint256"
            },
            {
              "name": "creditor",
              "type": "address"
            },
            {
              "name": "creditorFee",
              "type": "uint256"
            },
            {
              "name": "relayer",
              "type": "address"
            },
            {
              "name": "relayerFee",
              "type": "uint256"
            },
            {
              "name": "underwriter",
              "type": "address"
            },
            {
              "name": "underwriterFee",
              "type": "uint256"
            },
            {
              "name": "underwriterRiskRating",
              "type": "uint256"
            },
            {
              "name": "termsContract",
              "type": "address"
            },
            {
              "name": "termsContractParameters",
              "type": "bytes32"
            },
            {
              "name": "expirationTimestampInSec",
              "type": "uint256"
            },
            {
              "name": "salt",
              "type": "uint256"
            },
            {
              "components": [
                {
                  "name": "v",
                  "type": "uint8"
                },
                {
                  "name": "r",
                  "type": "bytes32"
                },
                {
                  "name": "s",
                  "type": "bytes32"
                }
              ],
              "name": "debtorSignature",
              "type": "tuple"
            },
            {
              "components": [
                {
                  "name": "v",
                  "type": "uint8"
                },
                {
                  "name": "r",
                  "type": "bytes32"
                },
                {
                  "name": "s",
                  "type": "bytes32"
                }
              ],
              "name": "creditorSignature",
              "type": "tuple"
            },
            {
              "components": [
                {
                  "name": "v",
                  "type": "uint8"
                },
                {
                  "name": "r",
                  "type": "bytes32"
                },
                {
                  "name": "s",
                  "type": "bytes32"
                }
              ],
              "name": "underwriterSignature",
              "type": "tuple"
            }
          ],
          "name": "order",
          "type": "tuple"
        }
      ],
      "name": "unpackDebtOrder",
      "outputs": [
        {
          "name": "orderAddresses",
          "type": "address[6]"
        },
        {
          "name": "orderValues",
          "type": "uint256[8]"
        },
        {
          "name": "orderBytes32",
          "type": "bytes32[1]"
        },
        {
          "name": "signaturesV",
          "type": "uint8[3]"
        },
        {
          "name": "signaturesR",
          "type": "bytes32[3]"
        },
        {
          "name": "signaturesS",
          "type": "bytes32[3]"
        }
      ],
      "payable": false,
      "stateMutability": "pure",
      "type": "function"
    },
    {
      "constant": true,
      "inputs": [],
      "name": "EXTERNAL_QUERY_GAS_LIMIT",
      "outputs": [
        {
          "name": "",
          "type": "uint16"
        }
      ],
      "payable": false,
      "stateMutability": "view",
      "type": "function"
    },
    {
      "inputs": [
        {
          "name": "_contractRegistry",
          "type": "address"
        }
      ],
      "payable": false,
      "stateMutability": "nonpayable",
      "type": "constructor"
    },
    {
      "anonymous": false,
      "inputs": [
        {
          "indexed": true,
          "name": "_creditor",
          "type": "address"
        },
        {
          "indexed": true,
          "name": "_creditorCommitmentHash",
          "type": "bytes32"
        }
      ],
      "name": "DebtOfferCancelled",
      "type": "event"
    },
    {
      "anonymous": false,
      "inputs": [
        {
          "indexed": true,
          "name": "_creditor",
          "type": "address"
        },
        {
          "indexed": true,
          "name": "_creditorCommitmentHash",
          "type": "bytes32"
        },
        {
          "indexed": true,
          "name": "_agreementId",
          "type": "bytes32"
        }
      ],
      "name": "DebtOfferFilled",
      "type": "event"
    },
    {
      "anonymous": false,
      "inputs": [
        {
          "indexed": true,
          "name": "_errorId",
          "type": "uint8"
        },
        {
          "indexed": true,
          "name": "_creditor",
          "type": "address"
        },
        {
          "indexed": true,
          "name": "_creditorCommitmentHash",
          "type": "bytes32"
        }
      ],
      "name": "CreditorProxyError",
      "type": "event"
    },
    {
      "constant": false,
      "inputs": [
        {
          "components": [
            {
              "name": "kernelVersion",
              "type": "address"
            },
            {
              "name": "issuanceVersion",
              "type": "address"
            },
            {
              "name": "principalAmount",
              "type": "uint256"
            },
            {
              "name": "principalToken",
              "type": "address"
            },
            {
              "name": "collateralAmount",
              "type": "uint256"
            },
            {
              "name": "collateralToken",
              "type": "address"
            },
            {
              "name": "debtor",
              "type": "address"
            },
            {
              "name": "debtorFee",
              "type": "uint256"
            },
            {
              "name": "creditor",
              "type": "address"
            },
            {
              "name": "creditorFee",
              "type": "uint256"
            },
            {
              "name": "relayer",
              "type": "address"
            },
            {
              "name": "relayerFee",
              "type": "uint256"
            },
            {
              "name": "underwriter",
              "type": "address"
            },
            {
              "name": "underwriterFee",
              "type": "uint256"
            },
            {
              "name": "underwriterRiskRating",
              "type": "uint256"
            },
            {
              "name": "termsContract",
              "type": "address"
            },
            {
              "name": "termsContractParameters",
              "type": "bytes32"
            },
            {
              "name": "expirationTimestampInSec",
              "type": "uint256"
            },
            {
              "name": "salt",
              "type": "uint256"
            },
            {
              "components": [
                {
                  "name": "v",
                  "type": "uint8"
                },
                {
                  "name": "r",
                  "type": "bytes32"
                },
                {
                  "name": "s",
                  "type": "bytes32"
                }
              ],
              "name": "debtorSignature",
              "type": "tuple"
            },
            {
              "components": [
                {
                  "name": "v",
                  "type": "uint8"
                },
                {
                  "name": "r",
                  "type": "bytes32"
                },
                {
                  "name": "s",
                  "type": "bytes32"
                }
              ],
              "name": "creditorSignature",
              "type": "tuple"
            },
            {
              "components": [
                {
                  "name": "v",
                  "type": "uint8"
                },
                {
                  "name": "r",
                  "type": "bytes32"
                },
                {
                  "name": "s",
                  "type": "bytes32"
                }
              ],
              "name": "underwriterSignature",
              "type": "tuple"
            }
          ],
          "name": "order",
          "type": "tuple"
        }
      ],
      "name": "fillDebtOffer",
      "outputs": [
        {
          "name": "agreementId",
          "type": "bytes32"
        }
      ],
      "payable": false,
      "stateMutability": "nonpayable",
      "type": "function"
    },
    {
      "constant": false,
      "inputs": [
        {
          "components": [
            {
              "name": "kernelVersion",
              "type": "address"
            },
            {
              "name": "issuanceVersion",
              "type": "address"
            },
            {
              "name": "principalAmount",
              "type": "uint256"
            },
            {
              "name": "principalToken",
              "type": "address"
            },
            {
              "name": "collateralAmount",
              "type": "uint256"
            },
            {
              "name": "collateralToken",
              "type": "address"
            },
            {
              "name": "debtor",
              "type": "address"
            },
            {
              "name": "debtorFee",
              "type": "uint256"
            },
            {
              "name": "creditor",
              "type": "address"
            },
            {
              "name": "creditorFee",
              "type": "uint256"
            },
            {
              "name": "relayer",
              "type": "address"
            },
            {
              "name": "relayerFee",
              "type": "uint256"
            },
            {
              "name": "underwriter",
              "type": "address"
            },
            {
              "name": "underwriterFee",
              "type": "uint256"
            },
            {
              "name": "underwriterRiskRating",
              "type": "uint256"
            },
            {
              "name": "termsContract",
              "type": "address"
            },
            {
              "name": "termsContractParameters",
              "type": "bytes32"
            },
            {
              "name": "expirationTimestampInSec",
              "type": "uint256"
            },
            {
              "name": "salt",
              "type": "uint256"
            },
            {
              "components": [
                {
                  "name": "v",
                  "type": "uint8"
                },
                {
                  "name": "r",
                  "type": "bytes32"
                },
                {
                  "name": "s",
                  "type": "bytes32"
                }
              ],
              "name": "debtorSignature",
              "type": "tuple"
            },
            {
              "components": [
                {
                  "name": "v",
                  "type": "uint8"
                },
                {
                  "name": "r",
                  "type": "bytes32"
                },
                {
                  "name": "s",
                  "type": "bytes32"
                }
              ],
              "name": "creditorSignature",
              "type": "tuple"
            },
            {
              "components": [
                {
                  "name": "v",
                  "type": "uint8"
                },
                {
                  "name": "r",
                  "type": "bytes32"
                },
                {
                  "name": "s",
                  "type": "bytes32"
                }
              ],
              "name": "underwriterSignature",
              "type": "tuple"
            }
          ],
          "name": "order",
          "type": "tuple"
        }
      ],
      "name": "cancelDebtOffer",
      "outputs": [
        {
          "name": "succeeded",
          "type": "bool"
        }
      ],
      "payable": false,
      "stateMutability": "nonpayable",
      "type": "function"
    }
  ],
  "bytecode": "0x60806040523480156200001157600080fd5b5060405160208062002137833981018060405262000033919081019062000091565b80600260006101000a81548173ffffffffffffffffffffffffffffffffffffffff021916908373ffffffffffffffffffffffffffffffffffffffff16021790555050620000dd565b6000620000898251620000bd565b905092915050565b600060208284031215620000a457600080fd5b6000620000b4848285016200007b565b91505092915050565b600073ffffffffffffffffffffffffffffffffffffffff82169050919050565b61204a80620000ed6000396000f3006080604052600436106100a4576000357c0100000000000000000000000000000000000000000000000000000000900463ffffffff168063072f262e146100a95780631ca54006146100e6578063578911ac14610123578063a318b5f714610160578063abc154801461019d578063abf410e5146101da578063c1614d0014610205578063d46b836d14610242578063e301885c1461027f578063f06bbf75146102c1575b600080fd5b3480156100b557600080fd5b506100d060048036036100cb91908101906119c4565b6102ec565b6040516100dd9190611db3565b60405180910390f35b3480156100f257600080fd5b5061010d600480360361010891908101906119c4565b6104b0565b60405161011a9190611d98565b60405180910390f35b34801561012f57600080fd5b5061014a6004803603610145919081019061187f565b6105c3565b6040516101579190611d98565b60405180910390f35b34801561016c57600080fd5b50610187600480360361018291908101906118f7565b610705565b6040516101949190611d98565b60405180910390f35b3480156101a957600080fd5b506101c460048036036101bf91908101906119c4565b610725565b6040516101d19190611db3565b60405180910390f35b3480156101e657600080fd5b506101ef610c18565b6040516101fc9190611e13565b60405180910390f35b34801561021157600080fd5b5061022c600480360361022791908101906118f7565b610c3e565b6040516102399190611d98565b60405180910390f35b34801561024e57600080fd5b50610269600480360361026491908101906119ee565b610c5e565b6040516102769190611d98565b60405180910390f35b34801561028b57600080fd5b506102a660048036036102a191908101906119c4565b610c7d565b6040516102b896959493929190611d32565b60405180910390f35b3480156102cd57600080fd5b506102d6610f78565b6040516102e39190611e2e565b60405180910390f35b600081610100015182600001518360200151846101e00151856060015186610240015187604001518861012001518961022001518a6102000151604051808b73ffffffffffffffffffffffffffffffffffffffff1673ffffffffffffffffffffffffffffffffffffffff166c010000000000000000000000000281526014018a73ffffffffffffffffffffffffffffffffffffffff1673ffffffffffffffffffffffffffffffffffffffff166c010000000000000000000000000281526014018973ffffffffffffffffffffffffffffffffffffffff1673ffffffffffffffffffffffffffffffffffffffff166c010000000000000000000000000281526014018873ffffffffffffffffffffffffffffffffffffffff1673ffffffffffffffffffffffffffffffffffffffff166c010000000000000000000000000281526014018773ffffffffffffffffffffffffffffffffffffffff1673ffffffffffffffffffffffffffffffffffffffff166c0100000000000000000000000002815260140186815260200185815260200184815260200183815260200182600019166000191681526020019a505050505050505050505060405180910390209050919050565b60008082610100015173ffffffffffffffffffffffffffffffffffffffff163373ffffffffffffffffffffffffffffffffffffffff161415156104f657600091506105bd565b6104ff836102ec565b905060016000826000191660001916815260200190815260200160002060009054906101000a900460ff161561053857600091506105bd565b6001600080836000191660001916815260200190815260200160002060006101000a81548160ff021916908315150217905550806000191683610100015173ffffffffffffffffffffffffffffffffffffffff167f320c5376a3da7bddef2f74a91d4575f1a8547203712054ca2cf5f3ae3cadeb0560405160405180910390a3600191505b50919050565b6000806040805190810160405280601c81526020017f19457468657265756d205369676e6564204d6573736167653a0a333200000000815250846040518083805190602001908083835b602083101515610632578051825260208201915060208101905060208303925061060d565b6001836020036101000a038019825116818451168082178552505050505050905001826000191660001916815260200192505050604051809103902090508473ffffffffffffffffffffffffffffffffffffffff16600182856000015186602001518760400151604051600081526020016040526040516106b69493929190611dce565b60206040516020810390808403906000865af11580156106da573d6000803e3d6000fd5b5050506020604051035173ffffffffffffffffffffffffffffffffffffffff16149150509392505050565b60006020528060005260406000206000915054906101000a900460ff1681565b6000806000806000610736866102ec565b93506107428685610c5e565b15156107b157836000191686610100015173ffffffffffffffffffffffffffffffffffffffff166002600381111561077657fe5b60ff167f9fd787e2a5fcbda76c8a1a1f8bb14a3328d4991b94bd7461fe7468aaedbd6d2460405160405180910390a460006001029450610c0f565b60016000856000191660001916815260200190815260200160002060009054906101000a900460ff161561084857836000191686610100015173ffffffffffffffffffffffffffffffffffffffff166001600381111561080d57fe5b60ff167f9fd787e2a5fcbda76c8a1a1f8bb14a3328d4991b94bd7461fe7468aaedbd6d2460405160405180910390a460006001029450610c0f565b600080856000191660001916815260200190815260200160002060009054906101000a900460ff16156108de57836000191686610100015173ffffffffffffffffffffffffffffffffffffffff16600060038111156108a357fe5b60ff167f9fd787e2a5fcbda76c8a1a1f8bb14a3328d4991b94bd7461fe7468aaedbd6d2460405160405180910390a460006001029450610c0f565b856060015192506109ad8330600260009054906101000a900473ffffffffffffffffffffffffffffffffffffffff1673ffffffffffffffffffffffffffffffffffffffff16630eefdbad6040518163ffffffff167c0100000000000000000000000000000000000000000000000000000000028152600401602060405180830381600087803b15801561097057600080fd5b505af1158015610984573d6000803e3d6000fd5b505050506040513d601f19601f820116820180604052506109a8919081019061199b565b610f7e565b91506109cb866101200151876040015161103a90919063ffffffff16565b9050808210156109eb576109df8382611056565b15156109ea57600080fd5b5b6000811115610a1157610a058387610100015130846111c6565b1515610a1057600080fd5b5b610a1a8661127d565b9450600060010260001916856000191614151515610a3757600080fd5b6001806000866000191660001916815260200190815260200160002060006101000a81548160ff021916908315150217905550600260009054906101000a900473ffffffffffffffffffffffffffffffffffffffff1673ffffffffffffffffffffffffffffffffffffffff1663f8d898986040518163ffffffff167c0100000000000000000000000000000000000000000000000000000000028152600401602060405180830381600087803b158015610af057600080fd5b505af1158015610b04573d6000803e3d6000fd5b505050506040513d601f19601f82011682018060405250610b289190810190611972565b73ffffffffffffffffffffffffffffffffffffffff1663a9059cbb87610100015187600190046040518363ffffffff167c0100000000000000000000000000000000000000000000000000000000028152600401610b87929190611d09565b600060405180830381600087803b158015610ba157600080fd5b505af1158015610bb5573d6000803e3d6000fd5b505050508460001916846000191687610100015173ffffffffffffffffffffffffffffffffffffffff167fdc3cdf07a43996ceac82462ded070dbc1bf60c3d66cfa11770cd91a41b1c62e060405160405180910390a48494505b50505050919050565b600260009054906101000a900473ffffffffffffffffffffffffffffffffffffffff1681565b60016020528060005260406000206000915054906101000a900460ff1681565b6000610c75836101000151838561028001516105c3565b905092915050565b610c8561144d565b610c8d611470565b610c95611494565b610c9d6114b7565b610ca56114da565b610cad6114da565b60c060405190810160405280886000015173ffffffffffffffffffffffffffffffffffffffff1673ffffffffffffffffffffffffffffffffffffffff1681526020018860c0015173ffffffffffffffffffffffffffffffffffffffff1673ffffffffffffffffffffffffffffffffffffffff16815260200188610180015173ffffffffffffffffffffffffffffffffffffffff1673ffffffffffffffffffffffffffffffffffffffff168152602001886101e0015173ffffffffffffffffffffffffffffffffffffffff1673ffffffffffffffffffffffffffffffffffffffff168152602001886060015173ffffffffffffffffffffffffffffffffffffffff1673ffffffffffffffffffffffffffffffffffffffff16815260200188610140015173ffffffffffffffffffffffffffffffffffffffff1673ffffffffffffffffffffffffffffffffffffffff1681525061010060405190810160405280896101c001518152602001896102400151815260200189604001518152602001896101a001518152602001896101600151815260200189610120015181526020018960e0015181526020018961022001518152506020604051908101604052808a610200015160001916600019168152506060604051908101604052808b61026001516000015160ff1660ff1681526020018b61028001516000015160ff1660ff1681526020018b6102a001516000015160ff1660ff168152506060604051908101604052808c610260015160200151600019166000191681526020018c610280015160200151600019166000191681526020018c6102a001516020015160001916600019168152506060604051908101604052808d610260015160400151600019166000191681526020018d610280015160400151600019166000191681526020018d6102a0015160400151600019166000191681525095509550955095509550955091939550919395565b611f4081565b60008373ffffffffffffffffffffffffffffffffffffffff1663dd62ed3e611f4061ffff1685856040518463ffffffff167c0100000000000000000000000000000000000000000000000000000000028152600401610fde929190611c35565b602060405180830381600088803b158015610ff857600080fd5b5087f115801561100c573d6000803e3d6000fd5b50505050506040513d601f19601f820116820180604052506110319190810190611a2c565b90509392505050565b6000818301905082811015151561104d57fe5b80905092915050565b60008273ffffffffffffffffffffffffffffffffffffffff1663095ea7b3600260009054906101000a900473ffffffffffffffffffffffffffffffffffffffff1673ffffffffffffffffffffffffffffffffffffffff16630eefdbad6040518163ffffffff167c0100000000000000000000000000000000000000000000000000000000028152600401602060405180830381600087803b1580156110fa57600080fd5b505af115801561110e573d6000803e3d6000fd5b505050506040513d601f19601f82011682018060405250611132919081019061199b565b846040518363ffffffff167c010000000000000000000000000000000000000000000000000000000002815260040161116c929190611d09565b602060405180830381600087803b15801561118657600080fd5b505af115801561119a573d6000803e3d6000fd5b505050506040513d601f19601f820116820180604052506111be91908101906118ce565b905092915050565b60008473ffffffffffffffffffffffffffffffffffffffff166323b872dd8585856040518463ffffffff167c010000000000000000000000000000000000000000000000000000000002815260040161122193929190611c5e565b602060405180830381600087803b15801561123b57600080fd5b505af115801561124f573d6000803e3d6000fd5b505050506040513d601f19601f8201168201806040525061127391908101906118ce565b9050949350505050565b600061128761144d565b61128f611470565b611297611494565b61129f6114b7565b6112a76114da565b6112af6114da565b6112b888610c7d565b809650819750829850839950849a50859b50505050505050600260009054906101000a900473ffffffffffffffffffffffffffffffffffffffff1673ffffffffffffffffffffffffffffffffffffffff1663079dd4b76040518163ffffffff167c0100000000000000000000000000000000000000000000000000000000028152600401602060405180830381600087803b15801561135657600080fd5b505af115801561136a573d6000803e3d6000fd5b505050506040513d601f19601f8201168201806040525061138e9190810190611949565b73ffffffffffffffffffffffffffffffffffffffff1663e6488fc9308888888888886040518863ffffffff167c01000000000000000000000000000000000000000000000000000000000281526004016113ee9796959493929190611c95565b602060405180830381600087803b15801561140857600080fd5b505af115801561141c573d6000803e3d6000fd5b505050506040513d601f19601f820116820180604052506114409190810190611920565b9650505050505050919050565b60c060405190810160405280600690602082028038833980820191505090505090565b61010060405190810160405280600890602082028038833980820191505090505090565b602060405190810160405280600190602082028038833980820191505090505090565b606060405190810160405280600390602082028038833980820191505090505090565b606060405190810160405280600390602082028038833980820191505090505090565b60006115098235611f7b565b905092915050565b600061151d8251611f9b565b905092915050565b60006115318235611fa7565b905092915050565b60006115458251611fa7565b905092915050565b60006115598251611fb1565b905092915050565b600061156d8251611fc3565b905092915050565b60006115818251611fd5565b905092915050565b6000610380828403121561159c57600080fd5b6115a76102c0611e49565b905060006115b7848285016114fd565b60008301525060206115cb848285016114fd565b60208301525060406115df84828501611843565b60408301525060606115f3848285016114fd565b606083015250608061160784828501611843565b60808301525060a061161b848285016114fd565b60a08301525060c061162f848285016114fd565b60c08301525060e061164384828501611843565b60e083015250610100611658848285016114fd565b6101008301525061012061166e84828501611843565b61012083015250610140611684848285016114fd565b6101408301525061016061169a84828501611843565b610160830152506101806116b0848285016114fd565b610180830152506101a06116c684828501611843565b6101a0830152506101c06116dc84828501611843565b6101c0830152506101e06116f2848285016114fd565b6101e08301525061020061170884828501611525565b6102008301525061022061171e84828501611843565b6102208301525061024061173484828501611843565b6102408301525061026061174a84828501611783565b610260830152506102c061176084828501611783565b6102808301525061032061177684828501611783565b6102a08301525092915050565b60006060828403121561179557600080fd5b61179f6060611e49565b905060006117af8482850161186b565b60008301525060206117c384828501611525565b60208301525060406117d784828501611525565b60408301525092915050565b6000606082840312156117f557600080fd5b6117ff6060611e49565b9050600061180f8482850161186b565b600083015250602061182384828501611525565b602083015250604061183784828501611525565b60408301525092915050565b600061184f8235611fe7565b905092915050565b60006118638251611fe7565b905092915050565b60006118778235611ff1565b905092915050565b600080600060a0848603121561189457600080fd5b60006118a2868287016114fd565b93505060206118b386828701611525565b92505060406118c4868287016117e3565b9150509250925092565b6000602082840312156118e057600080fd5b60006118ee84828501611511565b91505092915050565b60006020828403121561190957600080fd5b600061191784828501611525565b91505092915050565b60006020828403121561193257600080fd5b600061194084828501611539565b91505092915050565b60006020828403121561195b57600080fd5b60006119698482850161154d565b91505092915050565b60006020828403121561198457600080fd5b600061199284828501611561565b91505092915050565b6000602082840312156119ad57600080fd5b60006119bb84828501611575565b91505092915050565b600061038082840312156119d757600080fd5b60006119e584828501611589565b91505092915050565b6000806103a08385031215611a0257600080fd5b6000611a1085828601611589565b925050610380611a2285828601611525565b9150509250929050565b600060208284031215611a3e57600080fd5b6000611a4c84828501611857565b91505092915050565b611a5e81611f20565b82525050565b611a6d81611ea8565b611a7682611e76565b60005b82811015611aa857611a8c858351611a55565b611a9582611edf565b9150602085019450600181019050611a79565b5050505050565b611ab881611eb3565b611ac182611e80565b60005b82811015611af357611ad7858351611bea565b611ae082611eec565b9150602085019450600181019050611ac4565b5050505050565b611b0381611ebe565b611b0c82611e8a565b60005b82811015611b3e57611b22858351611bea565b611b2b82611ef9565b9150602085019450600181019050611b0f565b5050505050565b611b4e81611ec9565b611b5782611e94565b60005b82811015611b8957611b6d858351611c17565b611b7682611f06565b9150602085019450600181019050611b5a565b5050505050565b611b9981611ed4565b611ba282611e9e565b60005b82811015611bd457611bb8858351611c26565b611bc182611f13565b9150602085019450600181019050611ba5565b5050505050565b611be481611f40565b82525050565b611bf381611f4c565b82525050565b611c0281611ffe565b82525050565b611c1181611f56565b82525050565b611c2081611f64565b82525050565b611c2f81611f6e565b82525050565b6000604082019050611c4a6000830185611a55565b611c576020830184611a55565b9392505050565b6000606082019050611c736000830186611a55565b611c806020830185611a55565b611c8d6040830184611c17565b949350505050565b600061032082019050611cab600083018a611a55565b611cb86020830189611a64565b611cc560e0830188611b45565b611cd36101e0830187611aaf565b611ce1610200830186611b90565b611cef610260830185611afa565b611cfd6102c0830184611afa565b98975050505050505050565b6000604082019050611d1e6000830185611a55565b611d2b6020830184611c17565b9392505050565b600061030082019050611d486000830189611a64565b611d5560c0830188611b45565b611d636101c0830187611aaf565b611d716101e0830186611b90565b611d7f610240830185611afa565b611d8d6102a0830184611afa565b979650505050505050565b6000602082019050611dad6000830184611bdb565b92915050565b6000602082019050611dc86000830184611bea565b92915050565b6000608082019050611de36000830187611bea565b611df06020830186611c26565b611dfd6040830185611bea565b611e0a6060830184611bea565b95945050505050565b6000602082019050611e286000830184611bf9565b92915050565b6000602082019050611e436000830184611c08565b92915050565b6000604051905081810181811067ffffffffffffffff82111715611e6c57600080fd5b8060405250919050565b6000819050919050565b6000819050919050565b6000819050919050565b6000819050919050565b6000819050919050565b600060069050919050565b600060019050919050565b600060039050919050565b600060089050919050565b600060039050919050565b6000602082019050919050565b6000602082019050919050565b6000602082019050919050565b6000602082019050919050565b6000602082019050919050565b600073ffffffffffffffffffffffffffffffffffffffff82169050919050565b60008115159050919050565b6000819050919050565b600061ffff82169050919050565b6000819050919050565b600060ff82169050919050565b600073ffffffffffffffffffffffffffffffffffffffff82169050919050565b60008115159050919050565b6000819050919050565b6000611fbc82611f20565b9050919050565b6000611fce82611f20565b9050919050565b6000611fe082611f20565b9050919050565b6000819050919050565b600060ff82169050919050565b600061200982611f20565b90509190505600a265627a7a7230582034973f2b38e519c1eeb81bb315ed732becc3d765245e0dabf83af25c23d8e3506c6578706572696d656e74616cf50037",
  "source": "pragma solidity ^0.4.24;\npragma experimental ABIEncoderV2;\n\nimport \"zeppelin-solidity/contracts/token/ERC20/ERC20.sol\";\nimport \"zeppelin-solidity/contracts/math/SafeMath.sol\";\n\nimport \"./DecisionEngines/NaiveDecisionEngine.sol\";\nimport \"./interfaces/CreditorProxyCoreInterface.sol\";\nimport \"../shared/libraries/OrderLibrary.sol\";\nimport \"../shared/interfaces/ContractRegistryInterface.sol\";\n\n\ncontract NaiveCreditorProxy is NaiveDecisionEngine, CreditorProxyCoreInterface {\n    using SafeMath for uint;\n\n    mapping (bytes32 => bool) public debtOfferCancelled;\n    mapping (bytes32 => bool) public debtOfferFilled;\n\n    bytes32 constant internal NULL_ISSUANCE_HASH = bytes32(0);\n\n    uint16 constant public EXTERNAL_QUERY_GAS_LIMIT = 8000;\n\n    ContractRegistryInterface public contractRegistry;\n\n    function NaiveCreditorProxy(address _contractRegistry) public {\n        contractRegistry = ContractRegistryInterface(_contractRegistry);\n    }\n\n    function fillDebtOffer(DebtOrder memory order) public returns (bytes32 agreementId) {\n        bytes32 creditorCommitmentHash = hashCreditorCommitmentForOrder(order);\n\n        if (!evaluateConsent(order, creditorCommitmentHash)) {\n            emit CreditorProxyError(uint8(Errors.DEBT_OFFER_NON_CONSENSUAL), order.creditor, creditorCommitmentHash);\n            return NULL_ISSUANCE_HASH;\n        }\n\n        if (debtOfferFilled[creditorCommitmentHash]) {\n            emit CreditorProxyError(uint8(Errors.DEBT_OFFER_ALREADY_FILLED), order.creditor, creditorCommitmentHash);\n            return NULL_ISSUANCE_HASH;\n        }\n\n        if (debtOfferCancelled[creditorCommitmentHash]) {\n            emit CreditorProxyError(uint8(Errors.DEBT_OFFER_CANCELLED), order.creditor, creditorCommitmentHash);\n            return NULL_ISSUANCE_HASH;\n        }\n\n        address principalToken = order.principalToken;\n\n        // The allowance that the token transfer proxy has for this contract's tokens.\n        uint tokenTransferAllowance = getAllowance(\n            principalToken,\n            address(this),\n            contractRegistry.tokenTransferProxy()\n        );\n\n        uint totalCreditorPayment = order.principalAmount.add(order.creditorFee);\n\n        // Ensure the token transfer proxy can transfer tokens from the creditor proxy\n        if (tokenTransferAllowance < totalCreditorPayment) {\n            require(setTokenTransferAllowance(principalToken, totalCreditorPayment));\n        }\n\n        // Transfer principal from creditor to CreditorProxy\n        if (totalCreditorPayment > 0) {\n            require(\n                transferTokensFrom(\n                    principalToken,\n                    order.creditor,\n                    address(this),\n                    totalCreditorPayment\n                )\n            );\n        }\n\n        agreementId = sendOrderToKernel(order);\n\n        require(agreementId != NULL_ISSUANCE_HASH);\n\n        debtOfferFilled[creditorCommitmentHash] = true;\n\n        contractRegistry.debtToken().transfer(order.creditor, uint256(agreementId));\n\n        emit DebtOfferFilled(order.creditor, creditorCommitmentHash, agreementId);\n\n        return agreementId;\n    }\n\n    function sendOrderToKernel(DebtOrder memory order) internal returns (bytes32 id) {\n        address[6] memory orderAddresses;\n        uint[8] memory orderValues;\n        bytes32[1] memory orderBytes32;\n        uint8[3] memory signaturesV;\n        bytes32[3] memory signaturesR;\n        bytes32[3] memory signaturesS;\n\n        (orderAddresses, orderValues, orderBytes32, signaturesV, signaturesR, signaturesS) = unpackDebtOrder(order);\n\n        return contractRegistry.debtKernel().fillDebtOrder(\n            address(this),\n            orderAddresses,\n            orderValues,\n            orderBytes32,\n            signaturesV,\n            signaturesR,\n            signaturesS\n        );\n    }\n\n    /**\n     * Helper function for approving this address' allowance to Dharma's token transfer proxy.\n     */\n    function setTokenTransferAllowance(\n        address token,\n        uint amount\n    )\n        internal\n        returns (bool _success)\n    {\n        return ERC20(token).approve(\n            address(contractRegistry.tokenTransferProxy()),\n            amount\n        );\n    }\n\n    /**\n     * Helper function for querying this contract's allowance for transferring the given token.\n     */\n    function getAllowance(\n        address token,\n        address owner,\n        address granter\n    )\n        internal\n        view\n        returns (uint _allowance)\n    {\n        // Limit gas to prevent reentrancy.\n        return ERC20(token).allowance.gas(EXTERNAL_QUERY_GAS_LIMIT)(\n            owner,\n            granter\n        );\n    }\n\n    function cancelDebtOffer(DebtOrder memory order) public returns (bool succeeded)\n    {\n        // Sender must be the creditor.\n        if (msg.sender != order.creditor) {\n            return false;\n        }\n\n        bytes32 creditorCommitmentHash = hashCreditorCommitmentForOrder(order);\n\n        // Debt offer must not already be filled.\n        if (debtOfferFilled[creditorCommitmentHash]) {\n            return false;\n        }\n\n        debtOfferCancelled[creditorCommitmentHash] = true;\n\n        emit DebtOfferCancelled(order.creditor, creditorCommitmentHash);\n\n        return true;\n    }\n\n    /**\n     * Helper function for transferring a specified amount of tokens between two parties.\n     */\n    function transferTokensFrom(\n        address _token,\n        address _from,\n        address _to,\n        uint _amount\n    )\n        internal\n        returns (bool _success)\n    {\n        return ERC20(_token).transferFrom(_from, _to, _amount);\n    }\n}\n",
  "sourcePath": "/Users/graemeboy/Dharma/experimental/contracts/src/CreditorDrivenLoans/NaiveCreditorProxy.sol",
  "compiler": {
    "name": "solc",
    "version": "0.4.24+commit.e67f0147.Emscripten.clang"
  },
  "schemaVersion": "2.0.1",
  "updatedAt": "2018-10-16T21:21:04.740Z"
}