{
  "contractName": "OrderLibrary",
  "abi": [
    {
      "constant": true,
      "inputs": [
        {
          "components": [
            {
              "name": "kernelVersion",
              "type": "address"
            },
            {
              "name": "issuanceVersion",
              "type": "address"
            },
            {
              "name": "principalAmount",
              "type": "uint256"
            },
            {
              "name": "principalToken",
              "type": "address"
            },
            {
              "name": "collateralAmount",
              "type": "uint256"
            },
            {
              "name": "collateralToken",
              "type": "address"
            },
            {
              "name": "debtor",
              "type": "address"
            },
            {
              "name": "debtorFee",
              "type": "uint256"
            },
            {
              "name": "creditor",
              "type": "address"
            },
            {
              "name": "creditorFee",
              "type": "uint256"
            },
            {
              "name": "relayer",
              "type": "address"
            },
            {
              "name": "relayerFee",
              "type": "uint256"
            },
            {
              "name": "underwriter",
              "type": "address"
            },
            {
              "name": "underwriterFee",
              "type": "uint256"
            },
            {
              "name": "underwriterRiskRating",
              "type": "uint256"
            },
            {
              "name": "termsContract",
              "type": "address"
            },
            {
              "name": "termsContractParameters",
              "type": "bytes32"
            },
            {
              "name": "expirationTimestampInSec",
              "type": "uint256"
            },
            {
              "name": "salt",
              "type": "uint256"
            },
            {
              "components": [
                {
                  "name": "v",
                  "type": "uint8"
                },
                {
                  "name": "r",
                  "type": "bytes32"
                },
                {
                  "name": "s",
                  "type": "bytes32"
                }
              ],
              "name": "debtorSignature",
              "type": "tuple"
            },
            {
              "components": [
                {
                  "name": "v",
                  "type": "uint8"
                },
                {
                  "name": "r",
                  "type": "bytes32"
                },
                {
                  "name": "s",
                  "type": "bytes32"
                }
              ],
              "name": "creditorSignature",
              "type": "tuple"
            },
            {
              "components": [
                {
                  "name": "v",
                  "type": "uint8"
                },
                {
                  "name": "r",
                  "type": "bytes32"
                },
                {
                  "name": "s",
                  "type": "bytes32"
                }
              ],
              "name": "underwriterSignature",
              "type": "tuple"
            }
          ],
          "name": "order",
          "type": "tuple"
        }
      ],
      "name": "unpackDebtOrder",
      "outputs": [
        {
          "name": "orderAddresses",
          "type": "address[6]"
        },
        {
          "name": "orderValues",
          "type": "uint256[8]"
        },
        {
          "name": "orderBytes32",
          "type": "bytes32[1]"
        },
        {
          "name": "signaturesV",
          "type": "uint8[3]"
        },
        {
          "name": "signaturesR",
          "type": "bytes32[3]"
        },
        {
          "name": "signaturesS",
          "type": "bytes32[3]"
        }
      ],
      "payable": false,
      "stateMutability": "pure",
      "type": "function"
    }
  ],
  "bytecode": "0x608060405234801561001057600080fd5b50610ab3806100206000396000f300608060405260043610610041576000357c0100000000000000000000000000000000000000000000000000000000900463ffffffff168063e301885c14610046575b600080fd5b34801561005257600080fd5b5061006d600480360361006891908101906106dd565b610088565b60405161007f969594939291906108ba565b60405180910390f35b610090610383565b6100986103a6565b6100a06103ca565b6100a86103ed565b6100b0610410565b6100b8610410565b60c060405190810160405280886000015173ffffffffffffffffffffffffffffffffffffffff1673ffffffffffffffffffffffffffffffffffffffff1681526020018860c0015173ffffffffffffffffffffffffffffffffffffffff1673ffffffffffffffffffffffffffffffffffffffff16815260200188610180015173ffffffffffffffffffffffffffffffffffffffff1673ffffffffffffffffffffffffffffffffffffffff168152602001886101e0015173ffffffffffffffffffffffffffffffffffffffff1673ffffffffffffffffffffffffffffffffffffffff168152602001886060015173ffffffffffffffffffffffffffffffffffffffff1673ffffffffffffffffffffffffffffffffffffffff16815260200188610140015173ffffffffffffffffffffffffffffffffffffffff1673ffffffffffffffffffffffffffffffffffffffff1681525061010060405190810160405280896101c001518152602001896102400151815260200189604001518152602001896101a001518152602001896101600151815260200189610120015181526020018960e0015181526020018961022001518152506020604051908101604052808a610200015160001916600019168152506060604051908101604052808b61026001516000015160ff1660ff1681526020018b61028001516000015160ff1660ff1681526020018b6102a001516000015160ff1660ff168152506060604051908101604052808c610260015160200151600019166000191681526020018c610280015160200151600019166000191681526020018c6102a001516020015160001916600019168152506060604051908101604052808d610260015160400151600019166000191681526020018d610280015160400151600019166000191681526020018d6102a0015160400151600019166000191681525095509550955095509550955091939550919395565b60c060405190810160405280600690602082028038833980820191505090505090565b61010060405190810160405280600890602082028038833980820191505090505090565b602060405190810160405280600190602082028038833980820191505090505090565b606060405190810160405280600390602082028038833980820191505090505090565b606060405190810160405280600390602082028038833980820191505090505090565b600061043f8235610a38565b905092915050565b60006104538235610a58565b905092915050565b6000610380828403121561046e57600080fd5b6104796102c0610920565b9050600061048984828501610433565b600083015250602061049d84828501610433565b60208301525060406104b1848285016106b5565b60408301525060606104c584828501610433565b60608301525060806104d9848285016106b5565b60808301525060a06104ed84828501610433565b60a08301525060c061050184828501610433565b60c08301525060e0610515848285016106b5565b60e08301525061010061052a84828501610433565b61010083015250610120610540848285016106b5565b6101208301525061014061055684828501610433565b6101408301525061016061056c848285016106b5565b6101608301525061018061058284828501610433565b610180830152506101a0610598848285016106b5565b6101a0830152506101c06105ae848285016106b5565b6101c0830152506101e06105c484828501610433565b6101e0830152506102006105da84828501610447565b610200830152506102206105f0848285016106b5565b61022083015250610240610606848285016106b5565b6102408301525061026061061c84828501610655565b610260830152506102c061063284828501610655565b6102808301525061032061064884828501610655565b6102a08301525092915050565b60006060828403121561066757600080fd5b6106716060610920565b90506000610681848285016106c9565b600083015250602061069584828501610447565b60208301525060406106a984828501610447565b60408301525092915050565b60006106c18235610a62565b905092915050565b60006106d58235610a6c565b905092915050565b600061038082840312156106f057600080fd5b60006106fe8482850161045b565b91505092915050565b610710816109f7565b82525050565b61071f8161097f565b6107288261094d565b60005b8281101561075a5761073e858351610707565b610747826109b6565b915060208501945060018101905061072b565b5050505050565b61076a8161098a565b61077382610957565b60005b828110156107a55761078985835161088d565b610792826109c3565b9150602085019450600181019050610776565b5050505050565b6107b581610995565b6107be82610961565b60005b828110156107f0576107d485835161088d565b6107dd826109d0565b91506020850194506001810190506107c1565b5050505050565b610800816109a0565b6108098261096b565b60005b8281101561083b5761081f85835161089c565b610828826109dd565b915060208501945060018101905061080c565b5050505050565b61084b816109ab565b61085482610975565b60005b828110156108865761086a8583516108ab565b610873826109ea565b9150602085019450600181019050610857565b5050505050565b61089681610a17565b82525050565b6108a581610a21565b82525050565b6108b481610a2b565b82525050565b6000610300820190506108d06000830189610716565b6108dd60c08301886107f7565b6108eb6101c0830187610761565b6108f96101e0830186610842565b6109076102408301856107ac565b6109156102a08301846107ac565b979650505050505050565b6000604051905081810181811067ffffffffffffffff8211171561094357600080fd5b8060405250919050565b6000819050919050565b6000819050919050565b6000819050919050565b6000819050919050565b6000819050919050565b600060069050919050565b600060019050919050565b600060039050919050565b600060089050919050565b600060039050919050565b6000602082019050919050565b6000602082019050919050565b6000602082019050919050565b6000602082019050919050565b6000602082019050919050565b600073ffffffffffffffffffffffffffffffffffffffff82169050919050565b6000819050919050565b6000819050919050565b600060ff82169050919050565b600073ffffffffffffffffffffffffffffffffffffffff82169050919050565b6000819050919050565b6000819050919050565b600060ff821690509190505600a265627a7a723058202a74ec941320b7066b8406ffbc40ece1f30627196fe252df791e600973818a296c6578706572696d656e74616cf50037",
  "source": "pragma solidity ^0.4.24;\npragma experimental ABIEncoderV2;\n\nimport \"./SignaturesLibrary.sol\";\n\ncontract OrderLibrary {\n\tstruct DebtOrder {\n\t\taddress kernelVersion;\n\t\taddress issuanceVersion;\n\t\tuint principalAmount;\n\t\taddress principalToken;\n\t\tuint collateralAmount;\n\t\taddress collateralToken;\n\t\taddress debtor;\n\t\tuint debtorFee;\n\t\taddress creditor;\n\t\tuint creditorFee;\n\t\taddress relayer;\n\t\tuint relayerFee;\n\t\taddress underwriter;\n\t\tuint underwriterFee;\n\t\tuint underwriterRiskRating;\n\t\taddress termsContract;\n\t\tbytes32 termsContractParameters;\n\t\tuint expirationTimestampInSec;\n\t\tuint salt;\n\t\tSignaturesLibrary.ECDSASignature debtorSignature;\n\t\tSignaturesLibrary.ECDSASignature creditorSignature;\n\t\tSignaturesLibrary.ECDSASignature underwriterSignature;\n\t}\n\n\tfunction unpackDebtOrder(DebtOrder memory order)\n\t\tpublic\n\t\tpure\n\t\treturns (\n\t        address[6] orderAddresses,\n\t        uint[8] orderValues,\n\t        bytes32[1] orderBytes32,\n\t        uint8[3] signaturesV,\n\t        bytes32[3] signaturesR,\n\t        bytes32[3] signaturesS\n\t\t)\n\t{\n\t\treturn (\n\t\t\t[order.kernelVersion, order.debtor, order.underwriter, order.termsContract, order.principalToken, order.relayer],\n            [order.underwriterRiskRating, order.salt, order.principalAmount, order.underwriterFee, order.relayerFee, order.creditorFee, order.debtorFee, order.expirationTimestampInSec],\n\t\t\t[order.termsContractParameters],\n            [order.debtorSignature.v, order.creditorSignature.v, order.underwriterSignature.v],\n\t\t\t[order.debtorSignature.r, order.creditorSignature.r, order.underwriterSignature.r],\n\t\t\t[order.debtorSignature.s, order.creditorSignature.s, order.underwriterSignature.s]\n\t\t);\n\t}\n}\n",
  "sourcePath": "/Users/chrismin/Documents/dev/dharma/experimental/contracts/src/shared/libraries/OrderLibrary.sol",
  "compiler": {
    "name": "solc",
    "version": "0.4.24+commit.e67f0147.Emscripten.clang"
  },
  "schemaVersion": "2.0.1",
  "updatedAt": "2018-11-20T21:37:04.000Z"
}