{
  "contractName": "SignaturesLibrary",
  "abi": [
    {
      "constant": true,
      "inputs": [
        {
          "name": "signer",
          "type": "address"
        },
        {
          "name": "hash",
          "type": "bytes32"
        },
        {
          "components": [
            {
              "name": "v",
              "type": "uint8"
            },
            {
              "name": "r",
              "type": "bytes32"
            },
            {
              "name": "s",
              "type": "bytes32"
            }
          ],
          "name": "signature",
          "type": "tuple"
        }
      ],
      "name": "isValidSignature",
      "outputs": [
        {
          "name": "valid",
          "type": "bool"
        }
      ],
      "payable": false,
      "stateMutability": "pure",
      "type": "function"
    }
  ],
  "bytecode": "0x608060405234801561001057600080fd5b506103fe806100206000396000f300608060405260043610610041576000357c0100000000000000000000000000000000000000000000000000000000900463ffffffff168063578911ac14610046575b600080fd5b34801561005257600080fd5b5061006d60048036036100689190810190610261565b610083565b60405161007a91906102dd565b60405180910390f35b6000806040805190810160405280601c81526020017f19457468657265756d205369676e6564204d6573736167653a0a333200000000815250846040518083805190602001908083835b6020831015156100f257805182526020820191506020810190506020830392506100cd565b6001836020036101000a038019825116818451168082178552505050505050905001826000191660001916815260200192505050604051809103902090508473ffffffffffffffffffffffffffffffffffffffff166001828560000151866020015187604001516040516000815260200160405260405161017694939291906102f8565b60206040516020810390808403906000865af115801561019a573d6000803e3d6000fd5b5050506020604051035173ffffffffffffffffffffffffffffffffffffffff16149150509392505050565b60006101d1823561038d565b905092915050565b60006101e582356103ad565b905092915050565b6000606082840312156101ff57600080fd5b610209606061033d565b905060006102198482850161024d565b600083015250602061022d848285016101d9565b6020830152506040610241848285016101d9565b60408301525092915050565b600061025982356103b7565b905092915050565b600080600060a0848603121561027657600080fd5b6000610284868287016101c5565b9350506020610295868287016101d9565b92505060406102a6868287016101ed565b9150509250925092565b6102b98161036a565b82525050565b6102c881610376565b82525050565b6102d781610380565b82525050565b60006020820190506102f260008301846102b0565b92915050565b600060808201905061030d60008301876102bf565b61031a60208301866102ce565b61032760408301856102bf565b61033460608301846102bf565b95945050505050565b6000604051905081810181811067ffffffffffffffff8211171561036057600080fd5b8060405250919050565b60008115159050919050565b6000819050919050565b600060ff82169050919050565b600073ffffffffffffffffffffffffffffffffffffffff82169050919050565b6000819050919050565b600060ff821690509190505600a265627a7a72305820054d1e5f2c10db1f953ea1dc384c23996f25fcab530269d21a793b85a849094b6c6578706572696d656e74616cf50037",
  "source": "pragma solidity ^0.4.24;\npragma experimental ABIEncoderV2;\n\n\ncontract SignaturesLibrary {\n\tbytes constant internal PREFIX = \"\\x19Ethereum Signed Message:\\n32\";\n\n\tstruct ECDSASignature {\n\t\tuint8 v;\n\t\tbytes32 r;\n\t\tbytes32 s;\n\t}\n\n\tfunction isValidSignature(\n\t\taddress signer,\n\t\tbytes32 hash,\n\t\tECDSASignature signature\n\t)\n\t\tpublic\n\t\tpure\n\t\treturns (bool valid)\n\t{\n\t\tbytes32 prefixedHash = keccak256(PREFIX, hash);\n\t\treturn ecrecover(prefixedHash, signature.v, signature.r, signature.s) == signer;\n\t}\n}\n",
  "sourcePath": "/Users/graemeboy/Dharma/experimental/contracts/src/shared/libraries/SignaturesLibrary.sol",
  "compiler": {
    "name": "solc",
    "version": "0.4.24+commit.e67f0147.Emscripten.clang"
  },
  "schemaVersion": "2.0.1",
  "updatedAt": "2018-10-16T21:20:58.393Z"
}